{
  "_format": "hh-sol-artifact-1",
  "contractName": "DeNFT",
  "sourceName": "contracts/DeNFT.sol",
  "abi": [
    {
      "inputs": [],
      "stateMutability": "nonpayable",
      "type": "constructor"
    },
    {
      "anonymous": false,
      "inputs": [
        {
          "indexed": true,
          "internalType": "address",
          "name": "owner",
          "type": "address"
        },
        {
          "indexed": true,
          "internalType": "address",
          "name": "approved",
          "type": "address"
        },
        {
          "indexed": true,
          "internalType": "uint256",
          "name": "tokenID",
          "type": "uint256"
        }
      ],
      "name": "Approval",
      "type": "event"
    },
    {
      "anonymous": false,
      "inputs": [
        {
          "indexed": true,
          "internalType": "address",
          "name": "owner",
          "type": "address"
        },
        {
          "indexed": true,
          "internalType": "address",
          "name": "operator",
          "type": "address"
        },
        {
          "indexed": false,
          "internalType": "bool",
          "name": "approved",
          "type": "bool"
        }
      ],
      "name": "ApprovalForAll",
      "type": "event"
    },
    {
      "anonymous": false,
      "inputs": [
        {
          "indexed": true,
          "internalType": "address",
          "name": "account",
          "type": "address"
        },
        {
          "indexed": false,
          "internalType": "uint256",
          "name": "balance",
          "type": "uint256"
        }
      ],
      "name": "GetRewards",
      "type": "event"
    },
    {
      "anonymous": false,
      "inputs": [
        {
          "indexed": true,
          "internalType": "address",
          "name": "from",
          "type": "address"
        },
        {
          "indexed": true,
          "internalType": "address",
          "name": "to",
          "type": "address"
        },
        {
          "indexed": true,
          "internalType": "uint256",
          "name": "tokenID",
          "type": "uint256"
        }
      ],
      "name": "Transfer",
      "type": "event"
    },
    {
      "inputs": [
        {
          "internalType": "address",
          "name": "account",
          "type": "address"
        }
      ],
      "name": "allTokens",
      "outputs": [
        {
          "internalType": "uint256[]",
          "name": "",
          "type": "uint256[]"
        }
      ],
      "stateMutability": "view",
      "type": "function"
    },
    {
      "inputs": [
        {
          "internalType": "address",
          "name": "approved",
          "type": "address"
        },
        {
          "internalType": "uint256",
          "name": "tokenID",
          "type": "uint256"
        }
      ],
      "name": "approve",
      "outputs": [],
      "stateMutability": "payable",
      "type": "function"
    },
    {
      "inputs": [
        {
          "internalType": "address",
          "name": "account",
          "type": "address"
        }
      ],
      "name": "balanceOf",
      "outputs": [
        {
          "internalType": "uint256",
          "name": "",
          "type": "uint256"
        }
      ],
      "stateMutability": "view",
      "type": "function"
    },
    {
      "inputs": [
        {
          "internalType": "uint256",
          "name": "tokenID",
          "type": "uint256"
        }
      ],
      "name": "getApproved",
      "outputs": [
        {
          "internalType": "address",
          "name": "",
          "type": "address"
        }
      ],
      "stateMutability": "view",
      "type": "function"
    },
    {
      "inputs": [
        {
          "internalType": "address",
          "name": "owner",
          "type": "address"
        },
        {
          "internalType": "address",
          "name": "operator",
          "type": "address"
        }
      ],
      "name": "isApprovedForAll",
      "outputs": [
        {
          "internalType": "bool",
          "name": "",
          "type": "bool"
        }
      ],
      "stateMutability": "view",
      "type": "function"
    },
    {
      "inputs": [],
      "name": "mint",
      "outputs": [],
      "stateMutability": "payable",
      "type": "function"
    },
    {
      "inputs": [],
      "name": "name",
      "outputs": [
        {
          "internalType": "string",
          "name": "",
          "type": "string"
        }
      ],
      "stateMutability": "view",
      "type": "function"
    },
    {
      "inputs": [
        {
          "internalType": "uint256",
          "name": "tokenID",
          "type": "uint256"
        }
      ],
      "name": "ownerOf",
      "outputs": [
        {
          "internalType": "address",
          "name": "",
          "type": "address"
        }
      ],
      "stateMutability": "view",
      "type": "function"
    },
    {
      "inputs": [
        {
          "internalType": "address",
          "name": "",
          "type": "address"
        },
        {
          "internalType": "uint256",
          "name": "",
          "type": "uint256"
        }
      ],
      "name": "ownerToTokens",
      "outputs": [
        {
          "internalType": "uint256",
          "name": "",
          "type": "uint256"
        }
      ],
      "stateMutability": "view",
      "type": "function"
    },
    {
      "inputs": [
        {
          "internalType": "address",
          "name": "simpleContractAddress",
          "type": "address"
        }
      ],
      "name": "reward",
      "outputs": [],
      "stateMutability": "nonpayable",
      "type": "function"
    },
    {
      "inputs": [
        {
          "internalType": "address",
          "name": "operator",
          "type": "address"
        },
        {
          "internalType": "bool",
          "name": "approved",
          "type": "bool"
        }
      ],
      "name": "setApprovalForAll",
      "outputs": [],
      "stateMutability": "nonpayable",
      "type": "function"
    },
    {
      "inputs": [],
      "name": "symbol",
      "outputs": [
        {
          "internalType": "string",
          "name": "",
          "type": "string"
        }
      ],
      "stateMutability": "view",
      "type": "function"
    },
    {
      "inputs": [],
      "name": "tokenContract",
      "outputs": [
        {
          "internalType": "address",
          "name": "",
          "type": "address"
        }
      ],
      "stateMutability": "view",
      "type": "function"
    },
    {
      "inputs": [],
      "name": "tokenId",
      "outputs": [
        {
          "internalType": "uint256",
          "name": "",
          "type": "uint256"
        }
      ],
      "stateMutability": "view",
      "type": "function"
    },
    {
      "inputs": [
        {
          "internalType": "address",
          "name": "to",
          "type": "address"
        },
        {
          "internalType": "uint256",
          "name": "tokenID",
          "type": "uint256"
        }
      ],
      "name": "transfer",
      "outputs": [],
      "stateMutability": "payable",
      "type": "function"
    },
    {
      "inputs": [
        {
          "internalType": "address",
          "name": "from",
          "type": "address"
        },
        {
          "internalType": "address",
          "name": "to",
          "type": "address"
        },
        {
          "internalType": "uint256",
          "name": "tokenID",
          "type": "uint256"
        }
      ],
      "name": "transferFrom",
      "outputs": [],
      "stateMutability": "payable",
      "type": "function"
    }
  ],
  "bytecode": "0x60806040526040518060400160405280600581526020017f44654e465400000000000000000000000000000000000000000000000000000081525060009080519060200190620000519291906200010b565b506040518060400160405280600481526020017f444e465400000000000000000000000000000000000000000000000000000000815250600190805190602001906200009f9291906200010b565b50600160025530600460006101000a81548173ffffffffffffffffffffffffffffffffffffffff021916908373ffffffffffffffffffffffffffffffffffffffff16021790555060006005556000600655348015620000fd57600080fd5b504260058190555062000220565b8280546200011990620001bb565b90600052602060002090601f0160209004810192826200013d576000855562000189565b82601f106200015857805160ff191683800117855562000189565b8280016001018555821562000189579182015b82811115620001885782518255916020019190600101906200016b565b5b5090506200019891906200019c565b5090565b5b80821115620001b75760008160009055506001016200019d565b5090565b60006002820490506001821680620001d457607f821691505b60208210811415620001eb57620001ea620001f1565b5b50919050565b7f4e487b7100000000000000000000000000000000000000000000000000000000600052602260045260246000fd5b61301280620002306000396000f3fe6080604052600436106100f35760003560e01c80636352211e1161008a57806395ded45c1161005957806395ded45c14610303578063a22cb46514610340578063a9059cbb14610369578063e985e9c514610385576100f3565b80636352211e146102355780636353586b1461027257806370a082311461029b57806395d89b41146102d8576100f3565b80631249c58b116100c65780631249c58b146101b957806317d70f7c146101c357806323b872dd146101ee57806355a373d61461020a576100f3565b806306fdde03146100f8578063081812fc14610123578063095ea7b3146101605780630d828fe01461017c575b600080fd5b34801561010457600080fd5b5061010d6103c2565b60405161011a9190612656565b60405180910390f35b34801561012f57600080fd5b5061014a60048036038101906101459190612259565b610450565b60405161015791906125d5565b60405180910390f35b61017a600480360381019061017591906121f4565b61052f565b005b34801561018857600080fd5b506101a3600480360381019061019e91906121f4565b6106f1565b6040516101b091906128a8565b60405180910390f35b6101c1610722565b005b3480156101cf57600080fd5b506101d861095d565b6040516101e591906128a8565b60405180910390f35b61020860048036038101906102039190612169565b610963565b005b34801561021657600080fd5b5061021f611175565b60405161022c91906125d5565b60405180910390f35b34801561024157600080fd5b5061025c60048036038101906102579190612259565b61119b565b60405161026991906125d5565b60405180910390f35b34801561027e57600080fd5b5061029960048036038101906102949190612104565b61127a565b005b3480156102a757600080fd5b506102c260048036038101906102bd9190612104565b611553565b6040516102cf91906128a8565b60405180910390f35b3480156102e457600080fd5b506102ed61160b565b6040516102fa9190612656565b60405180910390f35b34801561030f57600080fd5b5061032a60048036038101906103259190612104565b611699565b6040516103379190612619565b60405180910390f35b34801561034c57600080fd5b50610367600480360381019061036291906121b8565b611736565b005b610383600480360381019061037e91906121f4565b6118a4565b005b34801561039157600080fd5b506103ac60048036038101906103a7919061212d565b611e4b565b6040516103b9919061263b565b60405180910390f35b600080546103cf90612a2f565b80601f01602080910402602001604051908101604052809291908181526020018280546103fb90612a2f565b80156104485780601f1061041d57610100808354040283529160200191610448565b820191906000526020600020905b81548152906001019060200180831161042b57829003601f168201915b505050505081565b60008073ffffffffffffffffffffffffffffffffffffffff166007600084815260200190815260200160002060009054906101000a900473ffffffffffffffffffffffffffffffffffffffff1673ffffffffffffffffffffffffffffffffffffffff1614156104f4576040517f08c379a00000000000000000000000000000000000000000000000000000000081526004016104eb90612708565b60405180910390fd5b600a600083815260200190815260200160002060009054906101000a900473ffffffffffffffffffffffffffffffffffffffff169050919050565b600073ffffffffffffffffffffffffffffffffffffffff168273ffffffffffffffffffffffffffffffffffffffff16141561059f576040517f08c379a000000000000000000000000000000000000000000000000000000000815260040161059690612868565b60405180910390fd5b3373ffffffffffffffffffffffffffffffffffffffff166007600083815260200190815260200160002060009054906101000a900473ffffffffffffffffffffffffffffffffffffffff1673ffffffffffffffffffffffffffffffffffffffff1614610640576040517f08c379a0000000000000000000000000000000000000000000000000000000008152600401610637906127a8565b60405180910390fd5b81600a600083815260200190815260200160002060006101000a81548173ffffffffffffffffffffffffffffffffffffffff021916908373ffffffffffffffffffffffffffffffffffffffff160217905550808273ffffffffffffffffffffffffffffffffffffffff163373ffffffffffffffffffffffffffffffffffffffff167f8c5be1e5ebec7d5bd14f71427d1e84f3dd0314c0f7b2291e5b200ac8c7c3b92560405160405180910390a45050565b600c602052816000526040600020818154811061070d57600080fd5b90600052602060002001600091509150505481565b67016345785d8a0000341461076c576040517f08c379a0000000000000000000000000000000000000000000000000000000008152600401610763906126e8565b60405180910390fd5b67016345785d8a0000600960003073ffffffffffffffffffffffffffffffffffffffff1673ffffffffffffffffffffffffffffffffffffffff16815260200190815260200160002060008282546107c39190612918565b925050819055506001600860003373ffffffffffffffffffffffffffffffffffffffff1673ffffffffffffffffffffffffffffffffffffffff168152602001908152602001600020600082825461081a9190612918565b925050819055503360076000600254815260200190815260200160002060006101000a81548173ffffffffffffffffffffffffffffffffffffffff021916908373ffffffffffffffffffffffffffffffffffffffff1602179055506002543373ffffffffffffffffffffffffffffffffffffffff163073ffffffffffffffffffffffffffffffffffffffff167fddf252ad1be2c89b69c2b068fc378daa952ba7f163c4a11628f55a4df523b3ef60405160405180910390a4600254600381905550600c60003373ffffffffffffffffffffffffffffffffffffffff1673ffffffffffffffffffffffffffffffffffffffff16815260200190815260200160002060025490806001815401808255809150506001900390600052602060002001600090919091909150556002600081548092919061095690612a61565b9190505550565b60025481565b600073ffffffffffffffffffffffffffffffffffffffff168373ffffffffffffffffffffffffffffffffffffffff1614156109d3576040517f08c379a00000000000000000000000000000000000000000000000000000000081526004016109ca90612808565b60405180910390fd5b600073ffffffffffffffffffffffffffffffffffffffff168273ffffffffffffffffffffffffffffffffffffffff161415610a43576040517f08c379a0000000000000000000000000000000000000000000000000000000008152600401610a3a906126a8565b60405180910390fd5b8273ffffffffffffffffffffffffffffffffffffffff166007600083815260200190815260200160002060009054906101000a900473ffffffffffffffffffffffffffffffffffffffff1673ffffffffffffffffffffffffffffffffffffffff1614610ae4576040517f08c379a0000000000000000000000000000000000000000000000000000000008152600401610adb90612828565b60405180910390fd5b3373ffffffffffffffffffffffffffffffffffffffff16600a600083815260200190815260200160002060009054906101000a900473ffffffffffffffffffffffffffffffffffffffff1673ffffffffffffffffffffffffffffffffffffffff161480610bde575060011515600b60008573ffffffffffffffffffffffffffffffffffffffff1673ffffffffffffffffffffffffffffffffffffffff16815260200190815260200160002060003373ffffffffffffffffffffffffffffffffffffffff1673ffffffffffffffffffffffffffffffffffffffff16815260200190815260200160002060009054906101000a900460ff161515145b610c1d576040517f08c379a0000000000000000000000000000000000000000000000000000000008152600401610c14906127c8565b60405180910390fd5b6001600860008573ffffffffffffffffffffffffffffffffffffffff1673ffffffffffffffffffffffffffffffffffffffff1681526020019081526020016000206000828254610c6d919061296e565b925050819055506000600c60008573ffffffffffffffffffffffffffffffffffffffff1673ffffffffffffffffffffffffffffffffffffffff16815260200190815260200160002080549050905060005b8181101561106a5782600c60008773ffffffffffffffffffffffffffffffffffffffff1673ffffffffffffffffffffffffffffffffffffffff1681526020019081526020016000208281548110610d3e577f4e487b7100000000000000000000000000000000000000000000000000000000600052603260045260246000fd5b90600052602060002001541415611057576001821415610e4e57600c60008573ffffffffffffffffffffffffffffffffffffffff1673ffffffffffffffffffffffffffffffffffffffff168152602001908152602001600020839080600181540180825580915050600190039060005260206000200160009091909190915055600c60008673ffffffffffffffffffffffffffffffffffffffff1673ffffffffffffffffffffffffffffffffffffffff168152602001908152602001600020805480610e33577f4e487b7100000000000000000000000000000000000000000000000000000000600052603160045260246000fd5b6001900381819060005260206000200160009055905561106a565b600c60008573ffffffffffffffffffffffffffffffffffffffff1673ffffffffffffffffffffffffffffffffffffffff168152602001908152602001600020839080600181540180825580915050600190039060005260206000200160009091909190915055600c60008673ffffffffffffffffffffffffffffffffffffffff1673ffffffffffffffffffffffffffffffffffffffff168152602001908152602001600020600183610f00919061296e565b81548110610f37577f4e487b7100000000000000000000000000000000000000000000000000000000600052603260045260246000fd5b9060005260206000200154600c60008773ffffffffffffffffffffffffffffffffffffffff1673ffffffffffffffffffffffffffffffffffffffff1681526020019081526020016000208281548110610fb9577f4e487b7100000000000000000000000000000000000000000000000000000000600052603260045260246000fd5b9060005260206000200181905550600c60008673ffffffffffffffffffffffffffffffffffffffff1673ffffffffffffffffffffffffffffffffffffffff16815260200190815260200160002080548061103c577f4e487b7100000000000000000000000000000000000000000000000000000000600052603160045260246000fd5b6001900381819060005260206000200160009055905561106a565b808061106290612a61565b915050610cbe565b506001600860008573ffffffffffffffffffffffffffffffffffffffff1673ffffffffffffffffffffffffffffffffffffffff16815260200190815260200160002060008282546110bb9190612918565b92505081905550826007600084815260200190815260200160002060006101000a81548173ffffffffffffffffffffffffffffffffffffffff021916908373ffffffffffffffffffffffffffffffffffffffff160217905550818373ffffffffffffffffffffffffffffffffffffffff168573ffffffffffffffffffffffffffffffffffffffff167fddf252ad1be2c89b69c2b068fc378daa952ba7f163c4a11628f55a4df523b3ef60405160405180910390a450505050565b600460009054906101000a900473ffffffffffffffffffffffffffffffffffffffff1681565b60008073ffffffffffffffffffffffffffffffffffffffff166007600084815260200190815260200160002060009054906101000a900473ffffffffffffffffffffffffffffffffffffffff1673ffffffffffffffffffffffffffffffffffffffff16141561123f576040517f08c379a000000000000000000000000000000000000000000000000000000000815260040161123690612708565b60405180910390fd5b6007600083815260200190815260200160002060009054906101000a900473ffffffffffffffffffffffffffffffffffffffff169050919050565b600160035410156112c0576040517f08c379a00000000000000000000000000000000000000000000000000000000081526004016112b7906126c8565b60405180910390fd5b4262093a806005546112d29190612918565b1115611313576040517f08c379a000000000000000000000000000000000000000000000000000000000815260040161130a906127e8565b60405180910390fd5b60008042600581905550600191505b600354821161154e5760006007600084815260200190815260200160002060009054906101000a900473ffffffffffffffffffffffffffffffffffffffff1690508373ffffffffffffffffffffffffffffffffffffffff1663a9059cbb82678ac7230489e800006040518363ffffffff1660e01b81526004016113a69291906125f0565b602060405180830381600087803b1580156113c057600080fd5b505af11580156113d4573d6000803e3d6000fd5b505050506040513d601f19601f820116820180604052508101906113f89190612230565b508373ffffffffffffffffffffffffffffffffffffffff166370a082316007600086815260200190815260200160002060009054906101000a900473ffffffffffffffffffffffffffffffffffffffff166040518263ffffffff1660e01b815260040161146591906125d5565b602060405180830381600087803b15801561147f57600080fd5b505af1158015611493573d6000803e3d6000fd5b505050506040513d601f19601f820116820180604052508101906114b79190612282565b91506007600084815260200190815260200160002060009054906101000a900473ffffffffffffffffffffffffffffffffffffffff1673ffffffffffffffffffffffffffffffffffffffff167f9cace18813e272c7f2a68ee847a431e8f5d6ee8bb4b91ae4567f79ca9198595c8360405161153291906128a8565b60405180910390a250818061154690612a61565b925050611322565b505050565b60008073ffffffffffffffffffffffffffffffffffffffff168273ffffffffffffffffffffffffffffffffffffffff1614156115c4576040517f08c379a00000000000000000000000000000000000000000000000000000000081526004016115bb90612768565b60405180910390fd5b600860008373ffffffffffffffffffffffffffffffffffffffff1673ffffffffffffffffffffffffffffffffffffffff168152602001908152602001600020549050919050565b6001805461161890612a2f565b80601f016020809104026020016040519081016040528092919081815260200182805461164490612a2f565b80156116915780601f1061166657610100808354040283529160200191611691565b820191906000526020600020905b81548152906001019060200180831161167457829003601f168201915b505050505081565b60606000600c60008473ffffffffffffffffffffffffffffffffffffffff1673ffffffffffffffffffffffffffffffffffffffff16815260200190815260200160002080548060200260200160405190810160405280929190818152602001828054801561172657602002820191906000526020600020905b815481526020019060010190808311611712575b5050505050905080915050919050565b600073ffffffffffffffffffffffffffffffffffffffff168273ffffffffffffffffffffffffffffffffffffffff1614156117a6576040517f08c379a000000000000000000000000000000000000000000000000000000000815260040161179d90612888565b60405180910390fd5b6001600b60003373ffffffffffffffffffffffffffffffffffffffff1673ffffffffffffffffffffffffffffffffffffffff16815260200190815260200160002060008473ffffffffffffffffffffffffffffffffffffffff1673ffffffffffffffffffffffffffffffffffffffff16815260200190815260200160002060006101000a81548160ff0219169083151502179055508173ffffffffffffffffffffffffffffffffffffffff163373ffffffffffffffffffffffffffffffffffffffff167f17307eab39ab6107e8899845ad3d59bd9653f200f220920489ca2b5937696c3183604051611898919061263b565b60405180910390a35050565b600073ffffffffffffffffffffffffffffffffffffffff168273ffffffffffffffffffffffffffffffffffffffff161415611914576040517f08c379a000000000000000000000000000000000000000000000000000000000815260040161190b90612728565b60405180910390fd5b3373ffffffffffffffffffffffffffffffffffffffff166007600083815260200190815260200160002060009054906101000a900473ffffffffffffffffffffffffffffffffffffffff1673ffffffffffffffffffffffffffffffffffffffff16146119b5576040517f08c379a00000000000000000000000000000000000000000000000000000000081526004016119ac90612748565b60405180910390fd5b6001600860003373ffffffffffffffffffffffffffffffffffffffff1673ffffffffffffffffffffffffffffffffffffffff1681526020019081526020016000206000828254611a05919061296e565b9250508190555060006001600c60003373ffffffffffffffffffffffffffffffffffffffff1673ffffffffffffffffffffffffffffffffffffffff16815260200190815260200160002080549050611a5d919061296e565b9050611a9e6040518060400160405280600981526020017f6c656e677468202d20000000000000000000000000000000000000000000000081525082611fd6565b60005b818111611dea5782600c60003373ffffffffffffffffffffffffffffffffffffffff1673ffffffffffffffffffffffffffffffffffffffff1681526020019081526020016000208281548110611b20577f4e487b7100000000000000000000000000000000000000000000000000000000600052603260045260246000fd5b90600052602060002001541415611dd757600c60008573ffffffffffffffffffffffffffffffffffffffff1673ffffffffffffffffffffffffffffffffffffffff168152602001908152602001600020839080600181540180825580915050600190039060005260206000200160009091909190915055600c60003373ffffffffffffffffffffffffffffffffffffffff1673ffffffffffffffffffffffffffffffffffffffff1681526020019081526020016000208281548110611c0e577f4e487b7100000000000000000000000000000000000000000000000000000000600052603260045260246000fd5b9060005260206000200154600c60003373ffffffffffffffffffffffffffffffffffffffff1673ffffffffffffffffffffffffffffffffffffffff1681526020019081526020016000208281548110611c90577f4e487b7100000000000000000000000000000000000000000000000000000000600052603260045260246000fd5b9060005260206000200181905550600c60003373ffffffffffffffffffffffffffffffffffffffff1673ffffffffffffffffffffffffffffffffffffffff168152602001908152602001600020805480611d13577f4e487b7100000000000000000000000000000000000000000000000000000000600052603160045260246000fd5b60019003818190600052602060002001600090559055836007600085815260200190815260200160002060006101000a81548173ffffffffffffffffffffffffffffffffffffffff021916908373ffffffffffffffffffffffffffffffffffffffff1602179055506001600860008673ffffffffffffffffffffffffffffffffffffffff1673ffffffffffffffffffffffffffffffffffffffff1681526020019081526020016000206000828254611dcb9190612918565b92505081905550611dea565b8080611de290612a61565b915050611aa1565b50818373ffffffffffffffffffffffffffffffffffffffff163373ffffffffffffffffffffffffffffffffffffffff167fddf252ad1be2c89b69c2b068fc378daa952ba7f163c4a11628f55a4df523b3ef60405160405180910390a4505050565b60008073ffffffffffffffffffffffffffffffffffffffff168373ffffffffffffffffffffffffffffffffffffffff161415611ebc576040517f08c379a0000000000000000000000000000000000000000000000000000000008152600401611eb390612788565b60405180910390fd5b600073ffffffffffffffffffffffffffffffffffffffff168273ffffffffffffffffffffffffffffffffffffffff161415611f2c576040517f08c379a0000000000000000000000000000000000000000000000000000000008152600401611f2390612848565b60405180910390fd5b60011515600b60008573ffffffffffffffffffffffffffffffffffffffff1673ffffffffffffffffffffffffffffffffffffffff16815260200190815260200160002060008473ffffffffffffffffffffffffffffffffffffffff1673ffffffffffffffffffffffffffffffffffffffff16815260200190815260200160002060009054906101000a900460ff1615151415611fcb5760019050611fd0565b600090505b92915050565b61206e8282604051602401611fec929190612678565b6040516020818303038152906040527f9710a9d0000000000000000000000000000000000000000000000000000000007bffffffffffffffffffffffffffffffffffffffffffffffffffffffff19166020820180517bffffffffffffffffffffffffffffffffffffffffffffffffffffffff8381831617835250505050612072565b5050565b60008151905060006a636f6e736f6c652e6c6f679050602083016000808483855afa5050505050565b6000813590506120aa81612f97565b92915050565b6000813590506120bf81612fae565b92915050565b6000815190506120d481612fae565b92915050565b6000813590506120e981612fc5565b92915050565b6000815190506120fe81612fc5565b92915050565b60006020828403121561211657600080fd5b60006121248482850161209b565b91505092915050565b6000806040838503121561214057600080fd5b600061214e8582860161209b565b925050602061215f8582860161209b565b9150509250929050565b60008060006060848603121561217e57600080fd5b600061218c8682870161209b565b935050602061219d8682870161209b565b92505060406121ae868287016120da565b9150509250925092565b600080604083850312156121cb57600080fd5b60006121d98582860161209b565b92505060206121ea858286016120b0565b9150509250929050565b6000806040838503121561220757600080fd5b60006122158582860161209b565b9250506020612226858286016120da565b9150509250929050565b60006020828403121561224257600080fd5b6000612250848285016120c5565b91505092915050565b60006020828403121561226b57600080fd5b6000612279848285016120da565b91505092915050565b60006020828403121561229457600080fd5b60006122a2848285016120ef565b91505092915050565b60006122b783836125b7565b60208301905092915050565b6122cc816129a2565b82525050565b60006122dd826128d3565b6122e781856128f6565b93506122f2836128c3565b8060005b8381101561232357815161230a88826122ab565b9750612315836128e9565b9250506001810190506122f6565b5085935050505092915050565b612339816129b4565b82525050565b612348816129ea565b82525050565b6000612359826128de565b6123638185612907565b93506123738185602086016129fc565b61237c81612b08565b840191505092915050565b6000612394603283612907565b915061239f82612b19565b604082019050919050565b60006123b7601183612907565b91506123c282612b68565b602082019050919050565b60006123da601f83612907565b91506123e582612b91565b602082019050919050565b60006123fd602183612907565b915061240882612bba565b604082019050919050565b6000612420602a83612907565b915061242b82612c09565b604082019050919050565b6000612443602f83612907565b915061244e82612c58565b604082019050919050565b6000612466602283612907565b915061247182612ca7565b604082019050919050565b6000612489603983612907565b915061249482612cf6565b604082019050919050565b60006124ac602283612907565b91506124b782612d45565b604082019050919050565b60006124cf602883612907565b91506124da82612d94565b604082019050919050565b60006124f2601e83612907565b91506124fd82612de3565b602082019050919050565b6000612515603483612907565b915061252082612e0c565b604082019050919050565b6000612538602683612907565b915061254382612e5b565b604082019050919050565b600061255b603c83612907565b915061256682612eaa565b604082019050919050565b600061257e603283612907565b915061258982612ef9565b604082019050919050565b60006125a1603183612907565b91506125ac82612f48565b604082019050919050565b6125c0816129e0565b82525050565b6125cf816129e0565b82525050565b60006020820190506125ea60008301846122c3565b92915050565b600060408201905061260560008301856122c3565b612612602083018461233f565b9392505050565b6000602082019050818103600083015261263381846122d2565b905092915050565b60006020820190506126506000830184612330565b92915050565b60006020820190508181036000830152612670818461234e565b905092915050565b60006040820190508181036000830152612692818561234e565b90506126a160208301846125c6565b9392505050565b600060208201905081810360008301526126c181612387565b9050919050565b600060208201905081810360008301526126e1816123aa565b9050919050565b60006020820190508181036000830152612701816123cd565b9050919050565b60006020820190508181036000830152612721816123f0565b9050919050565b6000602082019050818103600083015261274181612413565b9050919050565b6000602082019050818103600083015261276181612436565b9050919050565b6000602082019050818103600083015261278181612459565b9050919050565b600060208201905081810360008301526127a18161247c565b9050919050565b600060208201905081810360008301526127c18161249f565b9050919050565b600060208201905081810360008301526127e1816124c2565b9050919050565b60006020820190508181036000830152612801816124e5565b9050919050565b6000602082019050818103600083015261282181612508565b9050919050565b600060208201905081810360008301526128418161252b565b9050919050565b600060208201905081810360008301526128618161254e565b9050919050565b6000602082019050818103600083015261288181612571565b9050919050565b600060208201905081810360008301526128a181612594565b9050919050565b60006020820190506128bd60008301846125c6565b92915050565b6000819050602082019050919050565b600081519050919050565b600081519050919050565b6000602082019050919050565b600082825260208201905092915050565b600082825260208201905092915050565b6000612923826129e0565b915061292e836129e0565b9250827fffffffffffffffffffffffffffffffffffffffffffffffffffffffffffffffff0382111561296357612962612aaa565b5b828201905092915050565b6000612979826129e0565b9150612984836129e0565b92508282101561299757612996612aaa565b5b828203905092915050565b60006129ad826129c0565b9050919050565b60008115159050919050565b600073ffffffffffffffffffffffffffffffffffffffff82169050919050565b6000819050919050565b60006129f5826129e0565b9050919050565b60005b83811015612a1a5780820151818401526020810190506129ff565b83811115612a29576000848401525b50505050565b60006002820490506001821680612a4757607f821691505b60208210811415612a5b57612a5a612ad9565b5b50919050565b6000612a6c826129e0565b91507fffffffffffffffffffffffffffffffffffffffffffffffffffffffffffffffff821415612a9f57612a9e612aaa565b5b600182019050919050565b7f4e487b7100000000000000000000000000000000000000000000000000000000600052601160045260246000fd5b7f4e487b7100000000000000000000000000000000000000000000000000000000600052602260045260246000fd5b6000601f19601f8301169050919050565b7f596f752063616e74206d616b65207472616e73616374696f6e20746f20656d7060008201527f7479206163636f756e7420616464726573730000000000000000000000000000602082015250565b7f4e6f206f6e652068617320616e204e4654000000000000000000000000000000600082015250565b7f5265717569726520302e3120657468657220666f72206275792031204e465400600082015250565b7f596f752066696e64206f776e6572206f66206e6f7420657869737420746f6b6560008201527f6e00000000000000000000000000000000000000000000000000000000000000602082015250565b7f596f752063616e74206d616b65207472616e73616374696f6e20746f20656d7060008201527f7479206164647265737300000000000000000000000000000000000000000000602082015250565b7f596f7520646f6e74206861766520616e2061636365737320666f7220646f207460008201527f686973207472616e73616374696f6e0000000000000000000000000000000000602082015250565b7f596f7520636865636b2062616c616e6365206f6620656d70747920616464726560008201527f7373000000000000000000000000000000000000000000000000000000000000602082015250565b7f596f752063616e7420636865636b20617070726f76616c20627920706173736960008201527f6e6720656d7074792061646472657373206f66206f776e657200000000000000602082015250565b7f596f7520646f6e74206861766520616363657373206f66207468697320746f6b60008201527f656e000000000000000000000000000000000000000000000000000000000000602082015250565b7f596f752063616e7420646f2074686973207472616e73616374696f6e2061732060008201527f617070726f766572000000000000000000000000000000000000000000000000602082015250565b7f596f752063616e7420646f2074686973206f7065726174696f6e206e6f770000600082015250565b7f596f752063616e74206d616b65207472616e73616374696f6e2066726f6d206560008201527f6d707479206163636f756e742061646472657373000000000000000000000000602082015250565b7f4f776e657220646f6e7420686176652061636365737320746f2074686973207460008201527f6f6b656e49440000000000000000000000000000000000000000000000000000602082015250565b7f596f752063616e7420636865636b20617070726f76616c20627920706173736960008201527f6e6720656d7074792061646472657373206f66206f70657261746f7200000000602082015250565b7f596f752063616e74206d616b6520617070726f766572206f6620746f6b656e2060008201527f7769746820656d70747920616464726573730000000000000000000000000000602082015250565b7f596f752063616e206e6f74206d616b6520617070726f76616c2077686963682060008201527f68617320656d7074792061646472657373000000000000000000000000000000602082015250565b612fa0816129a2565b8114612fab57600080fd5b50565b612fb7816129b4565b8114612fc257600080fd5b50565b612fce816129e0565b8114612fd957600080fd5b5056fea2646970667358221220867a37ecf295ffefbadd2eabb3a9c8ddea27d036c0707b93b27de034d04b1c2464736f6c63430008040033",
  "linkReferences": {},
  "deployedLinkReferences": {}
}