{
  "_format": "hh-sol-artifact-1",
  "contractName": "DeNFT",
  "sourceName": "contracts/DeNFT.sol",
  "abi": [
    {
      "inputs": [],
      "stateMutability": "nonpayable",
      "type": "constructor"
    },
    {
      "anonymous": false,
      "inputs": [
        {
          "indexed": true,
          "internalType": "address",
          "name": "owner",
          "type": "address"
        },
        {
          "indexed": true,
          "internalType": "address",
          "name": "approved",
          "type": "address"
        },
        {
          "indexed": true,
          "internalType": "uint256",
          "name": "tokenID",
          "type": "uint256"
        }
      ],
      "name": "Approval",
      "type": "event"
    },
    {
      "anonymous": false,
      "inputs": [
        {
          "indexed": true,
          "internalType": "address",
          "name": "owner",
          "type": "address"
        },
        {
          "indexed": true,
          "internalType": "address",
          "name": "operator",
          "type": "address"
        },
        {
          "indexed": false,
          "internalType": "bool",
          "name": "approved",
          "type": "bool"
        }
      ],
      "name": "ApprovalForAll",
      "type": "event"
    },
    {
      "anonymous": false,
      "inputs": [
        {
          "indexed": true,
          "internalType": "address",
          "name": "account",
          "type": "address"
        },
        {
          "indexed": false,
          "internalType": "uint256",
          "name": "balance",
          "type": "uint256"
        }
      ],
      "name": "GetRewards",
      "type": "event"
    },
    {
      "anonymous": false,
      "inputs": [
        {
          "indexed": true,
          "internalType": "address",
          "name": "from",
          "type": "address"
        },
        {
          "indexed": true,
          "internalType": "address",
          "name": "to",
          "type": "address"
        },
        {
          "indexed": true,
          "internalType": "uint256",
          "name": "tokenID",
          "type": "uint256"
        }
      ],
      "name": "Transfer",
      "type": "event"
    },
    {
      "inputs": [
        {
          "internalType": "address",
          "name": "account",
          "type": "address"
        }
      ],
      "name": "allTokens",
      "outputs": [
        {
          "internalType": "uint256[]",
          "name": "",
          "type": "uint256[]"
        }
      ],
      "stateMutability": "view",
      "type": "function"
    },
    {
      "inputs": [
        {
          "internalType": "address",
          "name": "approved",
          "type": "address"
        },
        {
          "internalType": "uint256",
          "name": "tokenID",
          "type": "uint256"
        }
      ],
      "name": "approve",
      "outputs": [],
      "stateMutability": "payable",
      "type": "function"
    },
    {
      "inputs": [
        {
          "internalType": "address",
          "name": "account",
          "type": "address"
        }
      ],
      "name": "balanceOf",
      "outputs": [
        {
          "internalType": "uint256",
          "name": "",
          "type": "uint256"
        }
      ],
      "stateMutability": "view",
      "type": "function"
    },
    {
      "inputs": [
        {
          "internalType": "uint256",
          "name": "tokenID",
          "type": "uint256"
        }
      ],
      "name": "getApproved",
      "outputs": [
        {
          "internalType": "address",
          "name": "",
          "type": "address"
        }
      ],
      "stateMutability": "view",
      "type": "function"
    },
    {
      "inputs": [
        {
          "internalType": "address",
          "name": "owner",
          "type": "address"
        },
        {
          "internalType": "address",
          "name": "operator",
          "type": "address"
        }
      ],
      "name": "isApprovedForAll",
      "outputs": [
        {
          "internalType": "bool",
          "name": "",
          "type": "bool"
        }
      ],
      "stateMutability": "view",
      "type": "function"
    },
    {
      "inputs": [],
      "name": "mint",
      "outputs": [],
      "stateMutability": "payable",
      "type": "function"
    },
    {
      "inputs": [],
      "name": "name",
      "outputs": [
        {
          "internalType": "string",
          "name": "",
          "type": "string"
        }
      ],
      "stateMutability": "view",
      "type": "function"
    },
    {
      "inputs": [
        {
          "internalType": "uint256",
          "name": "tokenID",
          "type": "uint256"
        }
      ],
      "name": "ownerOf",
      "outputs": [
        {
          "internalType": "address",
          "name": "",
          "type": "address"
        }
      ],
      "stateMutability": "view",
      "type": "function"
    },
    {
      "inputs": [
        {
          "internalType": "address",
          "name": "",
          "type": "address"
        },
        {
          "internalType": "uint256",
          "name": "",
          "type": "uint256"
        }
      ],
      "name": "ownerToTokens",
      "outputs": [
        {
          "internalType": "uint256",
          "name": "",
          "type": "uint256"
        }
      ],
      "stateMutability": "view",
      "type": "function"
    },
    {
      "inputs": [
        {
          "internalType": "address",
          "name": "simpleContractAddress",
          "type": "address"
        }
      ],
      "name": "reward",
      "outputs": [],
      "stateMutability": "nonpayable",
      "type": "function"
    },
    {
      "inputs": [
        {
          "internalType": "address",
          "name": "operator",
          "type": "address"
        },
        {
          "internalType": "bool",
          "name": "approved",
          "type": "bool"
        }
      ],
      "name": "setApprovalForAll",
      "outputs": [],
      "stateMutability": "nonpayable",
      "type": "function"
    },
    {
      "inputs": [],
      "name": "symbol",
      "outputs": [
        {
          "internalType": "string",
          "name": "",
          "type": "string"
        }
      ],
      "stateMutability": "view",
      "type": "function"
    },
    {
      "inputs": [],
      "name": "tokenContract",
      "outputs": [
        {
          "internalType": "address",
          "name": "",
          "type": "address"
        }
      ],
      "stateMutability": "view",
      "type": "function"
    },
    {
      "inputs": [],
      "name": "tokenId",
      "outputs": [
        {
          "internalType": "uint256",
          "name": "",
          "type": "uint256"
        }
      ],
      "stateMutability": "view",
      "type": "function"
    },
    {
      "inputs": [
        {
          "internalType": "address",
          "name": "to",
          "type": "address"
        },
        {
          "internalType": "uint256",
          "name": "tokenID",
          "type": "uint256"
        }
      ],
      "name": "transfer",
      "outputs": [],
      "stateMutability": "payable",
      "type": "function"
    },
    {
      "inputs": [
        {
          "internalType": "address",
          "name": "from",
          "type": "address"
        },
        {
          "internalType": "address",
          "name": "to",
          "type": "address"
        },
        {
          "internalType": "uint256",
          "name": "tokenID",
          "type": "uint256"
        }
      ],
      "name": "transferFrom",
      "outputs": [],
      "stateMutability": "payable",
      "type": "function"
    }
  ],
  "bytecode": "0x60806040526040518060400160405280600581526020017f44654e465400000000000000000000000000000000000000000000000000000081525060009080519060200190620000519291906200010b565b506040518060400160405280600481526020017f444e465400000000000000000000000000000000000000000000000000000000815250600190805190602001906200009f9291906200010b565b50600160025530600460006101000a81548173ffffffffffffffffffffffffffffffffffffffff021916908373ffffffffffffffffffffffffffffffffffffffff16021790555060006005556000600655348015620000fd57600080fd5b504260058190555062000220565b8280546200011990620001bb565b90600052602060002090601f0160209004810192826200013d576000855562000189565b82601f106200015857805160ff191683800117855562000189565b8280016001018555821562000189579182015b82811115620001885782518255916020019190600101906200016b565b5b5090506200019891906200019c565b5090565b5b80821115620001b75760008160009055506001016200019d565b5090565b60006002820490506001821680620001d457607f821691505b60208210811415620001eb57620001ea620001f1565b5b50919050565b7f4e487b7100000000000000000000000000000000000000000000000000000000600052602260045260246000fd5b612fea80620002306000396000f3fe6080604052600436106100f35760003560e01c80636352211e1161008a57806395ded45c1161005957806395ded45c14610303578063a22cb46514610340578063a9059cbb14610369578063e985e9c514610385576100f3565b80636352211e146102355780636353586b1461027257806370a082311461029b57806395d89b41146102d8576100f3565b80631249c58b116100c65780631249c58b146101b957806317d70f7c146101c357806323b872dd146101ee57806355a373d61461020a576100f3565b806306fdde03146100f8578063081812fc14610123578063095ea7b3146101605780630d828fe01461017c575b600080fd5b34801561010457600080fd5b5061010d6103c2565b60405161011a919061265e565b60405180910390f35b34801561012f57600080fd5b5061014a60048036038101906101459190612261565b610450565b60405161015791906125dd565b60405180910390f35b61017a600480360381019061017591906121fc565b61052f565b005b34801561018857600080fd5b506101a3600480360381019061019e91906121fc565b6106f1565b6040516101b09190612880565b60405180910390f35b6101c1610722565b005b3480156101cf57600080fd5b506101d861095d565b6040516101e59190612880565b60405180910390f35b61020860048036038101906102039190612171565b610963565b005b34801561021657600080fd5b5061021f611175565b60405161022c91906125dd565b60405180910390f35b34801561024157600080fd5b5061025c60048036038101906102579190612261565b61119b565b60405161026991906125dd565b60405180910390f35b34801561027e57600080fd5b506102996004803603810190610294919061210c565b61127a565b005b3480156102a757600080fd5b506102c260048036038101906102bd919061210c565b611553565b6040516102cf9190612880565b60405180910390f35b3480156102e457600080fd5b506102ed61160b565b6040516102fa919061265e565b60405180910390f35b34801561030f57600080fd5b5061032a6004803603810190610325919061210c565b611699565b6040516103379190612621565b60405180910390f35b34801561034c57600080fd5b50610367600480360381019061036291906121c0565b611736565b005b610383600480360381019061037e91906121fc565b6118a4565b005b34801561039157600080fd5b506103ac60048036038101906103a79190612135565b611f18565b6040516103b99190612643565b60405180910390f35b600080546103cf90612a07565b80601f01602080910402602001604051908101604052809291908181526020018280546103fb90612a07565b80156104485780601f1061041d57610100808354040283529160200191610448565b820191906000526020600020905b81548152906001019060200180831161042b57829003601f168201915b505050505081565b60008073ffffffffffffffffffffffffffffffffffffffff166007600084815260200190815260200160002060009054906101000a900473ffffffffffffffffffffffffffffffffffffffff1673ffffffffffffffffffffffffffffffffffffffff1614156104f4576040517f08c379a00000000000000000000000000000000000000000000000000000000081526004016104eb906126e0565b60405180910390fd5b600a600083815260200190815260200160002060009054906101000a900473ffffffffffffffffffffffffffffffffffffffff169050919050565b600073ffffffffffffffffffffffffffffffffffffffff168273ffffffffffffffffffffffffffffffffffffffff16141561059f576040517f08c379a000000000000000000000000000000000000000000000000000000000815260040161059690612840565b60405180910390fd5b3373ffffffffffffffffffffffffffffffffffffffff166007600083815260200190815260200160002060009054906101000a900473ffffffffffffffffffffffffffffffffffffffff1673ffffffffffffffffffffffffffffffffffffffff1614610640576040517f08c379a000000000000000000000000000000000000000000000000000000000815260040161063790612780565b60405180910390fd5b81600a600083815260200190815260200160002060006101000a81548173ffffffffffffffffffffffffffffffffffffffff021916908373ffffffffffffffffffffffffffffffffffffffff160217905550808273ffffffffffffffffffffffffffffffffffffffff163373ffffffffffffffffffffffffffffffffffffffff167f8c5be1e5ebec7d5bd14f71427d1e84f3dd0314c0f7b2291e5b200ac8c7c3b92560405160405180910390a45050565b600c602052816000526040600020818154811061070d57600080fd5b90600052602060002001600091509150505481565b67016345785d8a0000341461076c576040517f08c379a0000000000000000000000000000000000000000000000000000000008152600401610763906126c0565b60405180910390fd5b67016345785d8a0000600960003073ffffffffffffffffffffffffffffffffffffffff1673ffffffffffffffffffffffffffffffffffffffff16815260200190815260200160002060008282546107c391906128f0565b925050819055506001600860003373ffffffffffffffffffffffffffffffffffffffff1673ffffffffffffffffffffffffffffffffffffffff168152602001908152602001600020600082825461081a91906128f0565b925050819055503360076000600254815260200190815260200160002060006101000a81548173ffffffffffffffffffffffffffffffffffffffff021916908373ffffffffffffffffffffffffffffffffffffffff1602179055506002543373ffffffffffffffffffffffffffffffffffffffff163073ffffffffffffffffffffffffffffffffffffffff167fddf252ad1be2c89b69c2b068fc378daa952ba7f163c4a11628f55a4df523b3ef60405160405180910390a4600254600381905550600c60003373ffffffffffffffffffffffffffffffffffffffff1673ffffffffffffffffffffffffffffffffffffffff16815260200190815260200160002060025490806001815401808255809150506001900390600052602060002001600090919091909150556002600081548092919061095690612a39565b9190505550565b60025481565b600073ffffffffffffffffffffffffffffffffffffffff168373ffffffffffffffffffffffffffffffffffffffff1614156109d3576040517f08c379a00000000000000000000000000000000000000000000000000000000081526004016109ca906127e0565b60405180910390fd5b600073ffffffffffffffffffffffffffffffffffffffff168273ffffffffffffffffffffffffffffffffffffffff161415610a43576040517f08c379a0000000000000000000000000000000000000000000000000000000008152600401610a3a90612680565b60405180910390fd5b8273ffffffffffffffffffffffffffffffffffffffff166007600083815260200190815260200160002060009054906101000a900473ffffffffffffffffffffffffffffffffffffffff1673ffffffffffffffffffffffffffffffffffffffff1614610ae4576040517f08c379a0000000000000000000000000000000000000000000000000000000008152600401610adb90612800565b60405180910390fd5b3373ffffffffffffffffffffffffffffffffffffffff16600a600083815260200190815260200160002060009054906101000a900473ffffffffffffffffffffffffffffffffffffffff1673ffffffffffffffffffffffffffffffffffffffff161480610bde575060011515600b60008573ffffffffffffffffffffffffffffffffffffffff1673ffffffffffffffffffffffffffffffffffffffff16815260200190815260200160002060003373ffffffffffffffffffffffffffffffffffffffff1673ffffffffffffffffffffffffffffffffffffffff16815260200190815260200160002060009054906101000a900460ff161515145b610c1d576040517f08c379a0000000000000000000000000000000000000000000000000000000008152600401610c14906127a0565b60405180910390fd5b6001600860008573ffffffffffffffffffffffffffffffffffffffff1673ffffffffffffffffffffffffffffffffffffffff1681526020019081526020016000206000828254610c6d9190612946565b925050819055506000600c60008573ffffffffffffffffffffffffffffffffffffffff1673ffffffffffffffffffffffffffffffffffffffff16815260200190815260200160002080549050905060005b8181101561106a5782600c60008773ffffffffffffffffffffffffffffffffffffffff1673ffffffffffffffffffffffffffffffffffffffff1681526020019081526020016000208281548110610d3e577f4e487b7100000000000000000000000000000000000000000000000000000000600052603260045260246000fd5b90600052602060002001541415611057576001821415610e4e57600c60008573ffffffffffffffffffffffffffffffffffffffff1673ffffffffffffffffffffffffffffffffffffffff168152602001908152602001600020839080600181540180825580915050600190039060005260206000200160009091909190915055600c60008673ffffffffffffffffffffffffffffffffffffffff1673ffffffffffffffffffffffffffffffffffffffff168152602001908152602001600020805480610e33577f4e487b7100000000000000000000000000000000000000000000000000000000600052603160045260246000fd5b6001900381819060005260206000200160009055905561106a565b600c60008573ffffffffffffffffffffffffffffffffffffffff1673ffffffffffffffffffffffffffffffffffffffff168152602001908152602001600020839080600181540180825580915050600190039060005260206000200160009091909190915055600c60008673ffffffffffffffffffffffffffffffffffffffff1673ffffffffffffffffffffffffffffffffffffffff168152602001908152602001600020600183610f009190612946565b81548110610f37577f4e487b7100000000000000000000000000000000000000000000000000000000600052603260045260246000fd5b9060005260206000200154600c60008773ffffffffffffffffffffffffffffffffffffffff1673ffffffffffffffffffffffffffffffffffffffff1681526020019081526020016000208281548110610fb9577f4e487b7100000000000000000000000000000000000000000000000000000000600052603260045260246000fd5b9060005260206000200181905550600c60008673ffffffffffffffffffffffffffffffffffffffff1673ffffffffffffffffffffffffffffffffffffffff16815260200190815260200160002080548061103c577f4e487b7100000000000000000000000000000000000000000000000000000000600052603160045260246000fd5b6001900381819060005260206000200160009055905561106a565b808061106290612a39565b915050610cbe565b506001600860008573ffffffffffffffffffffffffffffffffffffffff1673ffffffffffffffffffffffffffffffffffffffff16815260200190815260200160002060008282546110bb91906128f0565b92505081905550826007600084815260200190815260200160002060006101000a81548173ffffffffffffffffffffffffffffffffffffffff021916908373ffffffffffffffffffffffffffffffffffffffff160217905550818373ffffffffffffffffffffffffffffffffffffffff168573ffffffffffffffffffffffffffffffffffffffff167fddf252ad1be2c89b69c2b068fc378daa952ba7f163c4a11628f55a4df523b3ef60405160405180910390a450505050565b600460009054906101000a900473ffffffffffffffffffffffffffffffffffffffff1681565b60008073ffffffffffffffffffffffffffffffffffffffff166007600084815260200190815260200160002060009054906101000a900473ffffffffffffffffffffffffffffffffffffffff1673ffffffffffffffffffffffffffffffffffffffff16141561123f576040517f08c379a0000000000000000000000000000000000000000000000000000000008152600401611236906126e0565b60405180910390fd5b6007600083815260200190815260200160002060009054906101000a900473ffffffffffffffffffffffffffffffffffffffff169050919050565b600160035410156112c0576040517f08c379a00000000000000000000000000000000000000000000000000000000081526004016112b7906126a0565b60405180910390fd5b4262093a806005546112d291906128f0565b1115611313576040517f08c379a000000000000000000000000000000000000000000000000000000000815260040161130a906127c0565b60405180910390fd5b60008042600581905550600191505b600354821161154e5760006007600084815260200190815260200160002060009054906101000a900473ffffffffffffffffffffffffffffffffffffffff1690508373ffffffffffffffffffffffffffffffffffffffff1663a9059cbb82678ac7230489e800006040518363ffffffff1660e01b81526004016113a69291906125f8565b602060405180830381600087803b1580156113c057600080fd5b505af11580156113d4573d6000803e3d6000fd5b505050506040513d601f19601f820116820180604052508101906113f89190612238565b508373ffffffffffffffffffffffffffffffffffffffff166370a082316007600086815260200190815260200160002060009054906101000a900473ffffffffffffffffffffffffffffffffffffffff166040518263ffffffff1660e01b815260040161146591906125dd565b602060405180830381600087803b15801561147f57600080fd5b505af1158015611493573d6000803e3d6000fd5b505050506040513d601f19601f820116820180604052508101906114b7919061228a565b91506007600084815260200190815260200160002060009054906101000a900473ffffffffffffffffffffffffffffffffffffffff1673ffffffffffffffffffffffffffffffffffffffff167f9cace18813e272c7f2a68ee847a431e8f5d6ee8bb4b91ae4567f79ca9198595c836040516115329190612880565b60405180910390a250818061154690612a39565b925050611322565b505050565b60008073ffffffffffffffffffffffffffffffffffffffff168273ffffffffffffffffffffffffffffffffffffffff1614156115c4576040517f08c379a00000000000000000000000000000000000000000000000000000000081526004016115bb90612740565b60405180910390fd5b600860008373ffffffffffffffffffffffffffffffffffffffff1673ffffffffffffffffffffffffffffffffffffffff168152602001908152602001600020549050919050565b6001805461161890612a07565b80601f016020809104026020016040519081016040528092919081815260200182805461164490612a07565b80156116915780601f1061166657610100808354040283529160200191611691565b820191906000526020600020905b81548152906001019060200180831161167457829003601f168201915b505050505081565b60606000600c60008473ffffffffffffffffffffffffffffffffffffffff1673ffffffffffffffffffffffffffffffffffffffff16815260200190815260200160002080548060200260200160405190810160405280929190818152602001828054801561172657602002820191906000526020600020905b815481526020019060010190808311611712575b5050505050905080915050919050565b600073ffffffffffffffffffffffffffffffffffffffff168273ffffffffffffffffffffffffffffffffffffffff1614156117a6576040517f08c379a000000000000000000000000000000000000000000000000000000000815260040161179d90612860565b60405180910390fd5b6001600b60003373ffffffffffffffffffffffffffffffffffffffff1673ffffffffffffffffffffffffffffffffffffffff16815260200190815260200160002060008473ffffffffffffffffffffffffffffffffffffffff1673ffffffffffffffffffffffffffffffffffffffff16815260200190815260200160002060006101000a81548160ff0219169083151502179055508173ffffffffffffffffffffffffffffffffffffffff163373ffffffffffffffffffffffffffffffffffffffff167f17307eab39ab6107e8899845ad3d59bd9653f200f220920489ca2b5937696c31836040516118989190612643565b60405180910390a35050565b600073ffffffffffffffffffffffffffffffffffffffff168273ffffffffffffffffffffffffffffffffffffffff161415611914576040517f08c379a000000000000000000000000000000000000000000000000000000000815260040161190b90612700565b60405180910390fd5b3373ffffffffffffffffffffffffffffffffffffffff166007600083815260200190815260200160002060009054906101000a900473ffffffffffffffffffffffffffffffffffffffff1673ffffffffffffffffffffffffffffffffffffffff16146119b5576040517f08c379a00000000000000000000000000000000000000000000000000000000081526004016119ac90612720565b60405180910390fd5b6001600860003373ffffffffffffffffffffffffffffffffffffffff1673ffffffffffffffffffffffffffffffffffffffff1681526020019081526020016000206000828254611a059190612946565b9250508190555060006001600c60003373ffffffffffffffffffffffffffffffffffffffff1673ffffffffffffffffffffffffffffffffffffffff16815260200190815260200160002080549050611a5d9190612946565b905060005b81811015611e0e5782600c60003373ffffffffffffffffffffffffffffffffffffffff1673ffffffffffffffffffffffffffffffffffffffff1681526020019081526020016000208281548110611ae2577f4e487b7100000000000000000000000000000000000000000000000000000000600052603260045260246000fd5b90600052602060002001541415611dfb576001821415611bf257600c60008573ffffffffffffffffffffffffffffffffffffffff1673ffffffffffffffffffffffffffffffffffffffff168152602001908152602001600020839080600181540180825580915050600190039060005260206000200160009091909190915055600c60003373ffffffffffffffffffffffffffffffffffffffff1673ffffffffffffffffffffffffffffffffffffffff168152602001908152602001600020805480611bd7577f4e487b7100000000000000000000000000000000000000000000000000000000600052603160045260246000fd5b60019003818190600052602060002001600090559055611e0e565b600c60008573ffffffffffffffffffffffffffffffffffffffff1673ffffffffffffffffffffffffffffffffffffffff168152602001908152602001600020839080600181540180825580915050600190039060005260206000200160009091909190915055600c60003373ffffffffffffffffffffffffffffffffffffffff1673ffffffffffffffffffffffffffffffffffffffff168152602001908152602001600020600183611ca49190612946565b81548110611cdb577f4e487b7100000000000000000000000000000000000000000000000000000000600052603260045260246000fd5b9060005260206000200154600c60003373ffffffffffffffffffffffffffffffffffffffff1673ffffffffffffffffffffffffffffffffffffffff1681526020019081526020016000208281548110611d5d577f4e487b7100000000000000000000000000000000000000000000000000000000600052603260045260246000fd5b9060005260206000200181905550600c60003373ffffffffffffffffffffffffffffffffffffffff1673ffffffffffffffffffffffffffffffffffffffff168152602001908152602001600020805480611de0577f4e487b7100000000000000000000000000000000000000000000000000000000600052603160045260246000fd5b60019003818190600052602060002001600090559055611e0e565b8080611e0690612a39565b915050611a62565b50826007600084815260200190815260200160002060006101000a81548173ffffffffffffffffffffffffffffffffffffffff021916908373ffffffffffffffffffffffffffffffffffffffff1602179055506001600860008573ffffffffffffffffffffffffffffffffffffffff1673ffffffffffffffffffffffffffffffffffffffff1681526020019081526020016000206000828254611eb191906128f0565b92505081905550818373ffffffffffffffffffffffffffffffffffffffff163373ffffffffffffffffffffffffffffffffffffffff167fddf252ad1be2c89b69c2b068fc378daa952ba7f163c4a11628f55a4df523b3ef60405160405180910390a4505050565b60008073ffffffffffffffffffffffffffffffffffffffff168373ffffffffffffffffffffffffffffffffffffffff161415611f89576040517f08c379a0000000000000000000000000000000000000000000000000000000008152600401611f8090612760565b60405180910390fd5b600073ffffffffffffffffffffffffffffffffffffffff168273ffffffffffffffffffffffffffffffffffffffff161415611ff9576040517f08c379a0000000000000000000000000000000000000000000000000000000008152600401611ff090612820565b60405180910390fd5b60011515600b60008573ffffffffffffffffffffffffffffffffffffffff1673ffffffffffffffffffffffffffffffffffffffff16815260200190815260200160002060008473ffffffffffffffffffffffffffffffffffffffff1673ffffffffffffffffffffffffffffffffffffffff16815260200190815260200160002060009054906101000a900460ff1615151415612098576001905061209d565b600090505b92915050565b6000813590506120b281612f6f565b92915050565b6000813590506120c781612f86565b92915050565b6000815190506120dc81612f86565b92915050565b6000813590506120f181612f9d565b92915050565b60008151905061210681612f9d565b92915050565b60006020828403121561211e57600080fd5b600061212c848285016120a3565b91505092915050565b6000806040838503121561214857600080fd5b6000612156858286016120a3565b9250506020612167858286016120a3565b9150509250929050565b60008060006060848603121561218657600080fd5b6000612194868287016120a3565b93505060206121a5868287016120a3565b92505060406121b6868287016120e2565b9150509250925092565b600080604083850312156121d357600080fd5b60006121e1858286016120a3565b92505060206121f2858286016120b8565b9150509250929050565b6000806040838503121561220f57600080fd5b600061221d858286016120a3565b925050602061222e858286016120e2565b9150509250929050565b60006020828403121561224a57600080fd5b6000612258848285016120cd565b91505092915050565b60006020828403121561227357600080fd5b6000612281848285016120e2565b91505092915050565b60006020828403121561229c57600080fd5b60006122aa848285016120f7565b91505092915050565b60006122bf83836125bf565b60208301905092915050565b6122d48161297a565b82525050565b60006122e5826128ab565b6122ef81856128ce565b93506122fa8361289b565b8060005b8381101561232b57815161231288826122b3565b975061231d836128c1565b9250506001810190506122fe565b5085935050505092915050565b6123418161298c565b82525050565b612350816129c2565b82525050565b6000612361826128b6565b61236b81856128df565b935061237b8185602086016129d4565b61238481612ae0565b840191505092915050565b600061239c6032836128df565b91506123a782612af1565b604082019050919050565b60006123bf6011836128df565b91506123ca82612b40565b602082019050919050565b60006123e2601f836128df565b91506123ed82612b69565b602082019050919050565b60006124056021836128df565b915061241082612b92565b604082019050919050565b6000612428602a836128df565b915061243382612be1565b604082019050919050565b600061244b602f836128df565b915061245682612c30565b604082019050919050565b600061246e6022836128df565b915061247982612c7f565b604082019050919050565b60006124916039836128df565b915061249c82612cce565b604082019050919050565b60006124b46022836128df565b91506124bf82612d1d565b604082019050919050565b60006124d76028836128df565b91506124e282612d6c565b604082019050919050565b60006124fa601e836128df565b915061250582612dbb565b602082019050919050565b600061251d6034836128df565b915061252882612de4565b604082019050919050565b60006125406026836128df565b915061254b82612e33565b604082019050919050565b6000612563603c836128df565b915061256e82612e82565b604082019050919050565b60006125866032836128df565b915061259182612ed1565b604082019050919050565b60006125a96031836128df565b91506125b482612f20565b604082019050919050565b6125c8816129b8565b82525050565b6125d7816129b8565b82525050565b60006020820190506125f260008301846122cb565b92915050565b600060408201905061260d60008301856122cb565b61261a6020830184612347565b9392505050565b6000602082019050818103600083015261263b81846122da565b905092915050565b60006020820190506126586000830184612338565b92915050565b600060208201905081810360008301526126788184612356565b905092915050565b600060208201905081810360008301526126998161238f565b9050919050565b600060208201905081810360008301526126b9816123b2565b9050919050565b600060208201905081810360008301526126d9816123d5565b9050919050565b600060208201905081810360008301526126f9816123f8565b9050919050565b600060208201905081810360008301526127198161241b565b9050919050565b600060208201905081810360008301526127398161243e565b9050919050565b6000602082019050818103600083015261275981612461565b9050919050565b6000602082019050818103600083015261277981612484565b9050919050565b60006020820190508181036000830152612799816124a7565b9050919050565b600060208201905081810360008301526127b9816124ca565b9050919050565b600060208201905081810360008301526127d9816124ed565b9050919050565b600060208201905081810360008301526127f981612510565b9050919050565b6000602082019050818103600083015261281981612533565b9050919050565b6000602082019050818103600083015261283981612556565b9050919050565b6000602082019050818103600083015261285981612579565b9050919050565b600060208201905081810360008301526128798161259c565b9050919050565b600060208201905061289560008301846125ce565b92915050565b6000819050602082019050919050565b600081519050919050565b600081519050919050565b6000602082019050919050565b600082825260208201905092915050565b600082825260208201905092915050565b60006128fb826129b8565b9150612906836129b8565b9250827fffffffffffffffffffffffffffffffffffffffffffffffffffffffffffffffff0382111561293b5761293a612a82565b5b828201905092915050565b6000612951826129b8565b915061295c836129b8565b92508282101561296f5761296e612a82565b5b828203905092915050565b600061298582612998565b9050919050565b60008115159050919050565b600073ffffffffffffffffffffffffffffffffffffffff82169050919050565b6000819050919050565b60006129cd826129b8565b9050919050565b60005b838110156129f25780820151818401526020810190506129d7565b83811115612a01576000848401525b50505050565b60006002820490506001821680612a1f57607f821691505b60208210811415612a3357612a32612ab1565b5b50919050565b6000612a44826129b8565b91507fffffffffffffffffffffffffffffffffffffffffffffffffffffffffffffffff821415612a7757612a76612a82565b5b600182019050919050565b7f4e487b7100000000000000000000000000000000000000000000000000000000600052601160045260246000fd5b7f4e487b7100000000000000000000000000000000000000000000000000000000600052602260045260246000fd5b6000601f19601f8301169050919050565b7f596f752063616e74206d616b65207472616e73616374696f6e20746f20656d7060008201527f7479206163636f756e7420616464726573730000000000000000000000000000602082015250565b7f4e6f206f6e652068617320616e204e4654000000000000000000000000000000600082015250565b7f5265717569726520302e3120657468657220666f72206275792031204e465400600082015250565b7f596f752066696e64206f776e6572206f66206e6f7420657869737420746f6b6560008201527f6e00000000000000000000000000000000000000000000000000000000000000602082015250565b7f596f752063616e74206d616b65207472616e73616374696f6e20746f20656d7060008201527f7479206164647265737300000000000000000000000000000000000000000000602082015250565b7f596f7520646f6e74206861766520616e2061636365737320666f7220646f207460008201527f686973207472616e73616374696f6e0000000000000000000000000000000000602082015250565b7f596f7520636865636b2062616c616e6365206f6620656d70747920616464726560008201527f7373000000000000000000000000000000000000000000000000000000000000602082015250565b7f596f752063616e7420636865636b20617070726f76616c20627920706173736960008201527f6e6720656d7074792061646472657373206f66206f776e657200000000000000602082015250565b7f596f7520646f6e74206861766520616363657373206f66207468697320746f6b60008201527f656e000000000000000000000000000000000000000000000000000000000000602082015250565b7f596f752063616e7420646f2074686973207472616e73616374696f6e2061732060008201527f617070726f766572000000000000000000000000000000000000000000000000602082015250565b7f596f752063616e7420646f2074686973206f7065726174696f6e206e6f770000600082015250565b7f596f752063616e74206d616b65207472616e73616374696f6e2066726f6d206560008201527f6d707479206163636f756e742061646472657373000000000000000000000000602082015250565b7f4f776e657220646f6e7420686176652061636365737320746f2074686973207460008201527f6f6b656e49440000000000000000000000000000000000000000000000000000602082015250565b7f596f752063616e7420636865636b20617070726f76616c20627920706173736960008201527f6e6720656d7074792061646472657373206f66206f70657261746f7200000000602082015250565b7f596f752063616e74206d616b6520617070726f766572206f6620746f6b656e2060008201527f7769746820656d70747920616464726573730000000000000000000000000000602082015250565b7f596f752063616e206e6f74206d616b6520617070726f76616c2077686963682060008201527f68617320656d7074792061646472657373000000000000000000000000000000602082015250565b612f788161297a565b8114612f8357600080fd5b50565b612f8f8161298c565b8114612f9a57600080fd5b50565b612fa6816129b8565b8114612fb157600080fd5b5056fea26469706673582212203ca978e3e45e4baff611fc350dd33d9344155583f808775dce7099b8f8a263db64736f6c63430008040033",
  "linkReferences": {},
  "deployedLinkReferences": {}
}