{
  "_format": "hh-sol-artifact-1",
  "contractName": "DeNFT",
  "sourceName": "contracts/DeNFT.sol",
  "abi": [
    {
      "inputs": [],
      "stateMutability": "nonpayable",
      "type": "constructor"
    },
    {
      "anonymous": false,
      "inputs": [
        {
          "indexed": true,
          "internalType": "address",
          "name": "owner",
          "type": "address"
        },
        {
          "indexed": true,
          "internalType": "address",
          "name": "approved",
          "type": "address"
        },
        {
          "indexed": true,
          "internalType": "uint256",
          "name": "tokenId",
          "type": "uint256"
        }
      ],
      "name": "Approval",
      "type": "event"
    },
    {
      "anonymous": false,
      "inputs": [
        {
          "indexed": true,
          "internalType": "address",
          "name": "owner",
          "type": "address"
        },
        {
          "indexed": true,
          "internalType": "address",
          "name": "operator",
          "type": "address"
        },
        {
          "indexed": false,
          "internalType": "bool",
          "name": "approved",
          "type": "bool"
        }
      ],
      "name": "ApprovalForAll",
      "type": "event"
    },
    {
      "anonymous": false,
      "inputs": [
        {
          "indexed": true,
          "internalType": "address",
          "name": "previousOwner",
          "type": "address"
        },
        {
          "indexed": true,
          "internalType": "address",
          "name": "newOwner",
          "type": "address"
        }
      ],
      "name": "OwnershipTransferred",
      "type": "event"
    },
    {
      "anonymous": false,
      "inputs": [
        {
          "indexed": true,
          "internalType": "address",
          "name": "from",
          "type": "address"
        },
        {
          "indexed": true,
          "internalType": "address",
          "name": "to",
          "type": "address"
        },
        {
          "indexed": true,
          "internalType": "uint256",
          "name": "tokenId",
          "type": "uint256"
        }
      ],
      "name": "Transfer",
      "type": "event"
    },
    {
      "inputs": [
        {
          "internalType": "address",
          "name": "to",
          "type": "address"
        },
        {
          "internalType": "uint256",
          "name": "tokenId",
          "type": "uint256"
        }
      ],
      "name": "approve",
      "outputs": [],
      "stateMutability": "nonpayable",
      "type": "function"
    },
    {
      "inputs": [
        {
          "internalType": "address",
          "name": "owner",
          "type": "address"
        }
      ],
      "name": "balanceOf",
      "outputs": [
        {
          "internalType": "uint256",
          "name": "",
          "type": "uint256"
        }
      ],
      "stateMutability": "view",
      "type": "function"
    },
    {
      "inputs": [
        {
          "internalType": "uint256",
          "name": "tokenId",
          "type": "uint256"
        }
      ],
      "name": "getApproved",
      "outputs": [
        {
          "internalType": "address",
          "name": "",
          "type": "address"
        }
      ],
      "stateMutability": "view",
      "type": "function"
    },
    {
      "inputs": [
        {
          "internalType": "address",
          "name": "owner",
          "type": "address"
        },
        {
          "internalType": "address",
          "name": "operator",
          "type": "address"
        }
      ],
      "name": "isApprovedForAll",
      "outputs": [
        {
          "internalType": "bool",
          "name": "",
          "type": "bool"
        }
      ],
      "stateMutability": "view",
      "type": "function"
    },
    {
      "inputs": [
        {
          "internalType": "string",
          "name": "_tokenUri",
          "type": "string"
        }
      ],
      "name": "mintDeNFT",
      "outputs": [],
      "stateMutability": "payable",
      "type": "function"
    },
    {
      "inputs": [],
      "name": "name",
      "outputs": [
        {
          "internalType": "string",
          "name": "",
          "type": "string"
        }
      ],
      "stateMutability": "view",
      "type": "function"
    },
    {
      "inputs": [],
      "name": "owner",
      "outputs": [
        {
          "internalType": "address",
          "name": "",
          "type": "address"
        }
      ],
      "stateMutability": "view",
      "type": "function"
    },
    {
      "inputs": [
        {
          "internalType": "uint256",
          "name": "tokenId",
          "type": "uint256"
        }
      ],
      "name": "ownerOf",
      "outputs": [
        {
          "internalType": "address",
          "name": "",
          "type": "address"
        }
      ],
      "stateMutability": "view",
      "type": "function"
    },
    {
      "inputs": [],
      "name": "renounceOwnership",
      "outputs": [],
      "stateMutability": "nonpayable",
      "type": "function"
    },
    {
      "inputs": [
        {
          "internalType": "address",
          "name": "from",
          "type": "address"
        },
        {
          "internalType": "address",
          "name": "to",
          "type": "address"
        },
        {
          "internalType": "uint256",
          "name": "tokenId",
          "type": "uint256"
        }
      ],
      "name": "safeTransferFrom",
      "outputs": [],
      "stateMutability": "nonpayable",
      "type": "function"
    },
    {
      "inputs": [
        {
          "internalType": "address",
          "name": "from",
          "type": "address"
        },
        {
          "internalType": "address",
          "name": "to",
          "type": "address"
        },
        {
          "internalType": "uint256",
          "name": "tokenId",
          "type": "uint256"
        },
        {
          "internalType": "bytes",
          "name": "data",
          "type": "bytes"
        }
      ],
      "name": "safeTransferFrom",
      "outputs": [],
      "stateMutability": "nonpayable",
      "type": "function"
    },
    {
      "inputs": [
        {
          "internalType": "address",
          "name": "operator",
          "type": "address"
        },
        {
          "internalType": "bool",
          "name": "approved",
          "type": "bool"
        }
      ],
      "name": "setApprovalForAll",
      "outputs": [],
      "stateMutability": "nonpayable",
      "type": "function"
    },
    {
      "inputs": [
        {
          "internalType": "bytes4",
          "name": "interfaceId",
          "type": "bytes4"
        }
      ],
      "name": "supportsInterface",
      "outputs": [
        {
          "internalType": "bool",
          "name": "",
          "type": "bool"
        }
      ],
      "stateMutability": "view",
      "type": "function"
    },
    {
      "inputs": [],
      "name": "symbol",
      "outputs": [
        {
          "internalType": "string",
          "name": "",
          "type": "string"
        }
      ],
      "stateMutability": "view",
      "type": "function"
    },
    {
      "inputs": [
        {
          "internalType": "uint256",
          "name": "index",
          "type": "uint256"
        }
      ],
      "name": "tokenByIndex",
      "outputs": [
        {
          "internalType": "uint256",
          "name": "",
          "type": "uint256"
        }
      ],
      "stateMutability": "view",
      "type": "function"
    },
    {
      "inputs": [
        {
          "internalType": "address",
          "name": "owner",
          "type": "address"
        },
        {
          "internalType": "uint256",
          "name": "index",
          "type": "uint256"
        }
      ],
      "name": "tokenOfOwnerByIndex",
      "outputs": [
        {
          "internalType": "uint256",
          "name": "",
          "type": "uint256"
        }
      ],
      "stateMutability": "view",
      "type": "function"
    },
    {
      "inputs": [
        {
          "internalType": "uint256",
          "name": "tokenId",
          "type": "uint256"
        }
      ],
      "name": "tokenURI",
      "outputs": [
        {
          "internalType": "string",
          "name": "",
          "type": "string"
        }
      ],
      "stateMutability": "view",
      "type": "function"
    },
    {
      "inputs": [
        {
          "internalType": "address",
          "name": "user",
          "type": "address"
        },
        {
          "internalType": "uint256",
          "name": "cursor",
          "type": "uint256"
        },
        {
          "internalType": "uint256",
          "name": "size",
          "type": "uint256"
        }
      ],
      "name": "tokensOfOwnerBySize",
      "outputs": [
        {
          "internalType": "uint256[]",
          "name": "",
          "type": "uint256[]"
        },
        {
          "internalType": "uint256",
          "name": "",
          "type": "uint256"
        }
      ],
      "stateMutability": "view",
      "type": "function"
    },
    {
      "inputs": [],
      "name": "totalSupply",
      "outputs": [
        {
          "internalType": "uint256",
          "name": "",
          "type": "uint256"
        }
      ],
      "stateMutability": "view",
      "type": "function"
    },
    {
      "inputs": [],
      "name": "totalTokens",
      "outputs": [
        {
          "internalType": "uint256",
          "name": "",
          "type": "uint256"
        }
      ],
      "stateMutability": "view",
      "type": "function"
    },
    {
      "inputs": [
        {
          "internalType": "address",
          "name": "to",
          "type": "address"
        },
        {
          "internalType": "uint256",
          "name": "tokenID",
          "type": "uint256"
        }
      ],
      "name": "transfer",
      "outputs": [],
      "stateMutability": "payable",
      "type": "function"
    },
    {
      "inputs": [
        {
          "internalType": "address",
          "name": "from",
          "type": "address"
        },
        {
          "internalType": "address",
          "name": "to",
          "type": "address"
        },
        {
          "internalType": "uint256",
          "name": "tokenId",
          "type": "uint256"
        }
      ],
      "name": "transferFrom",
      "outputs": [],
      "stateMutability": "nonpayable",
      "type": "function"
    },
    {
      "inputs": [
        {
          "internalType": "address",
          "name": "newOwner",
          "type": "address"
        }
      ],
      "name": "transferOwnership",
      "outputs": [],
      "stateMutability": "nonpayable",
      "type": "function"
    }
  ],
  "bytecode": "0x60806040523480156200001157600080fd5b506040518060400160405280600581526020017f44654e46540000000000000000000000000000000000000000000000000000008152506040518060400160405280600481526020017f444e465400000000000000000000000000000000000000000000000000000000815250816000908051906020019062000096929190620001a6565b508060019080519060200190620000af929190620001a6565b505050620000d2620000c6620000d860201b60201c565b620000e060201b60201c565b620002bb565b600033905090565b6000600a60009054906101000a900473ffffffffffffffffffffffffffffffffffffffff16905081600a60006101000a81548173ffffffffffffffffffffffffffffffffffffffff021916908373ffffffffffffffffffffffffffffffffffffffff1602179055508173ffffffffffffffffffffffffffffffffffffffff168173ffffffffffffffffffffffffffffffffffffffff167f8be0079c531659141344cd1fd0a4f28419497f9722a3daafe3b4186f6b6457e060405160405180910390a35050565b828054620001b49062000256565b90600052602060002090601f016020900481019282620001d8576000855562000224565b82601f10620001f357805160ff191683800117855562000224565b8280016001018555821562000224579182015b828111156200022357825182559160200191906001019062000206565b5b50905062000233919062000237565b5090565b5b808211156200025257600081600090555060010162000238565b5090565b600060028204905060018216806200026f57607f821691505b602082108114156200028657620002856200028c565b5b50919050565b7f4e487b7100000000000000000000000000000000000000000000000000000000600052602260045260246000fd5b613b7d80620002cb6000396000f3fe6080604052600436106101405760003560e01c806370a08231116100b6578063a22cb4651161006f578063a22cb46514610476578063a9059cbb1461049f578063b88d4fde146104bb578063c87b56dd146104e4578063e985e9c514610521578063f2fde38b1461055e57610140565b806370a0823114610363578063715018a6146103a05780637e1c0c09146103b7578063854ec1af146103e25780638da5cb5b1461042057806395d89b411461044b57610140565b806318160ddd1161010857806318160ddd1461022f57806323b872dd1461025a5780632f745c591461028357806342842e0e146102c05780634f6ccce7146102e95780636352211e1461032657610140565b806301ffc9a71461014557806306fdde0314610182578063081812fc146101ad578063095ea7b3146101ea57806317ef6e9014610213575b600080fd5b34801561015157600080fd5b5061016c60048036038101906101679190612ab4565b610587565b6040516101799190612ff6565b60405180910390f35b34801561018e57600080fd5b50610197610601565b6040516101a49190613011565b60405180910390f35b3480156101b957600080fd5b506101d460048036038101906101cf9190612b47565b610693565b6040516101e19190612f5f565b60405180910390f35b3480156101f657600080fd5b50610211600480360381019061020c9190612a29565b6106d9565b005b61022d60048036038101906102289190612b06565b6107f1565b005b34801561023b57600080fd5b50610244610827565b6040516102519190613273565b60405180910390f35b34801561026657600080fd5b50610281600480360381019061027c9190612923565b610834565b005b34801561028f57600080fd5b506102aa60048036038101906102a59190612a29565b610894565b6040516102b79190613273565b60405180910390f35b3480156102cc57600080fd5b506102e760048036038101906102e29190612923565b610939565b005b3480156102f557600080fd5b50610310600480360381019061030b9190612b47565b610959565b60405161031d9190613273565b60405180910390f35b34801561033257600080fd5b5061034d60048036038101906103489190612b47565b6109f0565b60405161035a9190612f5f565b60405180910390f35b34801561036f57600080fd5b5061038a600480360381019061038591906128be565b610a77565b6040516103979190613273565b60405180910390f35b3480156103ac57600080fd5b506103b5610b2f565b005b3480156103c357600080fd5b506103cc610b43565b6040516103d99190613273565b60405180910390f35b3480156103ee57600080fd5b5061040960048036038101906104049190612a65565b610b54565b604051610417929190612fc6565b60405180910390f35b34801561042c57600080fd5b50610435610c95565b6040516104429190612f5f565b60405180910390f35b34801561045757600080fd5b50610460610cbf565b60405161046d9190613011565b60405180910390f35b34801561048257600080fd5b5061049d600480360381019061049891906129ed565b610d51565b005b6104b960048036038101906104b49190612a29565b610d67565b005b3480156104c757600080fd5b506104e260048036038101906104dd9190612972565b610d76565b005b3480156104f057600080fd5b5061050b60048036038101906105069190612b47565b610dd8565b6040516105189190613011565b60405180910390f35b34801561052d57600080fd5b50610548600480360381019061054391906128e7565b610f2a565b6040516105559190612ff6565b60405180910390f35b34801561056a57600080fd5b50610585600480360381019061058091906128be565b610fbe565b005b60007f780e9d63000000000000000000000000000000000000000000000000000000007bffffffffffffffffffffffffffffffffffffffffffffffffffffffff1916827bffffffffffffffffffffffffffffffffffffffffffffffffffffffff191614806105fa57506105f982611042565b5b9050919050565b606060008054610610906134d1565b80601f016020809104026020016040519081016040528092919081815260200182805461063c906134d1565b80156106895780601f1061065e57610100808354040283529160200191610689565b820191906000526020600020905b81548152906001019060200180831161066c57829003601f168201915b5050505050905090565b600061069e82611124565b6004600083815260200190815260200160002060009054906101000a900473ffffffffffffffffffffffffffffffffffffffff169050919050565b60006106e4826109f0565b90508073ffffffffffffffffffffffffffffffffffffffff168373ffffffffffffffffffffffffffffffffffffffff161415610755576040517f08c379a000000000000000000000000000000000000000000000000000000000815260040161074c906131f3565b60405180910390fd5b8073ffffffffffffffffffffffffffffffffffffffff1661077461116f565b73ffffffffffffffffffffffffffffffffffffffff1614806107a357506107a28161079d61116f565b610f2a565b5b6107e2576040517f08c379a00000000000000000000000000000000000000000000000000000000081526004016107d990613213565b60405180910390fd5b6107ec8383611177565b505050565b60006107fd600b611230565b9050600082905061080e338361123e565b610818828261145c565b610822600b6114d0565b505050565b6000600880549050905090565b61084561083f61116f565b826114e6565b610884576040517f08c379a000000000000000000000000000000000000000000000000000000000815260040161087b90613033565b60405180910390fd5b61088f83838361157b565b505050565b600061089f83610a77565b82106108e0576040517f08c379a00000000000000000000000000000000000000000000000000000000081526004016108d790613053565b60405180910390fd5b600660008473ffffffffffffffffffffffffffffffffffffffff1673ffffffffffffffffffffffffffffffffffffffff168152602001908152602001600020600083815260200190815260200160002054905092915050565b61095483838360405180602001604052806000815250610d76565b505050565b6000610963610827565b82106109a4576040517f08c379a000000000000000000000000000000000000000000000000000000000815260040161099b90613233565b60405180910390fd5b600882815481106109de577f4e487b7100000000000000000000000000000000000000000000000000000000600052603260045260246000fd5b90600052602060002001549050919050565b6000806109fc83611875565b9050600073ffffffffffffffffffffffffffffffffffffffff168173ffffffffffffffffffffffffffffffffffffffff161415610a6e576040517f08c379a0000000000000000000000000000000000000000000000000000000008152600401610a65906131d3565b60405180910390fd5b80915050919050565b60008073ffffffffffffffffffffffffffffffffffffffff168273ffffffffffffffffffffffffffffffffffffffff161415610ae8576040517f08c379a0000000000000000000000000000000000000000000000000000000008152600401610adf90613133565b60405180910390fd5b600360008373ffffffffffffffffffffffffffffffffffffffff1673ffffffffffffffffffffffffffffffffffffffff168152602001908152602001600020549050919050565b610b376118b2565b610b416000611930565b565b6000610b4f600b611230565b905090565b606060008083905084610b6687610a77565b610b7091906133e7565b811115610b8e5784610b8187610a77565b610b8b91906133e7565b90505b60008167ffffffffffffffff811115610bd0577f4e487b7100000000000000000000000000000000000000000000000000000000600052604160045260246000fd5b604051908082528060200260200182016040528015610bfe5781602001602082028036833780820191505090505b50905060005b82811015610c7957610c21888289610c1c9190613391565b610894565b828281518110610c5a577f4e487b7100000000000000000000000000000000000000000000000000000000600052603260045260246000fd5b6020026020010181815250508080610c7190613534565b915050610c04565b50808287610c879190613391565b935093505050935093915050565b6000600a60009054906101000a900473ffffffffffffffffffffffffffffffffffffffff16905090565b606060018054610cce906134d1565b80601f0160208091040260200160405190810160405280929190818152602001828054610cfa906134d1565b8015610d475780601f10610d1c57610100808354040283529160200191610d47565b820191906000526020600020905b815481529060010190602001808311610d2a57829003601f168201915b5050505050905090565b610d63610d5c61116f565b83836119f6565b5050565b610d7233838361157b565b5050565b610d87610d8161116f565b836114e6565b610dc6576040517f08c379a0000000000000000000000000000000000000000000000000000000008152600401610dbd90613033565b60405180910390fd5b610dd284848484611b63565b50505050565b6060610de382611bbf565b610e22576040517f08c379a0000000000000000000000000000000000000000000000000000000008152600401610e1990613193565b60405180910390fd5b6000600c60008481526020019081526020016000208054610e42906134d1565b80601f0160208091040260200160405190810160405280929190818152602001828054610e6e906134d1565b8015610ebb5780601f10610e9057610100808354040283529160200191610ebb565b820191906000526020600020905b815481529060010190602001808311610e9e57829003601f168201915b505050505090506000610ecc611c00565b9050600081511415610ee2578192505050610f25565b600082511115610f17578082604051602001610eff929190612f3b565b60405160208183030381529060405292505050610f25565b610f2084611c17565b925050505b919050565b6000600560008473ffffffffffffffffffffffffffffffffffffffff1673ffffffffffffffffffffffffffffffffffffffff16815260200190815260200160002060008373ffffffffffffffffffffffffffffffffffffffff1673ffffffffffffffffffffffffffffffffffffffff16815260200190815260200160002060009054906101000a900460ff16905092915050565b610fc66118b2565b600073ffffffffffffffffffffffffffffffffffffffff168173ffffffffffffffffffffffffffffffffffffffff161415611036576040517f08c379a000000000000000000000000000000000000000000000000000000000815260040161102d90613093565b60405180910390fd5b61103f81611930565b50565b60007f80ac58cd000000000000000000000000000000000000000000000000000000007bffffffffffffffffffffffffffffffffffffffffffffffffffffffff1916827bffffffffffffffffffffffffffffffffffffffffffffffffffffffff1916148061110d57507f5b5e139f000000000000000000000000000000000000000000000000000000007bffffffffffffffffffffffffffffffffffffffffffffffffffffffff1916827bffffffffffffffffffffffffffffffffffffffffffffffffffffffff1916145b8061111d575061111c82611c7f565b5b9050919050565b61112d81611bbf565b61116c576040517f08c379a0000000000000000000000000000000000000000000000000000000008152600401611163906131d3565b60405180910390fd5b50565b600033905090565b816004600083815260200190815260200160002060006101000a81548173ffffffffffffffffffffffffffffffffffffffff021916908373ffffffffffffffffffffffffffffffffffffffff160217905550808273ffffffffffffffffffffffffffffffffffffffff166111ea836109f0565b73ffffffffffffffffffffffffffffffffffffffff167f8c5be1e5ebec7d5bd14f71427d1e84f3dd0314c0f7b2291e5b200ac8c7c3b92560405160405180910390a45050565b600081600001549050919050565b600073ffffffffffffffffffffffffffffffffffffffff168273ffffffffffffffffffffffffffffffffffffffff1614156112ae576040517f08c379a00000000000000000000000000000000000000000000000000000000081526004016112a590613173565b60405180910390fd5b6112b781611bbf565b156112f7576040517f08c379a00000000000000000000000000000000000000000000000000000000081526004016112ee906130d3565b60405180910390fd5b611305600083836001611ce9565b61130e81611bbf565b1561134e576040517f08c379a0000000000000000000000000000000000000000000000000000000008152600401611345906130d3565b60405180910390fd5b6001600360008473ffffffffffffffffffffffffffffffffffffffff1673ffffffffffffffffffffffffffffffffffffffff16815260200190815260200160002060008282540192505081905550816002600083815260200190815260200160002060006101000a81548173ffffffffffffffffffffffffffffffffffffffff021916908373ffffffffffffffffffffffffffffffffffffffff160217905550808273ffffffffffffffffffffffffffffffffffffffff16600073ffffffffffffffffffffffffffffffffffffffff167fddf252ad1be2c89b69c2b068fc378daa952ba7f163c4a11628f55a4df523b3ef60405160405180910390a4611458600083836001611e49565b5050565b61146582611bbf565b6114a4576040517f08c379a000000000000000000000000000000000000000000000000000000000815260040161149b90613153565b60405180910390fd5b80600c600084815260200190815260200160002090805190602001906114cb9291906126e2565b505050565b6001816000016000828254019250508190555050565b6000806114f2836109f0565b90508073ffffffffffffffffffffffffffffffffffffffff168473ffffffffffffffffffffffffffffffffffffffff16148061153457506115338185610f2a565b5b8061157257508373ffffffffffffffffffffffffffffffffffffffff1661155a84610693565b73ffffffffffffffffffffffffffffffffffffffff16145b91505092915050565b8273ffffffffffffffffffffffffffffffffffffffff1661159b826109f0565b73ffffffffffffffffffffffffffffffffffffffff16146115f1576040517f08c379a00000000000000000000000000000000000000000000000000000000081526004016115e8906130b3565b60405180910390fd5b600073ffffffffffffffffffffffffffffffffffffffff168273ffffffffffffffffffffffffffffffffffffffff161415611661576040517f08c379a0000000000000000000000000000000000000000000000000000000008152600401611658906130f3565b60405180910390fd5b61166e8383836001611ce9565b8273ffffffffffffffffffffffffffffffffffffffff1661168e826109f0565b73ffffffffffffffffffffffffffffffffffffffff16146116e4576040517f08c379a00000000000000000000000000000000000000000000000000000000081526004016116db906130b3565b60405180910390fd5b6004600082815260200190815260200160002060006101000a81549073ffffffffffffffffffffffffffffffffffffffff02191690556001600360008573ffffffffffffffffffffffffffffffffffffffff1673ffffffffffffffffffffffffffffffffffffffff168152602001908152602001600020600082825403925050819055506001600360008473ffffffffffffffffffffffffffffffffffffffff1673ffffffffffffffffffffffffffffffffffffffff16815260200190815260200160002060008282540192505081905550816002600083815260200190815260200160002060006101000a81548173ffffffffffffffffffffffffffffffffffffffff021916908373ffffffffffffffffffffffffffffffffffffffff160217905550808273ffffffffffffffffffffffffffffffffffffffff168473ffffffffffffffffffffffffffffffffffffffff167fddf252ad1be2c89b69c2b068fc378daa952ba7f163c4a11628f55a4df523b3ef60405160405180910390a46118708383836001611e49565b505050565b60006002600083815260200190815260200160002060009054906101000a900473ffffffffffffffffffffffffffffffffffffffff169050919050565b6118ba61116f565b73ffffffffffffffffffffffffffffffffffffffff166118d8610c95565b73ffffffffffffffffffffffffffffffffffffffff161461192e576040517f08c379a0000000000000000000000000000000000000000000000000000000008152600401611925906131b3565b60405180910390fd5b565b6000600a60009054906101000a900473ffffffffffffffffffffffffffffffffffffffff16905081600a60006101000a81548173ffffffffffffffffffffffffffffffffffffffff021916908373ffffffffffffffffffffffffffffffffffffffff1602179055508173ffffffffffffffffffffffffffffffffffffffff168173ffffffffffffffffffffffffffffffffffffffff167f8be0079c531659141344cd1fd0a4f28419497f9722a3daafe3b4186f6b6457e060405160405180910390a35050565b8173ffffffffffffffffffffffffffffffffffffffff168373ffffffffffffffffffffffffffffffffffffffff161415611a65576040517f08c379a0000000000000000000000000000000000000000000000000000000008152600401611a5c90613113565b60405180910390fd5b80600560008573ffffffffffffffffffffffffffffffffffffffff1673ffffffffffffffffffffffffffffffffffffffff16815260200190815260200160002060008473ffffffffffffffffffffffffffffffffffffffff1673ffffffffffffffffffffffffffffffffffffffff16815260200190815260200160002060006101000a81548160ff0219169083151502179055508173ffffffffffffffffffffffffffffffffffffffff168373ffffffffffffffffffffffffffffffffffffffff167f17307eab39ab6107e8899845ad3d59bd9653f200f220920489ca2b5937696c3183604051611b569190612ff6565b60405180910390a3505050565b611b6e84848461157b565b611b7a84848484611e4f565b611bb9576040517f08c379a0000000000000000000000000000000000000000000000000000000008152600401611bb090613073565b60405180910390fd5b50505050565b60008073ffffffffffffffffffffffffffffffffffffffff16611be183611875565b73ffffffffffffffffffffffffffffffffffffffff1614159050919050565b606060405180602001604052806000815250905090565b6060611c2282611124565b6000611c2c611c00565b90506000815111611c4c5760405180602001604052806000815250611c77565b80611c5684611fe6565b604051602001611c67929190612f3b565b6040516020818303038152906040525b915050919050565b60007f01ffc9a7000000000000000000000000000000000000000000000000000000007bffffffffffffffffffffffffffffffffffffffffffffffffffffffff1916827bffffffffffffffffffffffffffffffffffffffffffffffffffffffff1916149050919050565b611cf58484848461210a565b6001811115611d39576040517f08c379a0000000000000000000000000000000000000000000000000000000008152600401611d3090613253565b60405180910390fd5b6000829050600073ffffffffffffffffffffffffffffffffffffffff168573ffffffffffffffffffffffffffffffffffffffff161415611d8157611d7c81612110565b611dc0565b8373ffffffffffffffffffffffffffffffffffffffff168573ffffffffffffffffffffffffffffffffffffffff1614611dbf57611dbe8582612159565b5b5b600073ffffffffffffffffffffffffffffffffffffffff168473ffffffffffffffffffffffffffffffffffffffff161415611e0357611dfe816122c6565b611e42565b8473ffffffffffffffffffffffffffffffffffffffff168473ffffffffffffffffffffffffffffffffffffffff1614611e4157611e408482612409565b5b5b5050505050565b50505050565b6000611e708473ffffffffffffffffffffffffffffffffffffffff16612488565b15611fd9578373ffffffffffffffffffffffffffffffffffffffff1663150b7a02611e9961116f565b8786866040518563ffffffff1660e01b8152600401611ebb9493929190612f7a565b602060405180830381600087803b158015611ed557600080fd5b505af1925050508015611f0657506040513d601f19601f82011682018060405250810190611f039190612add565b60015b611f89573d8060008114611f36576040519150601f19603f3d011682016040523d82523d6000602084013e611f3b565b606091505b50600081511415611f81576040517f08c379a0000000000000000000000000000000000000000000000000000000008152600401611f7890613073565b60405180910390fd5b805181602001fd5b63150b7a0260e01b7bffffffffffffffffffffffffffffffffffffffffffffffffffffffff1916817bffffffffffffffffffffffffffffffffffffffffffffffffffffffff191614915050611fde565b600190505b949350505050565b606060006001611ff5846124ab565b01905060008167ffffffffffffffff81111561203a577f4e487b7100000000000000000000000000000000000000000000000000000000600052604160045260246000fd5b6040519080825280601f01601f19166020018201604052801561206c5781602001600182028036833780820191505090505b509050600082602001820190505b6001156120ff578080600190039150507f3031323334353637383961626364656600000000000000000000000000000000600a86061a8153600a85816120e9577f4e487b7100000000000000000000000000000000000000000000000000000000600052601260045260246000fd5b04945060008514156120fa576120ff565b61207a565b819350505050919050565b50505050565b6008805490506009600083815260200190815260200160002081905550600881908060018154018082558091505060019003906000526020600020016000909190919091505550565b6000600161216684610a77565b61217091906133e7565b9050600060076000848152602001908152602001600020549050818114612255576000600660008673ffffffffffffffffffffffffffffffffffffffff1673ffffffffffffffffffffffffffffffffffffffff168152602001908152602001600020600084815260200190815260200160002054905080600660008773ffffffffffffffffffffffffffffffffffffffff1673ffffffffffffffffffffffffffffffffffffffff168152602001908152602001600020600084815260200190815260200160002081905550816007600083815260200190815260200160002081905550505b6007600084815260200190815260200160002060009055600660008573ffffffffffffffffffffffffffffffffffffffff1673ffffffffffffffffffffffffffffffffffffffff16815260200190815260200160002060008381526020019081526020016000206000905550505050565b600060016008805490506122da91906133e7565b9050600060096000848152602001908152602001600020549050600060088381548110612330577f4e487b7100000000000000000000000000000000000000000000000000000000600052603260045260246000fd5b906000526020600020015490508060088381548110612378577f4e487b7100000000000000000000000000000000000000000000000000000000600052603260045260246000fd5b9060005260206000200181905550816009600083815260200190815260200160002081905550600960008581526020019081526020016000206000905560088054806123ed577f4e487b7100000000000000000000000000000000000000000000000000000000600052603160045260246000fd5b6001900381819060005260206000200160009055905550505050565b600061241483610a77565b905081600660008573ffffffffffffffffffffffffffffffffffffffff1673ffffffffffffffffffffffffffffffffffffffff168152602001908152602001600020600083815260200190815260200160002081905550806007600084815260200190815260200160002081905550505050565b6000808273ffffffffffffffffffffffffffffffffffffffff163b119050919050565b600080600090507a184f03e93ff9f4daa797ed6e38ed64bf6a1f010000000000000000831061252f577a184f03e93ff9f4daa797ed6e38ed64bf6a1f0100000000000000008381612525577f4e487b7100000000000000000000000000000000000000000000000000000000600052601260045260246000fd5b0492506040810190505b6d04ee2d6d415b85acef81000000008310612592576d04ee2d6d415b85acef81000000008381612588577f4e487b7100000000000000000000000000000000000000000000000000000000600052601260045260246000fd5b0492506020810190505b662386f26fc1000083106125e757662386f26fc1000083816125dd577f4e487b7100000000000000000000000000000000000000000000000000000000600052601260045260246000fd5b0492506010810190505b6305f5e1008310612636576305f5e100838161262c577f4e487b7100000000000000000000000000000000000000000000000000000000600052601260045260246000fd5b0492506008810190505b6127108310612681576127108381612677577f4e487b7100000000000000000000000000000000000000000000000000000000600052601260045260246000fd5b0492506004810190505b606483106126ca57606483816126c0577f4e487b7100000000000000000000000000000000000000000000000000000000600052601260045260246000fd5b0492506002810190505b600a83106126d9576001810190505b80915050919050565b8280546126ee906134d1565b90600052602060002090601f0160209004810192826127105760008555612757565b82601f1061272957805160ff1916838001178555612757565b82800160010185558215612757579182015b8281111561275657825182559160200191906001019061273b565b5b5090506127649190612768565b5090565b5b80821115612781576000816000905550600101612769565b5090565b6000612798612793846132b3565b61328e565b9050828152602081018484840111156127b057600080fd5b6127bb84828561348f565b509392505050565b60006127d66127d1846132e4565b61328e565b9050828152602081018484840111156127ee57600080fd5b6127f984828561348f565b509392505050565b60008135905061281081613aeb565b92915050565b60008135905061282581613b02565b92915050565b60008135905061283a81613b19565b92915050565b60008151905061284f81613b19565b92915050565b600082601f83011261286657600080fd5b8135612876848260208601612785565b91505092915050565b600082601f83011261289057600080fd5b81356128a08482602086016127c3565b91505092915050565b6000813590506128b881613b30565b92915050565b6000602082840312156128d057600080fd5b60006128de84828501612801565b91505092915050565b600080604083850312156128fa57600080fd5b600061290885828601612801565b925050602061291985828601612801565b9150509250929050565b60008060006060848603121561293857600080fd5b600061294686828701612801565b935050602061295786828701612801565b9250506040612968868287016128a9565b9150509250925092565b6000806000806080858703121561298857600080fd5b600061299687828801612801565b94505060206129a787828801612801565b93505060406129b8878288016128a9565b925050606085013567ffffffffffffffff8111156129d557600080fd5b6129e187828801612855565b91505092959194509250565b60008060408385031215612a0057600080fd5b6000612a0e85828601612801565b9250506020612a1f85828601612816565b9150509250929050565b60008060408385031215612a3c57600080fd5b6000612a4a85828601612801565b9250506020612a5b858286016128a9565b9150509250929050565b600080600060608486031215612a7a57600080fd5b6000612a8886828701612801565b9350506020612a99868287016128a9565b9250506040612aaa868287016128a9565b9150509250925092565b600060208284031215612ac657600080fd5b6000612ad48482850161282b565b91505092915050565b600060208284031215612aef57600080fd5b6000612afd84828501612840565b91505092915050565b600060208284031215612b1857600080fd5b600082013567ffffffffffffffff811115612b3257600080fd5b612b3e8482850161287f565b91505092915050565b600060208284031215612b5957600080fd5b6000612b67848285016128a9565b91505092915050565b6000612b7c8383612f1d565b60208301905092915050565b612b918161341b565b82525050565b6000612ba282613325565b612bac8185613353565b9350612bb783613315565b8060005b83811015612be8578151612bcf8882612b70565b9750612bda83613346565b925050600181019050612bbb565b5085935050505092915050565b612bfe8161342d565b82525050565b6000612c0f82613330565b612c198185613364565b9350612c2981856020860161349e565b612c328161360a565b840191505092915050565b6000612c488261333b565b612c528185613375565b9350612c6281856020860161349e565b612c6b8161360a565b840191505092915050565b6000612c818261333b565b612c8b8185613386565b9350612c9b81856020860161349e565b80840191505092915050565b6000612cb4602d83613375565b9150612cbf8261361b565b604082019050919050565b6000612cd7602b83613375565b9150612ce28261366a565b604082019050919050565b6000612cfa603283613375565b9150612d05826136b9565b604082019050919050565b6000612d1d602683613375565b9150612d2882613708565b604082019050919050565b6000612d40602583613375565b9150612d4b82613757565b604082019050919050565b6000612d63601c83613375565b9150612d6e826137a6565b602082019050919050565b6000612d86602483613375565b9150612d91826137cf565b604082019050919050565b6000612da9601983613375565b9150612db48261381e565b602082019050919050565b6000612dcc602983613375565b9150612dd782613847565b604082019050919050565b6000612def602e83613375565b9150612dfa82613896565b604082019050919050565b6000612e12602083613375565b9150612e1d826138e5565b602082019050919050565b6000612e35603183613375565b9150612e408261390e565b604082019050919050565b6000612e58602083613375565b9150612e638261395d565b602082019050919050565b6000612e7b601883613375565b9150612e8682613986565b602082019050919050565b6000612e9e602183613375565b9150612ea9826139af565b604082019050919050565b6000612ec1603d83613375565b9150612ecc826139fe565b604082019050919050565b6000612ee4602c83613375565b9150612eef82613a4d565b604082019050919050565b6000612f07603583613375565b9150612f1282613a9c565b604082019050919050565b612f2681613485565b82525050565b612f3581613485565b82525050565b6000612f478285612c76565b9150612f538284612c76565b91508190509392505050565b6000602082019050612f746000830184612b88565b92915050565b6000608082019050612f8f6000830187612b88565b612f9c6020830186612b88565b612fa96040830185612f2c565b8181036060830152612fbb8184612c04565b905095945050505050565b60006040820190508181036000830152612fe08185612b97565b9050612fef6020830184612f2c565b9392505050565b600060208201905061300b6000830184612bf5565b92915050565b6000602082019050818103600083015261302b8184612c3d565b905092915050565b6000602082019050818103600083015261304c81612ca7565b9050919050565b6000602082019050818103600083015261306c81612cca565b9050919050565b6000602082019050818103600083015261308c81612ced565b9050919050565b600060208201905081810360008301526130ac81612d10565b9050919050565b600060208201905081810360008301526130cc81612d33565b9050919050565b600060208201905081810360008301526130ec81612d56565b9050919050565b6000602082019050818103600083015261310c81612d79565b9050919050565b6000602082019050818103600083015261312c81612d9c565b9050919050565b6000602082019050818103600083015261314c81612dbf565b9050919050565b6000602082019050818103600083015261316c81612de2565b9050919050565b6000602082019050818103600083015261318c81612e05565b9050919050565b600060208201905081810360008301526131ac81612e28565b9050919050565b600060208201905081810360008301526131cc81612e4b565b9050919050565b600060208201905081810360008301526131ec81612e6e565b9050919050565b6000602082019050818103600083015261320c81612e91565b9050919050565b6000602082019050818103600083015261322c81612eb4565b9050919050565b6000602082019050818103600083015261324c81612ed7565b9050919050565b6000602082019050818103600083015261326c81612efa565b9050919050565b60006020820190506132886000830184612f2c565b92915050565b60006132986132a9565b90506132a48282613503565b919050565b6000604051905090565b600067ffffffffffffffff8211156132ce576132cd6135db565b5b6132d78261360a565b9050602081019050919050565b600067ffffffffffffffff8211156132ff576132fe6135db565b5b6133088261360a565b9050602081019050919050565b6000819050602082019050919050565b600081519050919050565b600081519050919050565b600081519050919050565b6000602082019050919050565b600082825260208201905092915050565b600082825260208201905092915050565b600082825260208201905092915050565b600081905092915050565b600061339c82613485565b91506133a783613485565b9250827fffffffffffffffffffffffffffffffffffffffffffffffffffffffffffffffff038211156133dc576133db61357d565b5b828201905092915050565b60006133f282613485565b91506133fd83613485565b9250828210156134105761340f61357d565b5b828203905092915050565b600061342682613465565b9050919050565b60008115159050919050565b60007fffffffff0000000000000000000000000000000000000000000000000000000082169050919050565b600073ffffffffffffffffffffffffffffffffffffffff82169050919050565b6000819050919050565b82818337600083830152505050565b60005b838110156134bc5780820151818401526020810190506134a1565b838111156134cb576000848401525b50505050565b600060028204905060018216806134e957607f821691505b602082108114156134fd576134fc6135ac565b5b50919050565b61350c8261360a565b810181811067ffffffffffffffff8211171561352b5761352a6135db565b5b80604052505050565b600061353f82613485565b91507fffffffffffffffffffffffffffffffffffffffffffffffffffffffffffffffff8214156135725761357161357d565b5b600182019050919050565b7f4e487b7100000000000000000000000000000000000000000000000000000000600052601160045260246000fd5b7f4e487b7100000000000000000000000000000000000000000000000000000000600052602260045260246000fd5b7f4e487b7100000000000000000000000000000000000000000000000000000000600052604160045260246000fd5b6000601f19601f8301169050919050565b7f4552433732313a2063616c6c6572206973206e6f7420746f6b656e206f776e6560008201527f72206f7220617070726f76656400000000000000000000000000000000000000602082015250565b7f455243373231456e756d657261626c653a206f776e657220696e646578206f7560008201527f74206f6620626f756e6473000000000000000000000000000000000000000000602082015250565b7f4552433732313a207472616e7366657220746f206e6f6e20455243373231526560008201527f63656976657220696d706c656d656e7465720000000000000000000000000000602082015250565b7f4f776e61626c653a206e6577206f776e657220697320746865207a65726f206160008201527f6464726573730000000000000000000000000000000000000000000000000000602082015250565b7f4552433732313a207472616e736665722066726f6d20696e636f72726563742060008201527f6f776e6572000000000000000000000000000000000000000000000000000000602082015250565b7f4552433732313a20746f6b656e20616c7265616479206d696e74656400000000600082015250565b7f4552433732313a207472616e7366657220746f20746865207a65726f2061646460008201527f7265737300000000000000000000000000000000000000000000000000000000602082015250565b7f4552433732313a20617070726f766520746f2063616c6c657200000000000000600082015250565b7f4552433732313a2061646472657373207a65726f206973206e6f74206120766160008201527f6c6964206f776e65720000000000000000000000000000000000000000000000602082015250565b7f45524337323155524953746f726167653a2055524920736574206f66206e6f6e60008201527f6578697374656e7420746f6b656e000000000000000000000000000000000000602082015250565b7f4552433732313a206d696e7420746f20746865207a65726f2061646472657373600082015250565b7f45524337323155524953746f726167653a2055524920717565727920666f722060008201527f6e6f6e6578697374656e7420746f6b656e000000000000000000000000000000602082015250565b7f4f776e61626c653a2063616c6c6572206973206e6f7420746865206f776e6572600082015250565b7f4552433732313a20696e76616c696420746f6b656e2049440000000000000000600082015250565b7f4552433732313a20617070726f76616c20746f2063757272656e74206f776e6560008201527f7200000000000000000000000000000000000000000000000000000000000000602082015250565b7f4552433732313a20617070726f76652063616c6c6572206973206e6f7420746f60008201527f6b656e206f776e6572206f7220617070726f76656420666f7220616c6c000000602082015250565b7f455243373231456e756d657261626c653a20676c6f62616c20696e646578206f60008201527f7574206f6620626f756e64730000000000000000000000000000000000000000602082015250565b7f455243373231456e756d657261626c653a20636f6e736563757469766520747260008201527f616e7366657273206e6f7420737570706f727465640000000000000000000000602082015250565b613af48161341b565b8114613aff57600080fd5b50565b613b0b8161342d565b8114613b1657600080fd5b50565b613b2281613439565b8114613b2d57600080fd5b50565b613b3981613485565b8114613b4457600080fd5b5056fea2646970667358221220ef759a3b616841e9b63bdad1c399fa7b9f630ec886054bfbb0290b939d4dd2e764736f6c63430008040033",
  "linkReferences": {},
  "deployedLinkReferences": {}
}