{
  "_format": "hh-sol-artifact-1",
  "contractName": "LendBorrow",
  "sourceName": "contracts/LendBorrow/LendBorrow.sol",
  "abi": [
    {
      "inputs": [
        {
          "internalType": "address",
          "name": "_usdc",
          "type": "address"
        }
      ],
      "stateMutability": "nonpayable",
      "type": "constructor"
    },
    {
      "anonymous": false,
      "inputs": [
        {
          "indexed": true,
          "internalType": "address",
          "name": "previousOwner",
          "type": "address"
        },
        {
          "indexed": true,
          "internalType": "address",
          "name": "newOwner",
          "type": "address"
        }
      ],
      "name": "OwnershipTransferred",
      "type": "event"
    },
    {
      "inputs": [
        {
          "internalType": "address",
          "name": "_collection",
          "type": "address"
        },
        {
          "internalType": "uint256",
          "name": "_tokenId",
          "type": "uint256"
        },
        {
          "internalType": "uint256",
          "name": "_price",
          "type": "uint256"
        }
      ],
      "name": "acceptAsk",
      "outputs": [],
      "stateMutability": "payable",
      "type": "function"
    },
    {
      "inputs": [
        {
          "internalType": "address",
          "name": "_collection",
          "type": "address"
        },
        {
          "internalType": "address",
          "name": "_creator",
          "type": "address"
        }
      ],
      "name": "addCollection",
      "outputs": [],
      "stateMutability": "nonpayable",
      "type": "function"
    },
    {
      "inputs": [
        {
          "internalType": "address",
          "name": "_collection",
          "type": "address"
        },
        {
          "internalType": "uint256",
          "name": "_tokenId",
          "type": "uint256"
        }
      ],
      "name": "cancelAskOrder",
      "outputs": [],
      "stateMutability": "nonpayable",
      "type": "function"
    },
    {
      "inputs": [
        {
          "internalType": "address",
          "name": "_collection",
          "type": "address"
        },
        {
          "internalType": "uint256",
          "name": "_tokenId",
          "type": "uint256"
        },
        {
          "internalType": "uint256",
          "name": "_askPrice",
          "type": "uint256"
        },
        {
          "internalType": "uint256",
          "name": "_repayInterestAmount",
          "type": "uint256"
        },
        {
          "internalType": "uint256",
          "name": "_timeInDays",
          "type": "uint256"
        }
      ],
      "name": "createLoanAskOrder",
      "outputs": [],
      "stateMutability": "nonpayable",
      "type": "function"
    },
    {
      "inputs": [
        {
          "internalType": "address",
          "name": "_collection",
          "type": "address"
        },
        {
          "internalType": "uint256",
          "name": "_tokenId",
          "type": "uint256"
        },
        {
          "internalType": "uint256",
          "name": "_newPrice",
          "type": "uint256"
        }
      ],
      "name": "modifyAskOrder",
      "outputs": [],
      "stateMutability": "nonpayable",
      "type": "function"
    },
    {
      "inputs": [],
      "name": "owner",
      "outputs": [
        {
          "internalType": "address",
          "name": "",
          "type": "address"
        }
      ],
      "stateMutability": "view",
      "type": "function"
    },
    {
      "inputs": [],
      "name": "renounceOwnership",
      "outputs": [],
      "stateMutability": "nonpayable",
      "type": "function"
    },
    {
      "inputs": [
        {
          "internalType": "address",
          "name": "_collection",
          "type": "address"
        },
        {
          "internalType": "uint256",
          "name": "_tokenId",
          "type": "uint256"
        }
      ],
      "name": "repayLoan",
      "outputs": [],
      "stateMutability": "payable",
      "type": "function"
    },
    {
      "inputs": [
        {
          "internalType": "address",
          "name": "newOwner",
          "type": "address"
        }
      ],
      "name": "transferOwnership",
      "outputs": [],
      "stateMutability": "nonpayable",
      "type": "function"
    },
    {
      "inputs": [
        {
          "internalType": "address",
          "name": "collection",
          "type": "address"
        },
        {
          "internalType": "uint256",
          "name": "cursor",
          "type": "uint256"
        },
        {
          "internalType": "uint256",
          "name": "size",
          "type": "uint256"
        }
      ],
      "name": "viewAsksByCollection",
      "outputs": [
        {
          "internalType": "uint256[]",
          "name": "tokenIds",
          "type": "uint256[]"
        },
        {
          "components": [
            {
              "internalType": "address",
              "name": "seller",
              "type": "address"
            },
            {
              "internalType": "uint256",
              "name": "price",
              "type": "uint256"
            },
            {
              "internalType": "uint256",
              "name": "repayInterestAmount",
              "type": "uint256"
            },
            {
              "internalType": "uint256",
              "name": "timeInDays",
              "type": "uint256"
            },
            {
              "internalType": "uint256",
              "name": "tokenId",
              "type": "uint256"
            }
          ],
          "internalType": "struct LendBorrow.CollateralAsk[]",
          "name": "askInfo",
          "type": "tuple[]"
        },
        {
          "internalType": "uint256",
          "name": "",
          "type": "uint256"
        }
      ],
      "stateMutability": "view",
      "type": "function"
    },
    {
      "inputs": [
        {
          "internalType": "address",
          "name": "collection",
          "type": "address"
        },
        {
          "internalType": "address",
          "name": "seller",
          "type": "address"
        },
        {
          "internalType": "uint256",
          "name": "cursor",
          "type": "uint256"
        },
        {
          "internalType": "uint256",
          "name": "size",
          "type": "uint256"
        }
      ],
      "name": "viewAsksByCollectionAndSeller",
      "outputs": [
        {
          "internalType": "uint256[]",
          "name": "tokenIds",
          "type": "uint256[]"
        },
        {
          "components": [
            {
              "internalType": "address",
              "name": "seller",
              "type": "address"
            },
            {
              "internalType": "uint256",
              "name": "price",
              "type": "uint256"
            },
            {
              "internalType": "uint256",
              "name": "repayInterestAmount",
              "type": "uint256"
            },
            {
              "internalType": "uint256",
              "name": "timeInDays",
              "type": "uint256"
            },
            {
              "internalType": "uint256",
              "name": "tokenId",
              "type": "uint256"
            }
          ],
          "internalType": "struct LendBorrow.CollateralAsk[]",
          "name": "askInfo",
          "type": "tuple[]"
        },
        {
          "internalType": "uint256",
          "name": "",
          "type": "uint256"
        }
      ],
      "stateMutability": "view",
      "type": "function"
    },
    {
      "inputs": [
        {
          "internalType": "address",
          "name": "collection",
          "type": "address"
        },
        {
          "internalType": "uint256[]",
          "name": "tokenIds",
          "type": "uint256[]"
        }
      ],
      "name": "viewAsksByCollectionAndTokenIds",
      "outputs": [
        {
          "internalType": "bool[]",
          "name": "statuses",
          "type": "bool[]"
        },
        {
          "components": [
            {
              "internalType": "address",
              "name": "seller",
              "type": "address"
            },
            {
              "internalType": "uint256",
              "name": "price",
              "type": "uint256"
            },
            {
              "internalType": "uint256",
              "name": "repayInterestAmount",
              "type": "uint256"
            },
            {
              "internalType": "uint256",
              "name": "timeInDays",
              "type": "uint256"
            },
            {
              "internalType": "uint256",
              "name": "tokenId",
              "type": "uint256"
            }
          ],
          "internalType": "struct LendBorrow.CollateralAsk[]",
          "name": "askInfo",
          "type": "tuple[]"
        }
      ],
      "stateMutability": "view",
      "type": "function"
    },
    {
      "inputs": [
        {
          "internalType": "address",
          "name": "collection",
          "type": "address"
        },
        {
          "internalType": "uint256[]",
          "name": "tokenIds",
          "type": "uint256[]"
        }
      ],
      "name": "viewAsksByCollectionAndTokenIdsOfBorrower",
      "outputs": [
        {
          "internalType": "bool[]",
          "name": "statuses",
          "type": "bool[]"
        },
        {
          "components": [
            {
              "internalType": "address",
              "name": "lender",
              "type": "address"
            },
            {
              "internalType": "address",
              "name": "borrower",
              "type": "address"
            },
            {
              "internalType": "uint256",
              "name": "endTime",
              "type": "uint256"
            },
            {
              "internalType": "uint256",
              "name": "repayInterestAmount",
              "type": "uint256"
            },
            {
              "internalType": "uint256",
              "name": "collateralPrice",
              "type": "uint256"
            },
            {
              "internalType": "uint256",
              "name": "tokenId",
              "type": "uint256"
            },
            {
              "internalType": "bool",
              "name": "isActive",
              "type": "bool"
            }
          ],
          "internalType": "struct LendBorrow.Loan[]",
          "name": "askInfo",
          "type": "tuple[]"
        }
      ],
      "stateMutability": "view",
      "type": "function"
    },
    {
      "inputs": [
        {
          "internalType": "address",
          "name": "collection",
          "type": "address"
        },
        {
          "internalType": "uint256",
          "name": "cursor",
          "type": "uint256"
        },
        {
          "internalType": "uint256",
          "name": "size",
          "type": "uint256"
        }
      ],
      "name": "viewAsksByCollectionOfBorrower",
      "outputs": [
        {
          "internalType": "uint256[]",
          "name": "tokenIds",
          "type": "uint256[]"
        },
        {
          "components": [
            {
              "internalType": "address",
              "name": "lender",
              "type": "address"
            },
            {
              "internalType": "address",
              "name": "borrower",
              "type": "address"
            },
            {
              "internalType": "uint256",
              "name": "endTime",
              "type": "uint256"
            },
            {
              "internalType": "uint256",
              "name": "repayInterestAmount",
              "type": "uint256"
            },
            {
              "internalType": "uint256",
              "name": "collateralPrice",
              "type": "uint256"
            },
            {
              "internalType": "uint256",
              "name": "tokenId",
              "type": "uint256"
            },
            {
              "internalType": "bool",
              "name": "isActive",
              "type": "bool"
            }
          ],
          "internalType": "struct LendBorrow.Loan[]",
          "name": "askInfo",
          "type": "tuple[]"
        },
        {
          "internalType": "uint256",
          "name": "",
          "type": "uint256"
        }
      ],
      "stateMutability": "view",
      "type": "function"
    }
  ],
  "bytecode": "0x60806040523480156200001157600080fd5b506040516200459c3803806200459c83398181016040528101906200003791906200018c565b60016000819055506200005f62000053620000a760201b60201c565b620000af60201b60201c565b80600260006101000a81548173ffffffffffffffffffffffffffffffffffffffff021916908373ffffffffffffffffffffffffffffffffffffffff1602179055505062000206565b600033905090565b6000600160009054906101000a900473ffffffffffffffffffffffffffffffffffffffff16905081600160006101000a81548173ffffffffffffffffffffffffffffffffffffffff021916908373ffffffffffffffffffffffffffffffffffffffff1602179055508173ffffffffffffffffffffffffffffffffffffffff168173ffffffffffffffffffffffffffffffffffffffff167f8be0079c531659141344cd1fd0a4f28419497f9722a3daafe3b4186f6b6457e060405160405180910390a35050565b6000815190506200018681620001ec565b92915050565b6000602082840312156200019f57600080fd5b6000620001af8482850162000175565b91505092915050565b6000620001c582620001cc565b9050919050565b600073ffffffffffffffffffffffffffffffffffffffff82169050919050565b620001f781620001b8565b81146200020357600080fd5b50565b61438680620002166000396000f3fe6080604052600436106100dd5760003560e01c806393a595f51161007f578063d286ef7411610059578063d286ef74146102b5578063e0a15739146102f4578063eac711da1461031d578063f2fde38b14610339576100dd565b806393a595f51461024757806395f42098146102635780639b2adcdc1461028c576100dd565b8063715018a6116100bb578063715018a61461019d57806384a40864146101b45780638da5cb5b146101f3578063909b8a371461021e576100dd565b806302fbde04146100e257806322f67b6d146101205780633c0636871461015e575b600080fd5b3480156100ee57600080fd5b50610109600480360381019061010491906135df565b610362565b604051610117929190613c8b565b60405180910390f35b34801561012c57600080fd5b50610147600480360381019061014291906135df565b610784565b604051610155929190613c54565b60405180910390f35b34801561016a57600080fd5b5061018560048036038101906101809190613673565b610b35565b60405161019493929190613d07565b60405180910390f35b3480156101a957600080fd5b506101b2610f85565b005b3480156101c057600080fd5b506101db60048036038101906101d69190613673565b610f99565b6040516101ea93929190613cc2565b60405180910390f35b3480156101ff57600080fd5b50610208611378565b6040516102159190613bd9565b60405180910390f35b34801561022a57600080fd5b5061024560048036038101906102409190613540565b6113a2565b005b610261600480360381019061025c9190613637565b61155a565b005b34801561026f57600080fd5b5061028a60048036038101906102859190613637565b6119fe565b005b34801561029857600080fd5b506102b360048036038101906102ae9190613673565b611cc9565b005b3480156102c157600080fd5b506102dc60048036038101906102d7919061357c565b611e03565b6040516102eb93929190613cc2565b60405180910390f35b34801561030057600080fd5b5061031b600480360381019061031691906136c2565b61229a565b005b61033760048036038101906103329190613673565b6126ab565b005b34801561034557600080fd5b50610360600480360381019061035b9190613517565b6127bb565b005b60608060008484905090508067ffffffffffffffff8111156103ad577f4e487b7100000000000000000000000000000000000000000000000000000000600052604160045260246000fd5b6040519080825280602002602001820160405280156103db5781602001602082028036833780820191505090505b5092508067ffffffffffffffff81111561041e577f4e487b7100000000000000000000000000000000000000000000000000000000600052604160045260246000fd5b60405190808252806020026020018201604052801561045757816020015b6104446133de565b81526020019060019003908161043c5790505b50915060005b8181101561077a576104f58686838181106104a1577f4e487b7100000000000000000000000000000000000000000000000000000000600052603260045260246000fd5b90506020020135600a60008a73ffffffffffffffffffffffffffffffffffffffff1673ffffffffffffffffffffffffffffffffffffffff16815260200190815260200160002061283f90919063ffffffff16565b1561054c576001848281518110610535577f4e487b7100000000000000000000000000000000000000000000000000000000600052603260045260246000fd5b60200260200101901515908115158152505061059a565b6000848281518110610587577f4e487b7100000000000000000000000000000000000000000000000000000000600052603260045260246000fd5b6020026020010190151590811515815250505b600960008873ffffffffffffffffffffffffffffffffffffffff1673ffffffffffffffffffffffffffffffffffffffff1681526020019081526020016000206000878784818110610614577f4e487b7100000000000000000000000000000000000000000000000000000000600052603260045260246000fd5b9050602002013581526020019081526020016000206040518060e00160405290816000820160009054906101000a900473ffffffffffffffffffffffffffffffffffffffff1673ffffffffffffffffffffffffffffffffffffffff1673ffffffffffffffffffffffffffffffffffffffff1681526020016001820160009054906101000a900473ffffffffffffffffffffffffffffffffffffffff1673ffffffffffffffffffffffffffffffffffffffff1673ffffffffffffffffffffffffffffffffffffffff168152602001600282015481526020016003820154815260200160048201548152602001600582015481526020016006820160009054906101000a900460ff16151515158152505083828151811061075c577f4e487b7100000000000000000000000000000000000000000000000000000000600052603260045260246000fd5b60200260200101819052508080610772906140ad565b91505061045d565b5050935093915050565b60608060008484905090508067ffffffffffffffff8111156107cf577f4e487b7100000000000000000000000000000000000000000000000000000000600052604160045260246000fd5b6040519080825280602002602001820160405280156107fd5781602001602082028036833780820191505090505b5092508067ffffffffffffffff811115610840577f4e487b7100000000000000000000000000000000000000000000000000000000600052604160045260246000fd5b60405190808252806020026020018201604052801561087957816020015b610866613449565b81526020019060019003908161085e5790505b50915060005b81811015610b2b576109178686838181106108c3577f4e487b7100000000000000000000000000000000000000000000000000000000600052603260045260246000fd5b90506020020135600660008a73ffffffffffffffffffffffffffffffffffffffff1673ffffffffffffffffffffffffffffffffffffffff16815260200190815260200160002061283f90919063ffffffff16565b1561096e576001848281518110610957577f4e487b7100000000000000000000000000000000000000000000000000000000600052603260045260246000fd5b6020026020010190151590811515815250506109bc565b60008482815181106109a9577f4e487b7100000000000000000000000000000000000000000000000000000000600052603260045260246000fd5b6020026020010190151590811515815250505b600560008873ffffffffffffffffffffffffffffffffffffffff1673ffffffffffffffffffffffffffffffffffffffff1681526020019081526020016000206000878784818110610a36577f4e487b7100000000000000000000000000000000000000000000000000000000600052603260045260246000fd5b9050602002013581526020019081526020016000206040518060a00160405290816000820160009054906101000a900473ffffffffffffffffffffffffffffffffffffffff1673ffffffffffffffffffffffffffffffffffffffff1673ffffffffffffffffffffffffffffffffffffffff168152602001600182015481526020016002820154815260200160038201548152602001600482015481525050838281518110610b0d577f4e487b7100000000000000000000000000000000000000000000000000000000600052603260045260246000fd5b60200260200101819052508080610b23906140ad565b91505061087f565b5050935093915050565b60608060008084905085610b86600a60008a73ffffffffffffffffffffffffffffffffffffffff1673ffffffffffffffffffffffffffffffffffffffff168152602001908152602001600020612859565b610b909190614031565b811115610bec5785610bdf600a60008a73ffffffffffffffffffffffffffffffffffffffff1673ffffffffffffffffffffffffffffffffffffffff168152602001908152602001600020612859565b610be99190614031565b90505b8067ffffffffffffffff811115610c2c577f4e487b7100000000000000000000000000000000000000000000000000000000600052604160045260246000fd5b604051908082528060200260200182016040528015610c5a5781602001602082028036833780820191505090505b5093508067ffffffffffffffff811115610c9d577f4e487b7100000000000000000000000000000000000000000000000000000000600052604160045260246000fd5b604051908082528060200260200182016040528015610cd657816020015b610cc36133de565b815260200190600190039081610cbb5790505b50925060005b81811015610f6657610d408188610cf39190613f81565b600a60008b73ffffffffffffffffffffffffffffffffffffffff1673ffffffffffffffffffffffffffffffffffffffff16815260200190815260200160002061286e90919063ffffffff16565b858281518110610d79577f4e487b7100000000000000000000000000000000000000000000000000000000600052603260045260246000fd5b602002602001018181525050600960008973ffffffffffffffffffffffffffffffffffffffff1673ffffffffffffffffffffffffffffffffffffffff1681526020019081526020016000206000868381518110610dff577f4e487b7100000000000000000000000000000000000000000000000000000000600052603260045260246000fd5b602002602001015181526020019081526020016000206040518060e00160405290816000820160009054906101000a900473ffffffffffffffffffffffffffffffffffffffff1673ffffffffffffffffffffffffffffffffffffffff1673ffffffffffffffffffffffffffffffffffffffff1681526020016001820160009054906101000a900473ffffffffffffffffffffffffffffffffffffffff1673ffffffffffffffffffffffffffffffffffffffff1673ffffffffffffffffffffffffffffffffffffffff168152602001600282015481526020016003820154815260200160048201548152602001600582015481526020016006820160009054906101000a900460ff161515151581525050848281518110610f48577f4e487b7100000000000000000000000000000000000000000000000000000000600052603260045260246000fd5b60200260200101819052508080610f5e906140ad565b915050610cdc565b5083838288610f759190613f81565b9350935093505093509350939050565b610f8d612888565b610f976000612906565b565b60608060008084905085610fea600660008a73ffffffffffffffffffffffffffffffffffffffff1673ffffffffffffffffffffffffffffffffffffffff168152602001908152602001600020612859565b610ff49190614031565b8111156110505785611043600660008a73ffffffffffffffffffffffffffffffffffffffff1673ffffffffffffffffffffffffffffffffffffffff168152602001908152602001600020612859565b61104d9190614031565b90505b8067ffffffffffffffff811115611090577f4e487b7100000000000000000000000000000000000000000000000000000000600052604160045260246000fd5b6040519080825280602002602001820160405280156110be5781602001602082028036833780820191505090505b5093508067ffffffffffffffff811115611101577f4e487b7100000000000000000000000000000000000000000000000000000000600052604160045260246000fd5b60405190808252806020026020018201604052801561113a57816020015b611127613449565b81526020019060019003908161111f5790505b50925060005b81811015611359576111a481886111579190613f81565b600660008b73ffffffffffffffffffffffffffffffffffffffff1673ffffffffffffffffffffffffffffffffffffffff16815260200190815260200160002061286e90919063ffffffff16565b8582815181106111dd577f4e487b7100000000000000000000000000000000000000000000000000000000600052603260045260246000fd5b602002602001018181525050600560008973ffffffffffffffffffffffffffffffffffffffff1673ffffffffffffffffffffffffffffffffffffffff1681526020019081526020016000206000868381518110611263577f4e487b7100000000000000000000000000000000000000000000000000000000600052603260045260246000fd5b602002602001015181526020019081526020016000206040518060a00160405290816000820160009054906101000a900473ffffffffffffffffffffffffffffffffffffffff1673ffffffffffffffffffffffffffffffffffffffff1673ffffffffffffffffffffffffffffffffffffffff16815260200160018201548152602001600282015481526020016003820154815260200160048201548152505084828151811061133b577f4e487b7100000000000000000000000000000000000000000000000000000000600052603260045260246000fd5b60200260200101819052508080611351906140ad565b915050611140565b50838382886113689190613f81565b9350935093505093509350939050565b6000600160009054906101000a900473ffffffffffffffffffffffffffffffffffffffff16905090565b6113aa612888565b6113be8260036129cc90919063ffffffff16565b156113fe576040517f08c379a00000000000000000000000000000000000000000000000000000000081526004016113f590613d8c565b60405180910390fd5b6114128260036129fc90919063ffffffff16565b50604051806040016040528060016002811115611458577f4e487b7100000000000000000000000000000000000000000000000000000000600052602160045260246000fd5b81526020018273ffffffffffffffffffffffffffffffffffffffff16815250600760008473ffffffffffffffffffffffffffffffffffffffff1673ffffffffffffffffffffffffffffffffffffffff16815260200190815260200160002060008201518160000160006101000a81548160ff02191690836002811115611507577f4e487b7100000000000000000000000000000000000000000000000000000000600052602160045260246000fd5b021790555060208201518160000160016101000a81548173ffffffffffffffffffffffffffffffffffffffff021916908373ffffffffffffffffffffffffffffffffffffffff1602179055509050505050565b6000600960008473ffffffffffffffffffffffffffffffffffffffff1673ffffffffffffffffffffffffffffffffffffffff168152602001908152602001600020600083815260200190815260200160002090508060060160009054906101000a900460ff166115ff576040517f08c379a00000000000000000000000000000000000000000000000000000000081526004016115f690613e2c565b60405180910390fd5b8273ffffffffffffffffffffffffffffffffffffffff166342842e0e338360000160009054906101000a900473ffffffffffffffffffffffffffffffffffffffff16856040518463ffffffff1660e01b815260040161166093929190613bf4565b600060405180830381600087803b15801561167a57600080fd5b505af115801561168e573d6000803e3d6000fd5b505050506000816003015482600401546116a89190614031565b9050600260009054906101000a900473ffffffffffffffffffffffffffffffffffffffff1673ffffffffffffffffffffffffffffffffffffffff1663a9059cbb8360000160009054906101000a900473ffffffffffffffffffffffffffffffffffffffff1684600301546040518363ffffffff1660e01b815260040161172f929190613c2b565b602060405180830381600087803b15801561174957600080fd5b505af115801561175d573d6000803e3d6000fd5b505050506040513d601f19601f820116820180604052508101906117819190613739565b61178a57600080fd5b600260009054906101000a900473ffffffffffffffffffffffffffffffffffffffff1673ffffffffffffffffffffffffffffffffffffffff1663a9059cbb33836040518363ffffffff1660e01b81526004016117e7929190613c2b565b602060405180830381600087803b15801561180157600080fd5b505af1158015611815573d6000803e3d6000fd5b505050506040513d601f19601f820116820180604052508101906118399190613739565b61184257600080fd5b6118d083600b60003373ffffffffffffffffffffffffffffffffffffffff1673ffffffffffffffffffffffffffffffffffffffff16815260200190815260200160002060008773ffffffffffffffffffffffffffffffffffffffff1673ffffffffffffffffffffffffffffffffffffffff168152602001908152602001600020612a2c90919063ffffffff16565b50600960008573ffffffffffffffffffffffffffffffffffffffff1673ffffffffffffffffffffffffffffffffffffffff1681526020019081526020016000206000848152602001908152602001600020600080820160006101000a81549073ffffffffffffffffffffffffffffffffffffffff02191690556001820160006101000a81549073ffffffffffffffffffffffffffffffffffffffff021916905560028201600090556003820160009055600482016000905560058201600090556006820160006101000a81549060ff021916905550506119f783600a60008773ffffffffffffffffffffffffffffffffffffffff1673ffffffffffffffffffffffffffffffffffffffff168152602001908152602001600020612a2c90919063ffffffff16565b5050505050565b611a06612a46565b611a9481600860003373ffffffffffffffffffffffffffffffffffffffff1673ffffffffffffffffffffffffffffffffffffffff16815260200190815260200160002060008573ffffffffffffffffffffffffffffffffffffffff1673ffffffffffffffffffffffffffffffffffffffff16815260200190815260200160002061283f90919063ffffffff16565b611ad3576040517f08c379a0000000000000000000000000000000000000000000000000000000008152600401611aca90613dec565b60405180910390fd5b611b6181600860003373ffffffffffffffffffffffffffffffffffffffff1673ffffffffffffffffffffffffffffffffffffffff16815260200190815260200160002060008573ffffffffffffffffffffffffffffffffffffffff1673ffffffffffffffffffffffffffffffffffffffff168152602001908152602001600020612a2c90919063ffffffff16565b50600560008373ffffffffffffffffffffffffffffffffffffffff1673ffffffffffffffffffffffffffffffffffffffff1681526020019081526020016000206000828152602001908152602001600020600080820160006101000a81549073ffffffffffffffffffffffffffffffffffffffff021916905560018201600090556002820160009055600382016000905560048201600090555050611c4d81600660008573ffffffffffffffffffffffffffffffffffffffff1673ffffffffffffffffffffffffffffffffffffffff168152602001908152602001600020612a2c90919063ffffffff16565b508173ffffffffffffffffffffffffffffffffffffffff166323b872dd3033846040518463ffffffff1660e01b8152600401611c8b93929190613bf4565b600060405180830381600087803b158015611ca557600080fd5b505af1158015611cb9573d6000803e3d6000fd5b50505050611cc5612a96565b5050565b611cd1612a46565b611d5f82600860003373ffffffffffffffffffffffffffffffffffffffff1673ffffffffffffffffffffffffffffffffffffffff16815260200190815260200160002060008673ffffffffffffffffffffffffffffffffffffffff1673ffffffffffffffffffffffffffffffffffffffff16815260200190815260200160002061283f90919063ffffffff16565b611d9e576040517f08c379a0000000000000000000000000000000000000000000000000000000008152600401611d9590613dec565b60405180910390fd5b80600560008573ffffffffffffffffffffffffffffffffffffffff1673ffffffffffffffffffffffffffffffffffffffff168152602001908152602001600020600084815260200190815260200160002060010181905550611dfe612a96565b505050565b60608060008084905085611e91600860008a73ffffffffffffffffffffffffffffffffffffffff1673ffffffffffffffffffffffffffffffffffffffff16815260200190815260200160002060008b73ffffffffffffffffffffffffffffffffffffffff1673ffffffffffffffffffffffffffffffffffffffff168152602001908152602001600020612859565b611e9b9190614031565b811115611f345785611f27600860008a73ffffffffffffffffffffffffffffffffffffffff1673ffffffffffffffffffffffffffffffffffffffff16815260200190815260200160002060008b73ffffffffffffffffffffffffffffffffffffffff1673ffffffffffffffffffffffffffffffffffffffff168152602001908152602001600020612859565b611f319190614031565b90505b8067ffffffffffffffff811115611f74577f4e487b7100000000000000000000000000000000000000000000000000000000600052604160045260246000fd5b604051908082528060200260200182016040528015611fa25781602001602082028036833780820191505090505b5093508067ffffffffffffffff811115611fe5577f4e487b7100000000000000000000000000000000000000000000000000000000600052604160045260246000fd5b60405190808252806020026020018201604052801561201e57816020015b61200b613449565b8152602001906001900390816120035790505b50925060005b8181101561227a576120c5818861203b9190613f81565b600860008b73ffffffffffffffffffffffffffffffffffffffff1673ffffffffffffffffffffffffffffffffffffffff16815260200190815260200160002060008c73ffffffffffffffffffffffffffffffffffffffff1673ffffffffffffffffffffffffffffffffffffffff16815260200190815260200160002061286e90919063ffffffff16565b8582815181106120fe577f4e487b7100000000000000000000000000000000000000000000000000000000600052603260045260246000fd5b602002602001018181525050600560008a73ffffffffffffffffffffffffffffffffffffffff1673ffffffffffffffffffffffffffffffffffffffff1681526020019081526020016000206000868381518110612184577f4e487b7100000000000000000000000000000000000000000000000000000000600052603260045260246000fd5b602002602001015181526020019081526020016000206040518060a00160405290816000820160009054906101000a900473ffffffffffffffffffffffffffffffffffffffff1673ffffffffffffffffffffffffffffffffffffffff1673ffffffffffffffffffffffffffffffffffffffff16815260200160018201548152602001600282015481526020016003820154815260200160048201548152505084828151811061225c577f4e487b7100000000000000000000000000000000000000000000000000000000600052603260045260246000fd5b60200260200101819052508080612272906140ad565b915050612024565b50838382886122899190613f81565b935093509350509450945094915050565b6122a2612a46565b6000600960008773ffffffffffffffffffffffffffffffffffffffff1673ffffffffffffffffffffffffffffffffffffffff16815260200190815260200160002060008681526020019081526020016000206040518060e00160405290816000820160009054906101000a900473ffffffffffffffffffffffffffffffffffffffff1673ffffffffffffffffffffffffffffffffffffffff1673ffffffffffffffffffffffffffffffffffffffff1681526020016001820160009054906101000a900473ffffffffffffffffffffffffffffffffffffffff1673ffffffffffffffffffffffffffffffffffffffff1673ffffffffffffffffffffffffffffffffffffffff168152602001600282015481526020016003820154815260200160048201548152602001600582015481526020016006820160009054906101000a900460ff16151515158152505090508060c0015115612435576040517f08c379a000000000000000000000000000000000000000000000000000000000815260040161242c90613e2c565b60405180910390fd5b8573ffffffffffffffffffffffffffffffffffffffff166323b872dd3330886040518463ffffffff1660e01b815260040161247293929190613bf4565b600060405180830381600087803b15801561248c57600080fd5b505af11580156124a0573d6000803e3d6000fd5b5050505061253285600860003373ffffffffffffffffffffffffffffffffffffffff1673ffffffffffffffffffffffffffffffffffffffff16815260200190815260200160002060008973ffffffffffffffffffffffffffffffffffffffff1673ffffffffffffffffffffffffffffffffffffffff168152602001908152602001600020612aa090919063ffffffff16565b506040518060a001604052803373ffffffffffffffffffffffffffffffffffffffff168152602001858152602001848152602001603c80856125749190613fd7565b61257e9190613fd7565b815260200186815250600560008873ffffffffffffffffffffffffffffffffffffffff1673ffffffffffffffffffffffffffffffffffffffff168152602001908152602001600020600087815260200190815260200160002060008201518160000160006101000a81548173ffffffffffffffffffffffffffffffffffffffff021916908373ffffffffffffffffffffffffffffffffffffffff1602179055506020820151816001015560408201518160020155606082015181600301556080820151816004015590505061269a85600660008973ffffffffffffffffffffffffffffffffffffffff1673ffffffffffffffffffffffffffffffffffffffff168152602001908152602001600020612aa090919063ffffffff16565b50506126a4612a96565b5050505050565b6126b3612a46565b600260009054906101000a900473ffffffffffffffffffffffffffffffffffffffff1673ffffffffffffffffffffffffffffffffffffffff166323b872dd3330846040518463ffffffff1660e01b815260040161271293929190613bf4565b602060405180830381600087803b15801561272c57600080fd5b505af1158015612740573d6000803e3d6000fd5b505050506040513d601f19601f820116820180604052508101906127649190613739565b6127a3576040517f08c379a000000000000000000000000000000000000000000000000000000000815260040161279a90613e4c565b60405180910390fd5b6127ae838383612aba565b6127b6612a96565b505050565b6127c3612888565b600073ffffffffffffffffffffffffffffffffffffffff168173ffffffffffffffffffffffffffffffffffffffff161415612833576040517f08c379a000000000000000000000000000000000000000000000000000000000815260040161282a90613d6c565b60405180910390fd5b61283c81612906565b50565b6000612851836000018360001b61315b565b905092915050565b60006128678260000161317e565b9050919050565b600061287d836000018361318f565b60001c905092915050565b6128906131e0565b73ffffffffffffffffffffffffffffffffffffffff166128ae611378565b73ffffffffffffffffffffffffffffffffffffffff1614612904576040517f08c379a00000000000000000000000000000000000000000000000000000000081526004016128fb90613e0c565b60405180910390fd5b565b6000600160009054906101000a900473ffffffffffffffffffffffffffffffffffffffff16905081600160006101000a81548173ffffffffffffffffffffffffffffffffffffffff021916908373ffffffffffffffffffffffffffffffffffffffff1602179055508173ffffffffffffffffffffffffffffffffffffffff168173ffffffffffffffffffffffffffffffffffffffff167f8be0079c531659141344cd1fd0a4f28419497f9722a3daafe3b4186f6b6457e060405160405180910390a35050565b60006129f4836000018373ffffffffffffffffffffffffffffffffffffffff1660001b61315b565b905092915050565b6000612a24836000018373ffffffffffffffffffffffffffffffffffffffff1660001b6131e8565b905092915050565b6000612a3e836000018360001b613258565b905092915050565b60026000541415612a8c576040517f08c379a0000000000000000000000000000000000000000000000000000000008152600401612a8390613e6c565b60405180910390fd5b6002600081905550565b6001600081905550565b6000612ab2836000018360001b6131e8565b905092915050565b612b0b82600660008673ffffffffffffffffffffffffffffffffffffffff1673ffffffffffffffffffffffffffffffffffffffff16815260200190815260200160002061283f90919063ffffffff16565b612b4a576040517f08c379a0000000000000000000000000000000000000000000000000000000008152600401612b4190613dcc565b60405180910390fd5b6000600560008573ffffffffffffffffffffffffffffffffffffffff1673ffffffffffffffffffffffffffffffffffffffff16815260200190815260200160002060008481526020019081526020016000206040518060a00160405290816000820160009054906101000a900473ffffffffffffffffffffffffffffffffffffffff1673ffffffffffffffffffffffffffffffffffffffff1673ffffffffffffffffffffffffffffffffffffffff168152602001600182015481526020016002820154815260200160038201548152602001600482015481525050905080602001518214612c6d576040517f08c379a0000000000000000000000000000000000000000000000000000000008152600401612c6490613dac565b60405180910390fd5b806000015173ffffffffffffffffffffffffffffffffffffffff163373ffffffffffffffffffffffffffffffffffffffff161415612ce0576040517f08c379a0000000000000000000000000000000000000000000000000000000008152600401612cd790613d4c565b60405180910390fd5b612d728360086000846000015173ffffffffffffffffffffffffffffffffffffffff1673ffffffffffffffffffffffffffffffffffffffff16815260200190815260200160002060008773ffffffffffffffffffffffffffffffffffffffff1673ffffffffffffffffffffffffffffffffffffffff168152602001908152602001600020612a2c90919063ffffffff16565b50600560008573ffffffffffffffffffffffffffffffffffffffff1673ffffffffffffffffffffffffffffffffffffffff1681526020019081526020016000206000848152602001908152602001600020600080820160006101000a81549073ffffffffffffffffffffffffffffffffffffffff021916905560018201600090556002820160009055600382016000905560048201600090555050612e5e83600660008773ffffffffffffffffffffffffffffffffffffffff1673ffffffffffffffffffffffffffffffffffffffff168152602001908152602001600020612a2c90919063ffffffff16565b50612eed83600b60003373ffffffffffffffffffffffffffffffffffffffff1673ffffffffffffffffffffffffffffffffffffffff16815260200190815260200160002060008773ffffffffffffffffffffffffffffffffffffffff1673ffffffffffffffffffffffffffffffffffffffff168152602001908152602001600020612aa090919063ffffffff16565b506040518060e00160405280826000015173ffffffffffffffffffffffffffffffffffffffff1681526020013373ffffffffffffffffffffffffffffffffffffffff168152602001826060015142612f459190613f81565b8152602001826040015181526020018260200151815260200184815260200160011515815250600960008673ffffffffffffffffffffffffffffffffffffffff1673ffffffffffffffffffffffffffffffffffffffff168152602001908152602001600020600085815260200190815260200160002060008201518160000160006101000a81548173ffffffffffffffffffffffffffffffffffffffff021916908373ffffffffffffffffffffffffffffffffffffffff16021790555060208201518160010160006101000a81548173ffffffffffffffffffffffffffffffffffffffff021916908373ffffffffffffffffffffffffffffffffffffffff16021790555060408201518160020155606082015181600301556080820151816004015560a0820151816005015560c08201518160060160006101000a81548160ff0219169083151502179055509050506130e583600a60008773ffffffffffffffffffffffffffffffffffffffff1673ffffffffffffffffffffffffffffffffffffffff168152602001908152602001600020612aa090919063ffffffff16565b508373ffffffffffffffffffffffffffffffffffffffff166342842e0e3033866040518463ffffffff1660e01b815260040161312393929190613bf4565b600060405180830381600087803b15801561313d57600080fd5b505af1158015613151573d6000803e3d6000fd5b5050505050505050565b600080836001016000848152602001908152602001600020541415905092915050565b600081600001805490509050919050565b60008260000182815481106131cd577f4e487b7100000000000000000000000000000000000000000000000000000000600052603260045260246000fd5b9060005260206000200154905092915050565b600033905090565b60006131f4838361315b565b61324d578260000182908060018154018082558091505060019003906000526020600020016000909190919091505582600001805490508360010160008481526020019081526020016000208190555060019050613252565b600090505b92915050565b600080836001016000848152602001908152602001600020549050600081146133d257600060018261328a9190614031565b90506000600186600001805490506132a29190614031565b905081811461335d5760008660000182815481106132e9577f4e487b7100000000000000000000000000000000000000000000000000000000600052603260045260246000fd5b9060005260206000200154905080876000018481548110613333577f4e487b7100000000000000000000000000000000000000000000000000000000600052603260045260246000fd5b90600052602060002001819055508387600101600083815260200190815260200160002081905550505b85600001805480613397577f4e487b7100000000000000000000000000000000000000000000000000000000600052603160045260246000fd5b6001900381819060005260206000200160009055905585600101600086815260200190815260200160002060009055600193505050506133d8565b60009150505b92915050565b6040518060e00160405280600073ffffffffffffffffffffffffffffffffffffffff168152602001600073ffffffffffffffffffffffffffffffffffffffff168152602001600081526020016000815260200160008152602001600081526020016000151581525090565b6040518060a00160405280600073ffffffffffffffffffffffffffffffffffffffff168152602001600081526020016000815260200160008152602001600081525090565b60008135905061349d8161430b565b92915050565b60008083601f8401126134b557600080fd5b8235905067ffffffffffffffff8111156134ce57600080fd5b6020830191508360208202830111156134e657600080fd5b9250929050565b6000815190506134fc81614322565b92915050565b60008135905061351181614339565b92915050565b60006020828403121561352957600080fd5b60006135378482850161348e565b91505092915050565b6000806040838503121561355357600080fd5b60006135618582860161348e565b92505060206135728582860161348e565b9150509250929050565b6000806000806080858703121561359257600080fd5b60006135a08782880161348e565b94505060206135b18782880161348e565b93505060406135c287828801613502565b92505060606135d387828801613502565b91505092959194509250565b6000806000604084860312156135f457600080fd5b60006136028682870161348e565b935050602084013567ffffffffffffffff81111561361f57600080fd5b61362b868287016134a3565b92509250509250925092565b6000806040838503121561364a57600080fd5b60006136588582860161348e565b925050602061366985828601613502565b9150509250929050565b60008060006060848603121561368857600080fd5b60006136968682870161348e565b93505060206136a786828701613502565b92505060406136b886828701613502565b9150509250925092565b600080600080600060a086880312156136da57600080fd5b60006136e88882890161348e565b95505060206136f988828901613502565b945050604061370a88828901613502565b935050606061371b88828901613502565b925050608061372c88828901613502565b9150509295509295909350565b60006020828403121561374b57600080fd5b6000613759848285016134ed565b91505092915050565b600061376e8383613958565b60208301905092915050565b60006137868383613ac5565b60a08301905092915050565b600061379e8383613b2d565b60e08301905092915050565b60006137b68383613bbb565b60208301905092915050565b6137cb81614065565b82525050565b6137da81614065565b82525050565b60006137eb82613ecc565b6137f58185613f2c565b935061380083613e8c565b8060005b838110156138315781516138188882613762565b975061382383613ef8565b925050600181019050613804565b5085935050505092915050565b600061384982613ed7565b6138538185613f3d565b935061385e83613e9c565b8060005b8381101561388f578151613876888261377a565b975061388183613f05565b925050600181019050613862565b5085935050505092915050565b60006138a782613ee2565b6138b18185613f4e565b93506138bc83613eac565b8060005b838110156138ed5781516138d48882613792565b97506138df83613f12565b9250506001810190506138c0565b5085935050505092915050565b600061390582613eed565b61390f8185613f5f565b935061391a83613ebc565b8060005b8381101561394b57815161393288826137aa565b975061393d83613f1f565b92505060018101905061391e565b5085935050505092915050565b61396181614077565b82525050565b6000613974601683613f70565b915061397f82614125565b602082019050919050565b6000613997602683613f70565b91506139a28261414e565b604082019050919050565b60006139ba601983613f70565b91506139c58261419d565b602082019050919050565b60006139dd600f83613f70565b91506139e8826141c6565b602082019050919050565b6000613a00602583613f70565b9150613a0b826141ef565b604082019050919050565b6000613a23601383613f70565b9150613a2e8261423e565b602082019050919050565b6000613a46602083613f70565b9150613a5182614267565b602082019050919050565b6000613a69601083613f70565b9150613a7482614290565b602082019050919050565b6000613a8c601483613f70565b9150613a97826142b9565b602082019050919050565b6000613aaf601f83613f70565b9150613aba826142e2565b602082019050919050565b60a082016000820151613adb60008501826137c2565b506020820151613aee6020850182613bbb565b506040820151613b016040850182613bbb565b506060820151613b146060850182613bbb565b506080820151613b276080850182613bbb565b50505050565b60e082016000820151613b4360008501826137c2565b506020820151613b5660208501826137c2565b506040820151613b696040850182613bbb565b506060820151613b7c6060850182613bbb565b506080820151613b8f6080850182613bbb565b5060a0820151613ba260a0850182613bbb565b5060c0820151613bb560c0850182613958565b50505050565b613bc4816140a3565b82525050565b613bd3816140a3565b82525050565b6000602082019050613bee60008301846137d1565b92915050565b6000606082019050613c0960008301866137d1565b613c1660208301856137d1565b613c236040830184613bca565b949350505050565b6000604082019050613c4060008301856137d1565b613c4d6020830184613bca565b9392505050565b60006040820190508181036000830152613c6e81856137e0565b90508181036020830152613c82818461383e565b90509392505050565b60006040820190508181036000830152613ca581856137e0565b90508181036020830152613cb9818461389c565b90509392505050565b60006060820190508181036000830152613cdc81866138fa565b90508181036020830152613cf0818561383e565b9050613cff6040830184613bca565b949350505050565b60006060820190508181036000830152613d2181866138fa565b90508181036020830152613d35818561389c565b9050613d446040830184613bca565b949350505050565b60006020820190508181036000830152613d6581613967565b9050919050565b60006020820190508181036000830152613d858161398a565b9050919050565b60006020820190508181036000830152613da5816139ad565b9050919050565b60006020820190508181036000830152613dc5816139d0565b9050919050565b60006020820190508181036000830152613de5816139f3565b9050919050565b60006020820190508181036000830152613e0581613a16565b9050919050565b60006020820190508181036000830152613e2581613a39565b9050919050565b60006020820190508181036000830152613e4581613a5c565b9050919050565b60006020820190508181036000830152613e6581613a7f565b9050919050565b60006020820190508181036000830152613e8581613aa2565b9050919050565b6000819050602082019050919050565b6000819050602082019050919050565b6000819050602082019050919050565b6000819050602082019050919050565b600081519050919050565b600081519050919050565b600081519050919050565b600081519050919050565b6000602082019050919050565b6000602082019050919050565b6000602082019050919050565b6000602082019050919050565b600082825260208201905092915050565b600082825260208201905092915050565b600082825260208201905092915050565b600082825260208201905092915050565b600082825260208201905092915050565b6000613f8c826140a3565b9150613f97836140a3565b9250827fffffffffffffffffffffffffffffffffffffffffffffffffffffffffffffffff03821115613fcc57613fcb6140f6565b5b828201905092915050565b6000613fe2826140a3565b9150613fed836140a3565b9250817fffffffffffffffffffffffffffffffffffffffffffffffffffffffffffffffff0483118215151615614026576140256140f6565b5b828202905092915050565b600061403c826140a3565b9150614047836140a3565b92508282101561405a576140596140f6565b5b828203905092915050565b600061407082614083565b9050919050565b60008115159050919050565b600073ffffffffffffffffffffffffffffffffffffffff82169050919050565b6000819050919050565b60006140b8826140a3565b91507fffffffffffffffffffffffffffffffffffffffffffffffffffffffffffffffff8214156140eb576140ea6140f6565b5b600182019050919050565b7f4e487b7100000000000000000000000000000000000000000000000000000000600052601160045260246000fd5b7f42757965722063616e6e6f742062652073656c6c657200000000000000000000600082015250565b7f4f776e61626c653a206e6577206f776e657220697320746865207a65726f206160008201527f6464726573730000000000000000000000000000000000000000000000000000602082015250565b7f436f6c6c656374696f6e20616c7265616479206c697374656400000000000000600082015250565b7f496e636f72726563742070726963650000000000000000000000000000000000600082015250565b7f546f6b656e206973206e6f7420666f7220617661696c61626c6520666f72206260008201527f6f72726f77000000000000000000000000000000000000000000000000000000602082015250565b7f546f6b656e206973206e6f74206c697374656400000000000000000000000000600082015250565b7f4f776e61626c653a2063616c6c6572206973206e6f7420746865206f776e6572600082015250565b7f616c726561647920626f72726f77656400000000000000000000000000000000600082015250565b7f75736463207472616e73666572206661696c6564000000000000000000000000600082015250565b7f5265656e7472616e637947756172643a207265656e7472616e742063616c6c00600082015250565b61431481614065565b811461431f57600080fd5b50565b61432b81614077565b811461433657600080fd5b50565b614342816140a3565b811461434d57600080fd5b5056fea264697066735822122084a82ec2c62e5a6ba9fee75dd7400341c2b5f0295f2384d35a9e559ae5c5e4cc64736f6c63430008040033",
  "linkReferences": {},
  "deployedLinkReferences": {}
}