{
  "_format": "hh-sol-artifact-1",
  "contractName": "DeNFTMock",
  "sourceName": "contracts/Fractional/DeNFTMock.sol",
  "abi": [
    {
      "inputs": [],
      "stateMutability": "nonpayable",
      "type": "constructor"
    },
    {
      "anonymous": false,
      "inputs": [
        {
          "indexed": true,
          "internalType": "address",
          "name": "owner",
          "type": "address"
        },
        {
          "indexed": true,
          "internalType": "address",
          "name": "approved",
          "type": "address"
        },
        {
          "indexed": true,
          "internalType": "uint256",
          "name": "tokenId",
          "type": "uint256"
        }
      ],
      "name": "Approval",
      "type": "event"
    },
    {
      "anonymous": false,
      "inputs": [
        {
          "indexed": true,
          "internalType": "address",
          "name": "owner",
          "type": "address"
        },
        {
          "indexed": true,
          "internalType": "address",
          "name": "operator",
          "type": "address"
        },
        {
          "indexed": false,
          "internalType": "bool",
          "name": "approved",
          "type": "bool"
        }
      ],
      "name": "ApprovalForAll",
      "type": "event"
    },
    {
      "anonymous": false,
      "inputs": [
        {
          "indexed": true,
          "internalType": "address",
          "name": "previousOwner",
          "type": "address"
        },
        {
          "indexed": true,
          "internalType": "address",
          "name": "newOwner",
          "type": "address"
        }
      ],
      "name": "OwnershipTransferred",
      "type": "event"
    },
    {
      "anonymous": false,
      "inputs": [
        {
          "indexed": true,
          "internalType": "address",
          "name": "from",
          "type": "address"
        },
        {
          "indexed": true,
          "internalType": "address",
          "name": "to",
          "type": "address"
        },
        {
          "indexed": true,
          "internalType": "uint256",
          "name": "tokenId",
          "type": "uint256"
        }
      ],
      "name": "Transfer",
      "type": "event"
    },
    {
      "inputs": [
        {
          "internalType": "address",
          "name": "to",
          "type": "address"
        },
        {
          "internalType": "uint256",
          "name": "tokenId",
          "type": "uint256"
        }
      ],
      "name": "approve",
      "outputs": [],
      "stateMutability": "nonpayable",
      "type": "function"
    },
    {
      "inputs": [
        {
          "internalType": "address",
          "name": "owner",
          "type": "address"
        }
      ],
      "name": "balanceOf",
      "outputs": [
        {
          "internalType": "uint256",
          "name": "",
          "type": "uint256"
        }
      ],
      "stateMutability": "view",
      "type": "function"
    },
    {
      "inputs": [
        {
          "internalType": "uint256",
          "name": "tokenId",
          "type": "uint256"
        }
      ],
      "name": "getApproved",
      "outputs": [
        {
          "internalType": "address",
          "name": "",
          "type": "address"
        }
      ],
      "stateMutability": "view",
      "type": "function"
    },
    {
      "inputs": [
        {
          "internalType": "address",
          "name": "owner",
          "type": "address"
        },
        {
          "internalType": "address",
          "name": "operator",
          "type": "address"
        }
      ],
      "name": "isApprovedForAll",
      "outputs": [
        {
          "internalType": "bool",
          "name": "",
          "type": "bool"
        }
      ],
      "stateMutability": "view",
      "type": "function"
    },
    {
      "inputs": [],
      "name": "mint",
      "outputs": [],
      "stateMutability": "nonpayable",
      "type": "function"
    },
    {
      "inputs": [],
      "name": "name",
      "outputs": [
        {
          "internalType": "string",
          "name": "",
          "type": "string"
        }
      ],
      "stateMutability": "view",
      "type": "function"
    },
    {
      "inputs": [],
      "name": "owner",
      "outputs": [
        {
          "internalType": "address",
          "name": "",
          "type": "address"
        }
      ],
      "stateMutability": "view",
      "type": "function"
    },
    {
      "inputs": [
        {
          "internalType": "uint256",
          "name": "tokenId",
          "type": "uint256"
        }
      ],
      "name": "ownerOf",
      "outputs": [
        {
          "internalType": "address",
          "name": "",
          "type": "address"
        }
      ],
      "stateMutability": "view",
      "type": "function"
    },
    {
      "inputs": [],
      "name": "renounceOwnership",
      "outputs": [],
      "stateMutability": "nonpayable",
      "type": "function"
    },
    {
      "inputs": [
        {
          "internalType": "address",
          "name": "from",
          "type": "address"
        },
        {
          "internalType": "address",
          "name": "to",
          "type": "address"
        },
        {
          "internalType": "uint256",
          "name": "tokenId",
          "type": "uint256"
        }
      ],
      "name": "safeTransferFrom",
      "outputs": [],
      "stateMutability": "nonpayable",
      "type": "function"
    },
    {
      "inputs": [
        {
          "internalType": "address",
          "name": "from",
          "type": "address"
        },
        {
          "internalType": "address",
          "name": "to",
          "type": "address"
        },
        {
          "internalType": "uint256",
          "name": "tokenId",
          "type": "uint256"
        },
        {
          "internalType": "bytes",
          "name": "_data",
          "type": "bytes"
        }
      ],
      "name": "safeTransferFrom",
      "outputs": [],
      "stateMutability": "nonpayable",
      "type": "function"
    },
    {
      "inputs": [
        {
          "internalType": "address",
          "name": "operator",
          "type": "address"
        },
        {
          "internalType": "bool",
          "name": "approved",
          "type": "bool"
        }
      ],
      "name": "setApprovalForAll",
      "outputs": [],
      "stateMutability": "nonpayable",
      "type": "function"
    },
    {
      "inputs": [
        {
          "internalType": "bytes4",
          "name": "interfaceId",
          "type": "bytes4"
        }
      ],
      "name": "supportsInterface",
      "outputs": [
        {
          "internalType": "bool",
          "name": "",
          "type": "bool"
        }
      ],
      "stateMutability": "view",
      "type": "function"
    },
    {
      "inputs": [],
      "name": "symbol",
      "outputs": [
        {
          "internalType": "string",
          "name": "",
          "type": "string"
        }
      ],
      "stateMutability": "view",
      "type": "function"
    },
    {
      "inputs": [
        {
          "internalType": "uint256",
          "name": "tokenId",
          "type": "uint256"
        }
      ],
      "name": "tokenURI",
      "outputs": [
        {
          "internalType": "string",
          "name": "",
          "type": "string"
        }
      ],
      "stateMutability": "view",
      "type": "function"
    },
    {
      "inputs": [
        {
          "internalType": "address",
          "name": "from",
          "type": "address"
        },
        {
          "internalType": "address",
          "name": "to",
          "type": "address"
        },
        {
          "internalType": "uint256",
          "name": "tokenId",
          "type": "uint256"
        }
      ],
      "name": "transferFrom",
      "outputs": [],
      "stateMutability": "nonpayable",
      "type": "function"
    },
    {
      "inputs": [
        {
          "internalType": "address",
          "name": "newOwner",
          "type": "address"
        }
      ],
      "name": "transferOwnership",
      "outputs": [],
      "stateMutability": "nonpayable",
      "type": "function"
    }
  ],
  "bytecode": "0x608060405260016007553480156200001657600080fd5b506040518060400160405280600581526020017f44654e46540000000000000000000000000000000000000000000000000000008152506040518060400160405280600481526020017f444e465400000000000000000000000000000000000000000000000000000000815250620000a362000097620000dd60201b60201c565b620000e560201b60201c565b8160019080519060200190620000bb929190620001a9565b508060029080519060200190620000d4929190620001a9565b505050620002be565b600033905090565b60008060009054906101000a900473ffffffffffffffffffffffffffffffffffffffff169050816000806101000a81548173ffffffffffffffffffffffffffffffffffffffff021916908373ffffffffffffffffffffffffffffffffffffffff1602179055508173ffffffffffffffffffffffffffffffffffffffff168173ffffffffffffffffffffffffffffffffffffffff167f8be0079c531659141344cd1fd0a4f28419497f9722a3daafe3b4186f6b6457e060405160405180910390a35050565b828054620001b79062000259565b90600052602060002090601f016020900481019282620001db576000855562000227565b82601f10620001f657805160ff191683800117855562000227565b8280016001018555821562000227579182015b828111156200022657825182559160200191906001019062000209565b5b5090506200023691906200023a565b5090565b5b80821115620002555760008160009055506001016200023b565b5090565b600060028204905060018216806200027257607f821691505b602082108114156200028957620002886200028f565b5b50919050565b7f4e487b7100000000000000000000000000000000000000000000000000000000600052602260045260246000fd5b612a9480620002ce6000396000f3fe608060405234801561001057600080fd5b506004361061010b5760003560e01c806370a08231116100a2578063a22cb46511610071578063a22cb46514610292578063b88d4fde146102ae578063c87b56dd146102ca578063e985e9c5146102fa578063f2fde38b1461032a5761010b565b806370a082311461021c578063715018a61461024c5780638da5cb5b1461025657806395d89b41146102745761010b565b80631249c58b116100de5780631249c58b146101aa57806323b872dd146101b457806342842e0e146101d05780636352211e146101ec5761010b565b806301ffc9a71461011057806306fdde0314610140578063081812fc1461015e578063095ea7b31461018e575b600080fd5b61012a60048036038101906101259190611b98565b610346565b6040516101379190611f9e565b60405180910390f35b610148610428565b6040516101559190611fb9565b60405180910390f35b61017860048036038101906101739190611bea565b6104ba565b6040516101859190611f37565b60405180910390f35b6101a860048036038101906101a39190611b5c565b61053f565b005b6101b2610657565b005b6101ce60048036038101906101c99190611a56565b61067d565b005b6101ea60048036038101906101e59190611a56565b6106dd565b005b61020660048036038101906102019190611bea565b6106fd565b6040516102139190611f37565b60405180910390f35b610236600480360381019061023191906119f1565b6107af565b60405161024391906121db565b60405180910390f35b610254610867565b005b61025e6108ef565b60405161026b9190611f37565b60405180910390f35b61027c610918565b6040516102899190611fb9565b60405180910390f35b6102ac60048036038101906102a79190611b20565b6109aa565b005b6102c860048036038101906102c39190611aa5565b6109c0565b005b6102e460048036038101906102df9190611bea565b610a22565b6040516102f19190611fb9565b60405180910390f35b610314600480360381019061030f9190611a1a565b610ac9565b6040516103219190611f9e565b60405180910390f35b610344600480360381019061033f91906119f1565b610b5d565b005b60007f80ac58cd000000000000000000000000000000000000000000000000000000007bffffffffffffffffffffffffffffffffffffffffffffffffffffffff1916827bffffffffffffffffffffffffffffffffffffffffffffffffffffffff1916148061041157507f5b5e139f000000000000000000000000000000000000000000000000000000007bffffffffffffffffffffffffffffffffffffffffffffffffffffffff1916827bffffffffffffffffffffffffffffffffffffffffffffffffffffffff1916145b80610421575061042082610c55565b5b9050919050565b60606001805461043790612400565b80601f016020809104026020016040519081016040528092919081815260200182805461046390612400565b80156104b05780601f10610485576101008083540402835291602001916104b0565b820191906000526020600020905b81548152906001019060200180831161049357829003601f168201915b5050505050905090565b60006104c582610cbf565b610504576040517f08c379a00000000000000000000000000000000000000000000000000000000081526004016104fb9061213b565b60405180910390fd5b6005600083815260200190815260200160002060009054906101000a900473ffffffffffffffffffffffffffffffffffffffff169050919050565b600061054a826106fd565b90508073ffffffffffffffffffffffffffffffffffffffff168373ffffffffffffffffffffffffffffffffffffffff1614156105bb576040517f08c379a00000000000000000000000000000000000000000000000000000000081526004016105b29061219b565b60405180910390fd5b8073ffffffffffffffffffffffffffffffffffffffff166105da610d2b565b73ffffffffffffffffffffffffffffffffffffffff161480610609575061060881610603610d2b565b610ac9565b5b610648576040517f08c379a000000000000000000000000000000000000000000000000000000000815260040161063f906120bb565b60405180910390fd5b6106528383610d33565b505050565b61066333600754610dec565b6007600081548092919061067690612463565b9190505550565b61068e610688610d2b565b82610fc6565b6106cd576040517f08c379a00000000000000000000000000000000000000000000000000000000081526004016106c4906121bb565b60405180910390fd5b6106d88383836110a4565b505050565b6106f8838383604051806020016040528060008152506109c0565b505050565b6000806003600084815260200190815260200160002060009054906101000a900473ffffffffffffffffffffffffffffffffffffffff169050600073ffffffffffffffffffffffffffffffffffffffff168173ffffffffffffffffffffffffffffffffffffffff1614156107a6576040517f08c379a000000000000000000000000000000000000000000000000000000000815260040161079d906120fb565b60405180910390fd5b80915050919050565b60008073ffffffffffffffffffffffffffffffffffffffff168273ffffffffffffffffffffffffffffffffffffffff161415610820576040517f08c379a0000000000000000000000000000000000000000000000000000000008152600401610817906120db565b60405180910390fd5b600460008373ffffffffffffffffffffffffffffffffffffffff1673ffffffffffffffffffffffffffffffffffffffff168152602001908152602001600020549050919050565b61086f610d2b565b73ffffffffffffffffffffffffffffffffffffffff1661088d6108ef565b73ffffffffffffffffffffffffffffffffffffffff16146108e3576040517f08c379a00000000000000000000000000000000000000000000000000000000081526004016108da9061215b565b60405180910390fd5b6108ed600061130b565b565b60008060009054906101000a900473ffffffffffffffffffffffffffffffffffffffff16905090565b60606002805461092790612400565b80601f016020809104026020016040519081016040528092919081815260200182805461095390612400565b80156109a05780601f10610975576101008083540402835291602001916109a0565b820191906000526020600020905b81548152906001019060200180831161098357829003601f168201915b5050505050905090565b6109bc6109b5610d2b565b83836113cf565b5050565b6109d16109cb610d2b565b83610fc6565b610a10576040517f08c379a0000000000000000000000000000000000000000000000000000000008152600401610a07906121bb565b60405180910390fd5b610a1c8484848461153c565b50505050565b6060610a2d82610cbf565b610a6c576040517f08c379a0000000000000000000000000000000000000000000000000000000008152600401610a639061217b565b60405180910390fd5b6000610a76611598565b90506000815111610a965760405180602001604052806000815250610ac1565b80610aa0846115af565b604051602001610ab1929190611f13565b6040516020818303038152906040525b915050919050565b6000600660008473ffffffffffffffffffffffffffffffffffffffff1673ffffffffffffffffffffffffffffffffffffffff16815260200190815260200160002060008373ffffffffffffffffffffffffffffffffffffffff1673ffffffffffffffffffffffffffffffffffffffff16815260200190815260200160002060009054906101000a900460ff16905092915050565b610b65610d2b565b73ffffffffffffffffffffffffffffffffffffffff16610b836108ef565b73ffffffffffffffffffffffffffffffffffffffff1614610bd9576040517f08c379a0000000000000000000000000000000000000000000000000000000008152600401610bd09061215b565b60405180910390fd5b600073ffffffffffffffffffffffffffffffffffffffff168173ffffffffffffffffffffffffffffffffffffffff161415610c49576040517f08c379a0000000000000000000000000000000000000000000000000000000008152600401610c4090611ffb565b60405180910390fd5b610c528161130b565b50565b60007f01ffc9a7000000000000000000000000000000000000000000000000000000007bffffffffffffffffffffffffffffffffffffffffffffffffffffffff1916827bffffffffffffffffffffffffffffffffffffffffffffffffffffffff1916149050919050565b60008073ffffffffffffffffffffffffffffffffffffffff166003600084815260200190815260200160002060009054906101000a900473ffffffffffffffffffffffffffffffffffffffff1673ffffffffffffffffffffffffffffffffffffffff1614159050919050565b600033905090565b816005600083815260200190815260200160002060006101000a81548173ffffffffffffffffffffffffffffffffffffffff021916908373ffffffffffffffffffffffffffffffffffffffff160217905550808273ffffffffffffffffffffffffffffffffffffffff16610da6836106fd565b73ffffffffffffffffffffffffffffffffffffffff167f8c5be1e5ebec7d5bd14f71427d1e84f3dd0314c0f7b2291e5b200ac8c7c3b92560405160405180910390a45050565b600073ffffffffffffffffffffffffffffffffffffffff168273ffffffffffffffffffffffffffffffffffffffff161415610e5c576040517f08c379a0000000000000000000000000000000000000000000000000000000008152600401610e539061211b565b60405180910390fd5b610e6581610cbf565b15610ea5576040517f08c379a0000000000000000000000000000000000000000000000000000000008152600401610e9c9061203b565b60405180910390fd5b610eb16000838361175c565b6001600460008473ffffffffffffffffffffffffffffffffffffffff1673ffffffffffffffffffffffffffffffffffffffff1681526020019081526020016000206000828254610f01919061228f565b92505081905550816003600083815260200190815260200160002060006101000a81548173ffffffffffffffffffffffffffffffffffffffff021916908373ffffffffffffffffffffffffffffffffffffffff160217905550808273ffffffffffffffffffffffffffffffffffffffff16600073ffffffffffffffffffffffffffffffffffffffff167fddf252ad1be2c89b69c2b068fc378daa952ba7f163c4a11628f55a4df523b3ef60405160405180910390a4610fc260008383611761565b5050565b6000610fd182610cbf565b611010576040517f08c379a00000000000000000000000000000000000000000000000000000000081526004016110079061209b565b60405180910390fd5b600061101b836106fd565b90508073ffffffffffffffffffffffffffffffffffffffff168473ffffffffffffffffffffffffffffffffffffffff16148061105d575061105c8185610ac9565b5b8061109b57508373ffffffffffffffffffffffffffffffffffffffff16611083846104ba565b73ffffffffffffffffffffffffffffffffffffffff16145b91505092915050565b8273ffffffffffffffffffffffffffffffffffffffff166110c4826106fd565b73ffffffffffffffffffffffffffffffffffffffff161461111a576040517f08c379a00000000000000000000000000000000000000000000000000000000081526004016111119061201b565b60405180910390fd5b600073ffffffffffffffffffffffffffffffffffffffff168273ffffffffffffffffffffffffffffffffffffffff16141561118a576040517f08c379a00000000000000000000000000000000000000000000000000000000081526004016111819061205b565b60405180910390fd5b61119583838361175c565b6111a0600082610d33565b6001600460008573ffffffffffffffffffffffffffffffffffffffff1673ffffffffffffffffffffffffffffffffffffffff16815260200190815260200160002060008282546111f09190612316565b925050819055506001600460008473ffffffffffffffffffffffffffffffffffffffff1673ffffffffffffffffffffffffffffffffffffffff1681526020019081526020016000206000828254611247919061228f565b92505081905550816003600083815260200190815260200160002060006101000a81548173ffffffffffffffffffffffffffffffffffffffff021916908373ffffffffffffffffffffffffffffffffffffffff160217905550808273ffffffffffffffffffffffffffffffffffffffff168473ffffffffffffffffffffffffffffffffffffffff167fddf252ad1be2c89b69c2b068fc378daa952ba7f163c4a11628f55a4df523b3ef60405160405180910390a4611306838383611761565b505050565b60008060009054906101000a900473ffffffffffffffffffffffffffffffffffffffff169050816000806101000a81548173ffffffffffffffffffffffffffffffffffffffff021916908373ffffffffffffffffffffffffffffffffffffffff1602179055508173ffffffffffffffffffffffffffffffffffffffff168173ffffffffffffffffffffffffffffffffffffffff167f8be0079c531659141344cd1fd0a4f28419497f9722a3daafe3b4186f6b6457e060405160405180910390a35050565b8173ffffffffffffffffffffffffffffffffffffffff168373ffffffffffffffffffffffffffffffffffffffff16141561143e576040517f08c379a00000000000000000000000000000000000000000000000000000000081526004016114359061207b565b60405180910390fd5b80600660008573ffffffffffffffffffffffffffffffffffffffff1673ffffffffffffffffffffffffffffffffffffffff16815260200190815260200160002060008473ffffffffffffffffffffffffffffffffffffffff1673ffffffffffffffffffffffffffffffffffffffff16815260200190815260200160002060006101000a81548160ff0219169083151502179055508173ffffffffffffffffffffffffffffffffffffffff168373ffffffffffffffffffffffffffffffffffffffff167f17307eab39ab6107e8899845ad3d59bd9653f200f220920489ca2b5937696c318360405161152f9190611f9e565b60405180910390a3505050565b6115478484846110a4565b61155384848484611766565b611592576040517f08c379a000000000000000000000000000000000000000000000000000000000815260040161158990611fdb565b60405180910390fd5b50505050565b606060405180602001604052806000815250905090565b606060008214156115f7576040518060400160405280600181526020017f30000000000000000000000000000000000000000000000000000000000000008152509050611757565b600082905060005b6000821461162957808061161290612463565b915050600a8261162291906122e5565b91506115ff565b60008167ffffffffffffffff81111561166b577f4e487b7100000000000000000000000000000000000000000000000000000000600052604160045260246000fd5b6040519080825280601f01601f19166020018201604052801561169d5781602001600182028036833780820191505090505b5090505b60008514611750576001826116b69190612316565b9150600a856116c591906124ac565b60306116d1919061228f565b60f81b81838151811061170d577f4e487b7100000000000000000000000000000000000000000000000000000000600052603260045260246000fd5b60200101907effffffffffffffffffffffffffffffffffffffffffffffffffffffffffffff1916908160001a905350600a8561174991906122e5565b94506116a1565b8093505050505b919050565b505050565b505050565b60006117878473ffffffffffffffffffffffffffffffffffffffff166118fd565b156118f0578373ffffffffffffffffffffffffffffffffffffffff1663150b7a026117b0610d2b565b8786866040518563ffffffff1660e01b81526004016117d29493929190611f52565b602060405180830381600087803b1580156117ec57600080fd5b505af192505050801561181d57506040513d601f19601f8201168201806040525081019061181a9190611bc1565b60015b6118a0573d806000811461184d576040519150601f19603f3d011682016040523d82523d6000602084013e611852565b606091505b50600081511415611898576040517f08c379a000000000000000000000000000000000000000000000000000000000815260040161188f90611fdb565b60405180910390fd5b805181602001fd5b63150b7a0260e01b7bffffffffffffffffffffffffffffffffffffffffffffffffffffffff1916817bffffffffffffffffffffffffffffffffffffffffffffffffffffffff1916149150506118f5565b600190505b949350505050565b6000808273ffffffffffffffffffffffffffffffffffffffff163b119050919050565b600061193361192e8461221b565b6121f6565b90508281526020810184848401111561194b57600080fd5b6119568482856123be565b509392505050565b60008135905061196d81612a02565b92915050565b60008135905061198281612a19565b92915050565b60008135905061199781612a30565b92915050565b6000815190506119ac81612a30565b92915050565b600082601f8301126119c357600080fd5b81356119d3848260208601611920565b91505092915050565b6000813590506119eb81612a47565b92915050565b600060208284031215611a0357600080fd5b6000611a118482850161195e565b91505092915050565b60008060408385031215611a2d57600080fd5b6000611a3b8582860161195e565b9250506020611a4c8582860161195e565b9150509250929050565b600080600060608486031215611a6b57600080fd5b6000611a798682870161195e565b9350506020611a8a8682870161195e565b9250506040611a9b868287016119dc565b9150509250925092565b60008060008060808587031215611abb57600080fd5b6000611ac98782880161195e565b9450506020611ada8782880161195e565b9350506040611aeb878288016119dc565b925050606085013567ffffffffffffffff811115611b0857600080fd5b611b14878288016119b2565b91505092959194509250565b60008060408385031215611b3357600080fd5b6000611b418582860161195e565b9250506020611b5285828601611973565b9150509250929050565b60008060408385031215611b6f57600080fd5b6000611b7d8582860161195e565b9250506020611b8e858286016119dc565b9150509250929050565b600060208284031215611baa57600080fd5b6000611bb884828501611988565b91505092915050565b600060208284031215611bd357600080fd5b6000611be18482850161199d565b91505092915050565b600060208284031215611bfc57600080fd5b6000611c0a848285016119dc565b91505092915050565b611c1c8161234a565b82525050565b611c2b8161235c565b82525050565b6000611c3c8261224c565b611c468185612262565b9350611c568185602086016123cd565b611c5f81612599565b840191505092915050565b6000611c7582612257565b611c7f8185612273565b9350611c8f8185602086016123cd565b611c9881612599565b840191505092915050565b6000611cae82612257565b611cb88185612284565b9350611cc88185602086016123cd565b80840191505092915050565b6000611ce1603283612273565b9150611cec826125aa565b604082019050919050565b6000611d04602683612273565b9150611d0f826125f9565b604082019050919050565b6000611d27602583612273565b9150611d3282612648565b604082019050919050565b6000611d4a601c83612273565b9150611d5582612697565b602082019050919050565b6000611d6d602483612273565b9150611d78826126c0565b604082019050919050565b6000611d90601983612273565b9150611d9b8261270f565b602082019050919050565b6000611db3602c83612273565b9150611dbe82612738565b604082019050919050565b6000611dd6603883612273565b9150611de182612787565b604082019050919050565b6000611df9602a83612273565b9150611e04826127d6565b604082019050919050565b6000611e1c602983612273565b9150611e2782612825565b604082019050919050565b6000611e3f602083612273565b9150611e4a82612874565b602082019050919050565b6000611e62602c83612273565b9150611e6d8261289d565b604082019050919050565b6000611e85602083612273565b9150611e90826128ec565b602082019050919050565b6000611ea8602f83612273565b9150611eb382612915565b604082019050919050565b6000611ecb602183612273565b9150611ed682612964565b604082019050919050565b6000611eee603183612273565b9150611ef9826129b3565b604082019050919050565b611f0d816123b4565b82525050565b6000611f1f8285611ca3565b9150611f2b8284611ca3565b91508190509392505050565b6000602082019050611f4c6000830184611c13565b92915050565b6000608082019050611f676000830187611c13565b611f746020830186611c13565b611f816040830185611f04565b8181036060830152611f938184611c31565b905095945050505050565b6000602082019050611fb36000830184611c22565b92915050565b60006020820190508181036000830152611fd38184611c6a565b905092915050565b60006020820190508181036000830152611ff481611cd4565b9050919050565b6000602082019050818103600083015261201481611cf7565b9050919050565b6000602082019050818103600083015261203481611d1a565b9050919050565b6000602082019050818103600083015261205481611d3d565b9050919050565b6000602082019050818103600083015261207481611d60565b9050919050565b6000602082019050818103600083015261209481611d83565b9050919050565b600060208201905081810360008301526120b481611da6565b9050919050565b600060208201905081810360008301526120d481611dc9565b9050919050565b600060208201905081810360008301526120f481611dec565b9050919050565b6000602082019050818103600083015261211481611e0f565b9050919050565b6000602082019050818103600083015261213481611e32565b9050919050565b6000602082019050818103600083015261215481611e55565b9050919050565b6000602082019050818103600083015261217481611e78565b9050919050565b6000602082019050818103600083015261219481611e9b565b9050919050565b600060208201905081810360008301526121b481611ebe565b9050919050565b600060208201905081810360008301526121d481611ee1565b9050919050565b60006020820190506121f06000830184611f04565b92915050565b6000612200612211565b905061220c8282612432565b919050565b6000604051905090565b600067ffffffffffffffff8211156122365761223561256a565b5b61223f82612599565b9050602081019050919050565b600081519050919050565b600081519050919050565b600082825260208201905092915050565b600082825260208201905092915050565b600081905092915050565b600061229a826123b4565b91506122a5836123b4565b9250827fffffffffffffffffffffffffffffffffffffffffffffffffffffffffffffffff038211156122da576122d96124dd565b5b828201905092915050565b60006122f0826123b4565b91506122fb836123b4565b92508261230b5761230a61250c565b5b828204905092915050565b6000612321826123b4565b915061232c836123b4565b92508282101561233f5761233e6124dd565b5b828203905092915050565b600061235582612394565b9050919050565b60008115159050919050565b60007fffffffff0000000000000000000000000000000000000000000000000000000082169050919050565b600073ffffffffffffffffffffffffffffffffffffffff82169050919050565b6000819050919050565b82818337600083830152505050565b60005b838110156123eb5780820151818401526020810190506123d0565b838111156123fa576000848401525b50505050565b6000600282049050600182168061241857607f821691505b6020821081141561242c5761242b61253b565b5b50919050565b61243b82612599565b810181811067ffffffffffffffff8211171561245a5761245961256a565b5b80604052505050565b600061246e826123b4565b91507fffffffffffffffffffffffffffffffffffffffffffffffffffffffffffffffff8214156124a1576124a06124dd565b5b600182019050919050565b60006124b7826123b4565b91506124c2836123b4565b9250826124d2576124d161250c565b5b828206905092915050565b7f4e487b7100000000000000000000000000000000000000000000000000000000600052601160045260246000fd5b7f4e487b7100000000000000000000000000000000000000000000000000000000600052601260045260246000fd5b7f4e487b7100000000000000000000000000000000000000000000000000000000600052602260045260246000fd5b7f4e487b7100000000000000000000000000000000000000000000000000000000600052604160045260246000fd5b6000601f19601f8301169050919050565b7f4552433732313a207472616e7366657220746f206e6f6e20455243373231526560008201527f63656976657220696d706c656d656e7465720000000000000000000000000000602082015250565b7f4f776e61626c653a206e6577206f776e657220697320746865207a65726f206160008201527f6464726573730000000000000000000000000000000000000000000000000000602082015250565b7f4552433732313a207472616e736665722066726f6d20696e636f72726563742060008201527f6f776e6572000000000000000000000000000000000000000000000000000000602082015250565b7f4552433732313a20746f6b656e20616c7265616479206d696e74656400000000600082015250565b7f4552433732313a207472616e7366657220746f20746865207a65726f2061646460008201527f7265737300000000000000000000000000000000000000000000000000000000602082015250565b7f4552433732313a20617070726f766520746f2063616c6c657200000000000000600082015250565b7f4552433732313a206f70657261746f7220717565727920666f72206e6f6e657860008201527f697374656e7420746f6b656e0000000000000000000000000000000000000000602082015250565b7f4552433732313a20617070726f76652063616c6c6572206973206e6f74206f7760008201527f6e6572206e6f7220617070726f76656420666f7220616c6c0000000000000000602082015250565b7f4552433732313a2062616c616e636520717565727920666f7220746865207a6560008201527f726f206164647265737300000000000000000000000000000000000000000000602082015250565b7f4552433732313a206f776e657220717565727920666f72206e6f6e657869737460008201527f656e7420746f6b656e0000000000000000000000000000000000000000000000602082015250565b7f4552433732313a206d696e7420746f20746865207a65726f2061646472657373600082015250565b7f4552433732313a20617070726f76656420717565727920666f72206e6f6e657860008201527f697374656e7420746f6b656e0000000000000000000000000000000000000000602082015250565b7f4f776e61626c653a2063616c6c6572206973206e6f7420746865206f776e6572600082015250565b7f4552433732314d657461646174613a2055524920717565727920666f72206e6f60008201527f6e6578697374656e7420746f6b656e0000000000000000000000000000000000602082015250565b7f4552433732313a20617070726f76616c20746f2063757272656e74206f776e6560008201527f7200000000000000000000000000000000000000000000000000000000000000602082015250565b7f4552433732313a207472616e736665722063616c6c6572206973206e6f74206f60008201527f776e6572206e6f7220617070726f766564000000000000000000000000000000602082015250565b612a0b8161234a565b8114612a1657600080fd5b50565b612a228161235c565b8114612a2d57600080fd5b50565b612a3981612368565b8114612a4457600080fd5b50565b612a50816123b4565b8114612a5b57600080fd5b5056fea2646970667358221220599208eec8f0069c9c24e8040825a2752b101a26c6a28494952d56c6b92b86b864736f6c63430008040033",
  "linkReferences": {},
  "deployedLinkReferences": {}
}