{
  "_format": "hh-sol-artifact-1",
  "contractName": "FractionalERC20Vault",
  "sourceName": "contracts/Fractional/FractionalERC20Vault.sol",
  "abi": [
    {
      "inputs": [
        {
          "internalType": "address",
          "name": "_owner",
          "type": "address"
        },
        {
          "internalType": "address",
          "name": "_nftCollection",
          "type": "address"
        },
        {
          "internalType": "uint256",
          "name": "_id",
          "type": "uint256"
        },
        {
          "internalType": "string",
          "name": "_name",
          "type": "string"
        },
        {
          "internalType": "string",
          "name": "_symbol",
          "type": "string"
        },
        {
          "internalType": "uint256",
          "name": "_supply",
          "type": "uint256"
        },
        {
          "internalType": "uint256",
          "name": "_listPrice",
          "type": "uint256"
        }
      ],
      "stateMutability": "nonpayable",
      "type": "constructor"
    },
    {
      "anonymous": false,
      "inputs": [
        {
          "indexed": true,
          "internalType": "address",
          "name": "owner",
          "type": "address"
        },
        {
          "indexed": true,
          "internalType": "address",
          "name": "spender",
          "type": "address"
        },
        {
          "indexed": false,
          "internalType": "uint256",
          "name": "value",
          "type": "uint256"
        }
      ],
      "name": "Approval",
      "type": "event"
    },
    {
      "anonymous": false,
      "inputs": [
        {
          "indexed": true,
          "internalType": "address",
          "name": "from",
          "type": "address"
        },
        {
          "indexed": true,
          "internalType": "address",
          "name": "to",
          "type": "address"
        },
        {
          "indexed": false,
          "internalType": "uint256",
          "name": "value",
          "type": "uint256"
        }
      ],
      "name": "Transfer",
      "type": "event"
    },
    {
      "inputs": [
        {
          "internalType": "address",
          "name": "owner",
          "type": "address"
        },
        {
          "internalType": "address",
          "name": "spender",
          "type": "address"
        }
      ],
      "name": "allowance",
      "outputs": [
        {
          "internalType": "uint256",
          "name": "",
          "type": "uint256"
        }
      ],
      "stateMutability": "view",
      "type": "function"
    },
    {
      "inputs": [
        {
          "internalType": "address",
          "name": "spender",
          "type": "address"
        },
        {
          "internalType": "uint256",
          "name": "amount",
          "type": "uint256"
        }
      ],
      "name": "approve",
      "outputs": [
        {
          "internalType": "bool",
          "name": "",
          "type": "bool"
        }
      ],
      "stateMutability": "nonpayable",
      "type": "function"
    },
    {
      "inputs": [
        {
          "internalType": "address",
          "name": "account",
          "type": "address"
        }
      ],
      "name": "balanceOf",
      "outputs": [
        {
          "internalType": "uint256",
          "name": "",
          "type": "uint256"
        }
      ],
      "stateMutability": "view",
      "type": "function"
    },
    {
      "inputs": [],
      "name": "decimals",
      "outputs": [
        {
          "internalType": "uint8",
          "name": "",
          "type": "uint8"
        }
      ],
      "stateMutability": "view",
      "type": "function"
    },
    {
      "inputs": [
        {
          "internalType": "address",
          "name": "spender",
          "type": "address"
        },
        {
          "internalType": "uint256",
          "name": "subtractedValue",
          "type": "uint256"
        }
      ],
      "name": "decreaseAllowance",
      "outputs": [
        {
          "internalType": "bool",
          "name": "",
          "type": "bool"
        }
      ],
      "stateMutability": "nonpayable",
      "type": "function"
    },
    {
      "inputs": [
        {
          "internalType": "address",
          "name": "spender",
          "type": "address"
        },
        {
          "internalType": "uint256",
          "name": "addedValue",
          "type": "uint256"
        }
      ],
      "name": "increaseAllowance",
      "outputs": [
        {
          "internalType": "bool",
          "name": "",
          "type": "bool"
        }
      ],
      "stateMutability": "nonpayable",
      "type": "function"
    },
    {
      "inputs": [],
      "name": "name",
      "outputs": [
        {
          "internalType": "string",
          "name": "",
          "type": "string"
        }
      ],
      "stateMutability": "view",
      "type": "function"
    },
    {
      "inputs": [],
      "name": "nftCollection",
      "outputs": [
        {
          "internalType": "address",
          "name": "",
          "type": "address"
        }
      ],
      "stateMutability": "view",
      "type": "function"
    },
    {
      "inputs": [],
      "name": "nftId",
      "outputs": [
        {
          "internalType": "uint256",
          "name": "",
          "type": "uint256"
        }
      ],
      "stateMutability": "view",
      "type": "function"
    },
    {
      "inputs": [],
      "name": "owner",
      "outputs": [
        {
          "internalType": "address",
          "name": "",
          "type": "address"
        }
      ],
      "stateMutability": "view",
      "type": "function"
    },
    {
      "inputs": [],
      "name": "redeem",
      "outputs": [],
      "stateMutability": "nonpayable",
      "type": "function"
    },
    {
      "inputs": [],
      "name": "reservePrice",
      "outputs": [
        {
          "internalType": "uint256",
          "name": "",
          "type": "uint256"
        }
      ],
      "stateMutability": "view",
      "type": "function"
    },
    {
      "inputs": [],
      "name": "symbol",
      "outputs": [
        {
          "internalType": "string",
          "name": "",
          "type": "string"
        }
      ],
      "stateMutability": "view",
      "type": "function"
    },
    {
      "inputs": [],
      "name": "totalSupply",
      "outputs": [
        {
          "internalType": "uint256",
          "name": "",
          "type": "uint256"
        }
      ],
      "stateMutability": "view",
      "type": "function"
    },
    {
      "inputs": [
        {
          "internalType": "address",
          "name": "to",
          "type": "address"
        },
        {
          "internalType": "uint256",
          "name": "amount",
          "type": "uint256"
        }
      ],
      "name": "transfer",
      "outputs": [
        {
          "internalType": "bool",
          "name": "",
          "type": "bool"
        }
      ],
      "stateMutability": "nonpayable",
      "type": "function"
    },
    {
      "inputs": [
        {
          "internalType": "address",
          "name": "from",
          "type": "address"
        },
        {
          "internalType": "address",
          "name": "to",
          "type": "address"
        },
        {
          "internalType": "uint256",
          "name": "amount",
          "type": "uint256"
        }
      ],
      "name": "transferFrom",
      "outputs": [
        {
          "internalType": "bool",
          "name": "",
          "type": "bool"
        }
      ],
      "stateMutability": "nonpayable",
      "type": "function"
    }
  ],
  "bytecode": "0x60a06040523480156200001157600080fd5b5060405162001fb638038062001fb68339818101604052810190620000379190620003e5565b838381600390805190602001906200005192919062000295565b5080600490805190602001906200006a92919062000295565b50505086600660006101000a81548173ffffffffffffffffffffffffffffffffffffffff021916908373ffffffffffffffffffffffffffffffffffffffff16021790555085600560006101000a81548173ffffffffffffffffffffffffffffffffffffffff021916908373ffffffffffffffffffffffffffffffffffffffff1602179055506200010187836200011d60201b60201c565b84608081815250508060078190555050505050505050620007e3565b600073ffffffffffffffffffffffffffffffffffffffff168273ffffffffffffffffffffffffffffffffffffffff16141562000190576040517f08c379a00000000000000000000000000000000000000000000000000000000081526004016200018790620004fc565b60405180910390fd5b620001a4600083836200028b60201b60201c565b8060026000828254620001b89190620005ab565b92505081905550806000808473ffffffffffffffffffffffffffffffffffffffff1673ffffffffffffffffffffffffffffffffffffffff168152602001908152602001600020600082825401925050819055508173ffffffffffffffffffffffffffffffffffffffff16600073ffffffffffffffffffffffffffffffffffffffff167fddf252ad1be2c89b69c2b068fc378daa952ba7f163c4a11628f55a4df523b3ef836040516200026b91906200051e565b60405180910390a362000287600083836200029060201b60201c565b5050565b505050565b505050565b828054620002a3906200067c565b90600052602060002090601f016020900481019282620002c7576000855562000313565b82601f10620002e257805160ff191683800117855562000313565b8280016001018555821562000313579182015b8281111562000312578251825591602001919060010190620002f5565b5b50905062000322919062000326565b5090565b5b808211156200034157600081600090555060010162000327565b5090565b60006200035c620003568462000564565b6200053b565b9050828152602081018484840111156200037557600080fd5b6200038284828562000646565b509392505050565b6000815190506200039b81620007af565b92915050565b600082601f830112620003b357600080fd5b8151620003c584826020860162000345565b91505092915050565b600081519050620003df81620007c9565b92915050565b600080600080600080600060e0888a0312156200040157600080fd5b6000620004118a828b016200038a565b9750506020620004248a828b016200038a565b9650506040620004378a828b01620003ce565b955050606088015167ffffffffffffffff8111156200045557600080fd5b620004638a828b01620003a1565b945050608088015167ffffffffffffffff8111156200048157600080fd5b6200048f8a828b01620003a1565b93505060a0620004a28a828b01620003ce565b92505060c0620004b58a828b01620003ce565b91505092959891949750929550565b6000620004d3601f836200059a565b9150620004e08262000786565b602082019050919050565b620004f6816200063c565b82525050565b600060208201905081810360008301526200051781620004c4565b9050919050565b6000602082019050620005356000830184620004eb565b92915050565b6000620005476200055a565b9050620005558282620006b2565b919050565b6000604051905090565b600067ffffffffffffffff82111562000582576200058162000746565b5b6200058d8262000775565b9050602081019050919050565b600082825260208201905092915050565b6000620005b8826200063c565b9150620005c5836200063c565b9250827fffffffffffffffffffffffffffffffffffffffffffffffffffffffffffffffff03821115620005fd57620005fc620006e8565b5b828201905092915050565b600062000615826200061c565b9050919050565b600073ffffffffffffffffffffffffffffffffffffffff82169050919050565b6000819050919050565b60005b838110156200066657808201518184015260208101905062000649565b8381111562000676576000848401525b50505050565b600060028204905060018216806200069557607f821691505b60208210811415620006ac57620006ab62000717565b5b50919050565b620006bd8262000775565b810181811067ffffffffffffffff82111715620006df57620006de62000746565b5b80604052505050565b7f4e487b7100000000000000000000000000000000000000000000000000000000600052601160045260246000fd5b7f4e487b7100000000000000000000000000000000000000000000000000000000600052602260045260246000fd5b7f4e487b7100000000000000000000000000000000000000000000000000000000600052604160045260246000fd5b6000601f19601f8301169050919050565b7f45524332303a206d696e7420746f20746865207a65726f206164647265737300600082015250565b620007ba8162000608565b8114620007c657600080fd5b50565b620007d4816200063c565b8114620007e057600080fd5b50565b6080516117b06200080660003960008181610690015261070301526117b06000f3fe608060405234801561001057600080fd5b50600436106101005760003560e01c80638da5cb5b11610097578063be040fb011610066578063be040fb0146102d9578063c6bc5182146102e3578063db2e1eed14610301578063dd62ed3e1461031f57610100565b80638da5cb5b1461023d57806395d89b411461025b578063a457c2d714610279578063a9059cbb146102a957610100565b8063313ce567116100d3578063313ce567146101a157806339509351146101bf5780636588103b146101ef57806370a082311461020d57610100565b806306fdde0314610105578063095ea7b31461012357806318160ddd1461015357806323b872dd14610171575b600080fd5b61010d61034f565b60405161011a9190611198565b60405180910390f35b61013d60048036038101906101389190610f3f565b6103e1565b60405161014a919061117d565b60405180910390f35b61015b610404565b60405161016891906112da565b60405180910390f35b61018b60048036038101906101869190610ef0565b61040e565b604051610198919061117d565b60405180910390f35b6101a961043d565b6040516101b691906112f5565b60405180910390f35b6101d960048036038101906101d49190610f3f565b610446565b6040516101e6919061117d565b60405180910390f35b6101f761047d565b604051610204919061112b565b60405180910390f35b61022760048036038101906102229190610e8b565b6104a3565b60405161023491906112da565b60405180910390f35b6102456104eb565b604051610252919061112b565b60405180910390f35b610263610511565b6040516102709190611198565b60405180910390f35b610293600480360381019061028e9190610f3f565b6105a3565b6040516102a0919061117d565b60405180910390f35b6102c360048036038101906102be9190610f3f565b61061a565b6040516102d0919061117d565b60405180910390f35b6102e161063d565b005b6102eb610701565b6040516102f891906112da565b60405180910390f35b610309610725565b60405161031691906112da565b60405180910390f35b61033960048036038101906103349190610eb4565b61072b565b60405161034691906112da565b60405180910390f35b60606003805461035e9061140a565b80601f016020809104026020016040519081016040528092919081815260200182805461038a9061140a565b80156103d75780601f106103ac576101008083540402835291602001916103d7565b820191906000526020600020905b8154815290600101906020018083116103ba57829003601f168201915b5050505050905090565b6000806103ec6107b2565b90506103f98185856107ba565b600191505092915050565b6000600254905090565b6000806104196107b2565b9050610426858285610985565b610431858585610a11565b60019150509392505050565b60006012905090565b6000806104516107b2565b9050610472818585610463858961072b565b61046d919061132c565b6107ba565b600191505092915050565b600560009054906101000a900473ffffffffffffffffffffffffffffffffffffffff1681565b60008060008373ffffffffffffffffffffffffffffffffffffffff1673ffffffffffffffffffffffffffffffffffffffff168152602001908152602001600020549050919050565b600660009054906101000a900473ffffffffffffffffffffffffffffffffffffffff1681565b6060600480546105209061140a565b80601f016020809104026020016040519081016040528092919081815260200182805461054c9061140a565b80156105995780601f1061056e57610100808354040283529160200191610599565b820191906000526020600020905b81548152906001019060200180831161057c57829003601f168201915b5050505050905090565b6000806105ae6107b2565b905060006105bc828661072b565b905083811015610601576040517f08c379a00000000000000000000000000000000000000000000000000000000081526004016105f8906112ba565b60405180910390fd5b61060e82868684036107ba565b60019250505092915050565b6000806106256107b2565b9050610632818585610a11565b600191505092915050565b61064e33610649610404565b610c89565b600560009054906101000a900473ffffffffffffffffffffffffffffffffffffffff1673ffffffffffffffffffffffffffffffffffffffff166323b872dd30337f00000000000000000000000000000000000000000000000000000000000000006040518463ffffffff1660e01b81526004016106cd93929190611146565b600060405180830381600087803b1580156106e757600080fd5b505af11580156106fb573d6000803e3d6000fd5b50505050565b7f000000000000000000000000000000000000000000000000000000000000000081565b60075481565b6000600160008473ffffffffffffffffffffffffffffffffffffffff1673ffffffffffffffffffffffffffffffffffffffff16815260200190815260200160002060008373ffffffffffffffffffffffffffffffffffffffff1673ffffffffffffffffffffffffffffffffffffffff16815260200190815260200160002054905092915050565b600033905090565b600073ffffffffffffffffffffffffffffffffffffffff168373ffffffffffffffffffffffffffffffffffffffff16141561082a576040517f08c379a00000000000000000000000000000000000000000000000000000000081526004016108219061129a565b60405180910390fd5b600073ffffffffffffffffffffffffffffffffffffffff168273ffffffffffffffffffffffffffffffffffffffff16141561089a576040517f08c379a0000000000000000000000000000000000000000000000000000000008152600401610891906111fa565b60405180910390fd5b80600160008573ffffffffffffffffffffffffffffffffffffffff1673ffffffffffffffffffffffffffffffffffffffff16815260200190815260200160002060008473ffffffffffffffffffffffffffffffffffffffff1673ffffffffffffffffffffffffffffffffffffffff168152602001908152602001600020819055508173ffffffffffffffffffffffffffffffffffffffff168373ffffffffffffffffffffffffffffffffffffffff167f8c5be1e5ebec7d5bd14f71427d1e84f3dd0314c0f7b2291e5b200ac8c7c3b9258360405161097891906112da565b60405180910390a3505050565b6000610991848461072b565b90507fffffffffffffffffffffffffffffffffffffffffffffffffffffffffffffffff8114610a0b57818110156109fd576040517f08c379a00000000000000000000000000000000000000000000000000000000081526004016109f49061121a565b60405180910390fd5b610a0a84848484036107ba565b5b50505050565b600073ffffffffffffffffffffffffffffffffffffffff168373ffffffffffffffffffffffffffffffffffffffff161415610a81576040517f08c379a0000000000000000000000000000000000000000000000000000000008152600401610a789061127a565b60405180910390fd5b600073ffffffffffffffffffffffffffffffffffffffff168273ffffffffffffffffffffffffffffffffffffffff161415610af1576040517f08c379a0000000000000000000000000000000000000000000000000000000008152600401610ae8906111ba565b60405180910390fd5b610afc838383610e57565b60008060008573ffffffffffffffffffffffffffffffffffffffff1673ffffffffffffffffffffffffffffffffffffffff16815260200190815260200160002054905081811015610b82576040517f08c379a0000000000000000000000000000000000000000000000000000000008152600401610b799061123a565b60405180910390fd5b8181036000808673ffffffffffffffffffffffffffffffffffffffff1673ffffffffffffffffffffffffffffffffffffffff16815260200190815260200160002081905550816000808573ffffffffffffffffffffffffffffffffffffffff1673ffffffffffffffffffffffffffffffffffffffff168152602001908152602001600020600082825401925050819055508273ffffffffffffffffffffffffffffffffffffffff168473ffffffffffffffffffffffffffffffffffffffff167fddf252ad1be2c89b69c2b068fc378daa952ba7f163c4a11628f55a4df523b3ef84604051610c7091906112da565b60405180910390a3610c83848484610e5c565b50505050565b600073ffffffffffffffffffffffffffffffffffffffff168273ffffffffffffffffffffffffffffffffffffffff161415610cf9576040517f08c379a0000000000000000000000000000000000000000000000000000000008152600401610cf09061125a565b60405180910390fd5b610d0582600083610e57565b60008060008473ffffffffffffffffffffffffffffffffffffffff1673ffffffffffffffffffffffffffffffffffffffff16815260200190815260200160002054905081811015610d8b576040517f08c379a0000000000000000000000000000000000000000000000000000000008152600401610d82906111da565b60405180910390fd5b8181036000808573ffffffffffffffffffffffffffffffffffffffff1673ffffffffffffffffffffffffffffffffffffffff1681526020019081526020016000208190555081600260008282540392505081905550600073ffffffffffffffffffffffffffffffffffffffff168373ffffffffffffffffffffffffffffffffffffffff167fddf252ad1be2c89b69c2b068fc378daa952ba7f163c4a11628f55a4df523b3ef84604051610e3e91906112da565b60405180910390a3610e5283600084610e5c565b505050565b505050565b505050565b600081359050610e708161174c565b92915050565b600081359050610e8581611763565b92915050565b600060208284031215610e9d57600080fd5b6000610eab84828501610e61565b91505092915050565b60008060408385031215610ec757600080fd5b6000610ed585828601610e61565b9250506020610ee685828601610e61565b9150509250929050565b600080600060608486031215610f0557600080fd5b6000610f1386828701610e61565b9350506020610f2486828701610e61565b9250506040610f3586828701610e76565b9150509250925092565b60008060408385031215610f5257600080fd5b6000610f6085828601610e61565b9250506020610f7185828601610e76565b9150509250929050565b610f8481611382565b82525050565b610f9381611394565b82525050565b6000610fa482611310565b610fae818561131b565b9350610fbe8185602086016113d7565b610fc78161149a565b840191505092915050565b6000610fdf60238361131b565b9150610fea826114ab565b604082019050919050565b600061100260228361131b565b915061100d826114fa565b604082019050919050565b600061102560228361131b565b915061103082611549565b604082019050919050565b6000611048601d8361131b565b915061105382611598565b602082019050919050565b600061106b60268361131b565b9150611076826115c1565b604082019050919050565b600061108e60218361131b565b915061109982611610565b604082019050919050565b60006110b160258361131b565b91506110bc8261165f565b604082019050919050565b60006110d460248361131b565b91506110df826116ae565b604082019050919050565b60006110f760258361131b565b9150611102826116fd565b604082019050919050565b611116816113c0565b82525050565b611125816113ca565b82525050565b60006020820190506111406000830184610f7b565b92915050565b600060608201905061115b6000830186610f7b565b6111686020830185610f7b565b611175604083018461110d565b949350505050565b60006020820190506111926000830184610f8a565b92915050565b600060208201905081810360008301526111b28184610f99565b905092915050565b600060208201905081810360008301526111d381610fd2565b9050919050565b600060208201905081810360008301526111f381610ff5565b9050919050565b6000602082019050818103600083015261121381611018565b9050919050565b600060208201905081810360008301526112338161103b565b9050919050565b600060208201905081810360008301526112538161105e565b9050919050565b6000602082019050818103600083015261127381611081565b9050919050565b60006020820190508181036000830152611293816110a4565b9050919050565b600060208201905081810360008301526112b3816110c7565b9050919050565b600060208201905081810360008301526112d3816110ea565b9050919050565b60006020820190506112ef600083018461110d565b92915050565b600060208201905061130a600083018461111c565b92915050565b600081519050919050565b600082825260208201905092915050565b6000611337826113c0565b9150611342836113c0565b9250827fffffffffffffffffffffffffffffffffffffffffffffffffffffffffffffffff038211156113775761137661143c565b5b828201905092915050565b600061138d826113a0565b9050919050565b60008115159050919050565b600073ffffffffffffffffffffffffffffffffffffffff82169050919050565b6000819050919050565b600060ff82169050919050565b60005b838110156113f55780820151818401526020810190506113da565b83811115611404576000848401525b50505050565b6000600282049050600182168061142257607f821691505b602082108114156114365761143561146b565b5b50919050565b7f4e487b7100000000000000000000000000000000000000000000000000000000600052601160045260246000fd5b7f4e487b7100000000000000000000000000000000000000000000000000000000600052602260045260246000fd5b6000601f19601f8301169050919050565b7f45524332303a207472616e7366657220746f20746865207a65726f206164647260008201527f6573730000000000000000000000000000000000000000000000000000000000602082015250565b7f45524332303a206275726e20616d6f756e7420657863656564732062616c616e60008201527f6365000000000000000000000000000000000000000000000000000000000000602082015250565b7f45524332303a20617070726f766520746f20746865207a65726f20616464726560008201527f7373000000000000000000000000000000000000000000000000000000000000602082015250565b7f45524332303a20696e73756666696369656e7420616c6c6f77616e6365000000600082015250565b7f45524332303a207472616e7366657220616d6f756e742065786365656473206260008201527f616c616e63650000000000000000000000000000000000000000000000000000602082015250565b7f45524332303a206275726e2066726f6d20746865207a65726f2061646472657360008201527f7300000000000000000000000000000000000000000000000000000000000000602082015250565b7f45524332303a207472616e736665722066726f6d20746865207a65726f20616460008201527f6472657373000000000000000000000000000000000000000000000000000000602082015250565b7f45524332303a20617070726f76652066726f6d20746865207a65726f2061646460008201527f7265737300000000000000000000000000000000000000000000000000000000602082015250565b7f45524332303a2064656372656173656420616c6c6f77616e63652062656c6f7760008201527f207a65726f000000000000000000000000000000000000000000000000000000602082015250565b61175581611382565b811461176057600080fd5b50565b61176c816113c0565b811461177757600080fd5b5056fea26469706673582212200769243f71a4234c485365ae2f89d6adfcb9479887b9888ae7c4c5b889edff2564736f6c63430008040033",
  "linkReferences": {},
  "deployedLinkReferences": {}
}