{
  "_format": "hh-sol-artifact-1",
  "contractName": "RewardDNFT",
  "sourceName": "contracts/RewardDNFT.sol",
  "abi": [
    {
      "inputs": [
        {
          "internalType": "address",
          "name": "sender",
          "type": "address"
        }
      ],
      "stateMutability": "nonpayable",
      "type": "constructor"
    },
    {
      "anonymous": false,
      "inputs": [
        {
          "indexed": true,
          "internalType": "address",
          "name": "from",
          "type": "address"
        },
        {
          "indexed": true,
          "internalType": "address",
          "name": "spender",
          "type": "address"
        },
        {
          "indexed": false,
          "internalType": "uint256",
          "name": "amount",
          "type": "uint256"
        }
      ],
      "name": "Approval",
      "type": "event"
    },
    {
      "anonymous": false,
      "inputs": [
        {
          "indexed": true,
          "internalType": "address",
          "name": "from",
          "type": "address"
        },
        {
          "indexed": true,
          "internalType": "address",
          "name": "to",
          "type": "address"
        },
        {
          "indexed": false,
          "internalType": "uint256",
          "name": "amount",
          "type": "uint256"
        }
      ],
      "name": "Transfer",
      "type": "event"
    },
    {
      "inputs": [
        {
          "internalType": "address",
          "name": "account",
          "type": "address"
        }
      ],
      "name": "balanceOf",
      "outputs": [
        {
          "internalType": "uint256",
          "name": "",
          "type": "uint256"
        }
      ],
      "stateMutability": "view",
      "type": "function"
    },
    {
      "inputs": [],
      "name": "decimal",
      "outputs": [
        {
          "internalType": "uint256",
          "name": "",
          "type": "uint256"
        }
      ],
      "stateMutability": "view",
      "type": "function"
    },
    {
      "inputs": [],
      "name": "name",
      "outputs": [
        {
          "internalType": "string",
          "name": "",
          "type": "string"
        }
      ],
      "stateMutability": "view",
      "type": "function"
    },
    {
      "inputs": [],
      "name": "owner",
      "outputs": [
        {
          "internalType": "address",
          "name": "",
          "type": "address"
        }
      ],
      "stateMutability": "view",
      "type": "function"
    },
    {
      "inputs": [],
      "name": "symbol",
      "outputs": [
        {
          "internalType": "string",
          "name": "",
          "type": "string"
        }
      ],
      "stateMutability": "view",
      "type": "function"
    },
    {
      "inputs": [],
      "name": "totalsupply",
      "outputs": [
        {
          "internalType": "uint256",
          "name": "",
          "type": "uint256"
        }
      ],
      "stateMutability": "view",
      "type": "function"
    },
    {
      "inputs": [
        {
          "internalType": "address",
          "name": "to",
          "type": "address"
        },
        {
          "internalType": "uint256",
          "name": "amount",
          "type": "uint256"
        }
      ],
      "name": "transfer",
      "outputs": [
        {
          "internalType": "bool",
          "name": "",
          "type": "bool"
        }
      ],
      "stateMutability": "nonpayable",
      "type": "function"
    },
    {
      "inputs": [
        {
          "internalType": "address",
          "name": "from",
          "type": "address"
        },
        {
          "internalType": "address",
          "name": "to",
          "type": "address"
        },
        {
          "internalType": "uint256",
          "name": "amount",
          "type": "uint256"
        }
      ],
      "name": "transferFrom",
      "outputs": [
        {
          "internalType": "bool",
          "name": "",
          "type": "bool"
        }
      ],
      "stateMutability": "nonpayable",
      "type": "function"
    }
  ],
  "bytecode": "0x60806040526040518060400160405280600a81526020017f526577617264444e4654000000000000000000000000000000000000000000008152506000908051906020019062000051929190620001ad565b506040518060400160405280600481526020017f52444e4600000000000000000000000000000000000000000000000000000000815250600190805190602001906200009f929190620001ad565b506012600255600254600a620000b69190620002fb565b6305f5e100620000c7919062000438565b600355348015620000d757600080fd5b5060405162001715380380620017158339818101604052810190620000fd919062000274565b80600460006101000a81548173ffffffffffffffffffffffffffffffffffffffff021916908373ffffffffffffffffffffffffffffffffffffffff16021790555060035460056000600460009054906101000a900473ffffffffffffffffffffffffffffffffffffffff1673ffffffffffffffffffffffffffffffffffffffff1673ffffffffffffffffffffffffffffffffffffffff168152602001908152602001600020819055505062000592565b828054620001bb90620004d7565b90600052602060002090601f016020900481019282620001df57600085556200022b565b82601f10620001fa57805160ff19168380011785556200022b565b828001600101855582156200022b579182015b828111156200022a5782518255916020019190600101906200020d565b5b5090506200023a91906200023e565b5090565b5b80821115620002595760008160009055506001016200023f565b5090565b6000815190506200026e8162000578565b92915050565b6000602082840312156200028757600080fd5b600062000297848285016200025d565b91505092915050565b6000808291508390505b6001851115620002f257808604811115620002ca57620002c96200050d565b5b6001851615620002da5780820291505b8081029050620002ea856200056b565b9450620002aa565b94509492505050565b60006200030882620004cd565b91506200031583620004cd565b9250620003447fffffffffffffffffffffffffffffffffffffffffffffffffffffffffffffffff84846200034c565b905092915050565b6000826200035e576001905062000431565b816200036e576000905062000431565b81600181146200038757600281146200039257620003c8565b600191505062000431565b60ff841115620003a757620003a66200050d565b5b8360020a915084821115620003c157620003c06200050d565b5b5062000431565b5060208310610133831016604e8410600b8410161715620004025782820a905083811115620003fc57620003fb6200050d565b5b62000431565b620004118484846001620002a0565b925090508184048111156200042b576200042a6200050d565b5b81810290505b9392505050565b60006200044582620004cd565b91506200045283620004cd565b9250817fffffffffffffffffffffffffffffffffffffffffffffffffffffffffffffffff04831182151516156200048e576200048d6200050d565b5b828202905092915050565b6000620004a682620004ad565b9050919050565b600073ffffffffffffffffffffffffffffffffffffffff82169050919050565b6000819050919050565b60006002820490506001821680620004f057607f821691505b602082108114156200050757620005066200053c565b5b50919050565b7f4e487b7100000000000000000000000000000000000000000000000000000000600052601160045260246000fd5b7f4e487b7100000000000000000000000000000000000000000000000000000000600052602260045260246000fd5b60008160011c9050919050565b620005838162000499565b81146200058f57600080fd5b50565b61117380620005a26000396000f3fe608060405234801561001057600080fd5b50600436106100885760003560e01c806376809ce31161005b57806376809ce3146101295780638da5cb5b1461014757806395d89b4114610165578063a9059cbb1461018357610088565b806306fdde031461008d57806323b872dd146100ab57806370a08231146100db57806372dd529b1461010b575b600080fd5b6100956101b3565b6040516100a29190610c07565b60405180910390f35b6100c560048036038101906100c091906109eb565b610241565b6040516100d29190610bec565b60405180910390f35b6100f560048036038101906100f091906109c2565b610612565b6040516101029190610d09565b60405180910390f35b6101136106ca565b6040516101209190610d09565b60405180910390f35b6101316106d0565b60405161013e9190610d09565b60405180910390f35b61014f6106d6565b60405161015c9190610bd1565b60405180910390f35b61016d6106fc565b60405161017a9190610c07565b60405180910390f35b61019d60048036038101906101989190610a3a565b61078a565b6040516101aa9190610bec565b60405180910390f35b600080546101c090610e45565b80601f01602080910402602001604051908101604052809291908181526020018280546101ec90610e45565b80156102395780601f1061020e57610100808354040283529160200191610239565b820191906000526020600020905b81548152906001019060200180831161021c57829003601f168201915b505050505081565b60008073ffffffffffffffffffffffffffffffffffffffff168473ffffffffffffffffffffffffffffffffffffffff1614156102b2576040517f08c379a00000000000000000000000000000000000000000000000000000000081526004016102a990610cc9565b60405180910390fd5b600073ffffffffffffffffffffffffffffffffffffffff168373ffffffffffffffffffffffffffffffffffffffff161415610322576040517f08c379a000000000000000000000000000000000000000000000000000000000815260040161031990610c69565b60405180910390fd5b81600560008673ffffffffffffffffffffffffffffffffffffffff1673ffffffffffffffffffffffffffffffffffffffff1681526020019081526020016000205410156103a4576040517f08c379a000000000000000000000000000000000000000000000000000000000815260040161039b90610c89565b60405180910390fd5b81600660008673ffffffffffffffffffffffffffffffffffffffff1673ffffffffffffffffffffffffffffffffffffffff16815260200190815260200160002060003373ffffffffffffffffffffffffffffffffffffffff1673ffffffffffffffffffffffffffffffffffffffff168152602001908152602001600020541115610463576040517f08c379a000000000000000000000000000000000000000000000000000000000815260040161045a90610c49565b60405180910390fd5b81600560008673ffffffffffffffffffffffffffffffffffffffff1673ffffffffffffffffffffffffffffffffffffffff16815260200190815260200160002060008282546104b29190610d96565b9250508190555081600660008673ffffffffffffffffffffffffffffffffffffffff1673ffffffffffffffffffffffffffffffffffffffff16815260200190815260200160002060003373ffffffffffffffffffffffffffffffffffffffff1673ffffffffffffffffffffffffffffffffffffffff16815260200190815260200160002060008282546105459190610d96565b9250508190555081600560008573ffffffffffffffffffffffffffffffffffffffff1673ffffffffffffffffffffffffffffffffffffffff168152602001908152602001600020600082825461059b9190610d40565b925050819055508273ffffffffffffffffffffffffffffffffffffffff168473ffffffffffffffffffffffffffffffffffffffff167fddf252ad1be2c89b69c2b068fc378daa952ba7f163c4a11628f55a4df523b3ef846040516105ff9190610d09565b60405180910390a3600190509392505050565b60008073ffffffffffffffffffffffffffffffffffffffff168273ffffffffffffffffffffffffffffffffffffffff161415610683576040517f08c379a000000000000000000000000000000000000000000000000000000000815260040161067a90610ca9565b60405180910390fd5b600560008373ffffffffffffffffffffffffffffffffffffffff1673ffffffffffffffffffffffffffffffffffffffff168152602001908152602001600020549050919050565b60035481565b60025481565b600460009054906101000a900473ffffffffffffffffffffffffffffffffffffffff1681565b6001805461070990610e45565b80601f016020809104026020016040519081016040528092919081815260200182805461073590610e45565b80156107825780601f1061075757610100808354040283529160200191610782565b820191906000526020600020905b81548152906001019060200180831161076557829003601f168201915b505050505081565b60008073ffffffffffffffffffffffffffffffffffffffff168373ffffffffffffffffffffffffffffffffffffffff1614156107fb576040517f08c379a00000000000000000000000000000000000000000000000000000000081526004016107f290610c29565b60405180910390fd5b81600560003373ffffffffffffffffffffffffffffffffffffffff1673ffffffffffffffffffffffffffffffffffffffff16815260200190815260200160002054101561087d576040517f08c379a000000000000000000000000000000000000000000000000000000000815260040161087490610ce9565b60405180910390fd5b81600560003373ffffffffffffffffffffffffffffffffffffffff1673ffffffffffffffffffffffffffffffffffffffff16815260200190815260200160002060008282546108cc9190610d96565b9250508190555081600560008573ffffffffffffffffffffffffffffffffffffffff1673ffffffffffffffffffffffffffffffffffffffff16815260200190815260200160002060008282546109229190610d40565b925050819055508273ffffffffffffffffffffffffffffffffffffffff163373ffffffffffffffffffffffffffffffffffffffff167fddf252ad1be2c89b69c2b068fc378daa952ba7f163c4a11628f55a4df523b3ef846040516109869190610d09565b60405180910390a36001905092915050565b6000813590506109a78161110f565b92915050565b6000813590506109bc81611126565b92915050565b6000602082840312156109d457600080fd5b60006109e284828501610998565b91505092915050565b600080600060608486031215610a0057600080fd5b6000610a0e86828701610998565b9350506020610a1f86828701610998565b9250506040610a30868287016109ad565b9150509250925092565b60008060408385031215610a4d57600080fd5b6000610a5b85828601610998565b9250506020610a6c858286016109ad565b9150509250929050565b610a7f81610dca565b82525050565b610a8e81610ddc565b82525050565b6000610a9f82610d24565b610aa98185610d2f565b9350610ab9818560208601610e12565b610ac281610ed5565b840191505092915050565b6000610ada602f83610d2f565b9150610ae582610ee6565b604082019050919050565b6000610afd602d83610d2f565b9150610b0882610f35565b604082019050919050565b6000610b20602b83610d2f565b9150610b2b82610f84565b604082019050919050565b6000610b43602583610d2f565b9150610b4e82610fd3565b604082019050919050565b6000610b66602683610d2f565b9150610b7182611022565b604082019050919050565b6000610b89602783610d2f565b9150610b9482611071565b604082019050919050565b6000610bac602b83610d2f565b9150610bb7826110c0565b604082019050919050565b610bcb81610e08565b82525050565b6000602082019050610be66000830184610a76565b92915050565b6000602082019050610c016000830184610a85565b92915050565b60006020820190508181036000830152610c218184610a94565b905092915050565b60006020820190508181036000830152610c4281610acd565b9050919050565b60006020820190508181036000830152610c6281610af0565b9050919050565b60006020820190508181036000830152610c8281610b13565b9050919050565b60006020820190508181036000830152610ca281610b36565b9050919050565b60006020820190508181036000830152610cc281610b59565b9050919050565b60006020820190508181036000830152610ce281610b7c565b9050919050565b60006020820190508181036000830152610d0281610b9f565b9050919050565b6000602082019050610d1e6000830184610bc2565b92915050565b600081519050919050565b600082825260208201905092915050565b6000610d4b82610e08565b9150610d5683610e08565b9250827fffffffffffffffffffffffffffffffffffffffffffffffffffffffffffffffff03821115610d8b57610d8a610e77565b5b828201905092915050565b6000610da182610e08565b9150610dac83610e08565b925082821015610dbf57610dbe610e77565b5b828203905092915050565b6000610dd582610de8565b9050919050565b60008115159050919050565b600073ffffffffffffffffffffffffffffffffffffffff82169050919050565b6000819050919050565b60005b83811015610e30578082015181840152602081019050610e15565b83811115610e3f576000848401525b50505050565b60006002820490506001821680610e5d57607f821691505b60208210811415610e7157610e70610ea6565b5b50919050565b7f4e487b7100000000000000000000000000000000000000000000000000000000600052601160045260246000fd5b7f4e487b7100000000000000000000000000000000000000000000000000000000600052602260045260246000fd5b6000601f19601f8301169050919050565b7f596f75206d616b65207472616e73616374696f6e2077697468206e6f7420657860008201527f697374616e6365206163636f756e740000000000000000000000000000000000602082015250565b7f4e6f74206861766520617070726f76616c20666f72207468697320616d6f756e60008201527f74207472616e73616374696f6e00000000000000000000000000000000000000602082015250565b7f596f75206d616b65207472616e73616374696f6e2077697468206e6f7420657860008201527f697374206163636f756e74000000000000000000000000000000000000000000602082015250565b7f4e6f742073756666696369656e7420616d6f756e7420666f72207472616e736160008201527f6374696f6e000000000000000000000000000000000000000000000000000000602082015250565b7f596f7520736561726368656420666f7220656d707479206163636f756e74206260008201527f616c616e63650000000000000000000000000000000000000000000000000000602082015250565b7f506c656173652070726f766964652070726f7065722061646472657373206f6660008201527f2073656e64657200000000000000000000000000000000000000000000000000602082015250565b7f596f7520646f6e7420686176652073756666696369656e7420616d6f756e742060008201527f746f207472616e73666572000000000000000000000000000000000000000000602082015250565b61111881610dca565b811461112357600080fd5b50565b61112f81610e08565b811461113a57600080fd5b5056fea26469706673582212205d46916b96aa07e17dde0ef83c5ed1b5608d21b4ebbcbb4e7318fbbee5070c6364736f6c63430008040033",
  "linkReferences": {},
  "deployedLinkReferences": {}
}