{
  "_format": "hh-sol-artifact-1",
  "contractName": "MarketPlace",
  "sourceName": "contracts/MarketPlace.sol",
  "abi": [
    {
      "inputs": [],
      "stateMutability": "nonpayable",
      "type": "constructor"
    },
    {
      "inputs": [
        {
          "internalType": "address",
          "name": "_collection",
          "type": "address"
        },
        {
          "internalType": "address",
          "name": "_creator",
          "type": "address"
        }
      ],
      "name": "addCollection",
      "outputs": [],
      "stateMutability": "nonpayable",
      "type": "function"
    },
    {
      "inputs": [],
      "name": "admin",
      "outputs": [
        {
          "internalType": "address",
          "name": "",
          "type": "address"
        }
      ],
      "stateMutability": "view",
      "type": "function"
    },
    {
      "inputs": [
        {
          "internalType": "address",
          "name": "_collection",
          "type": "address"
        },
        {
          "internalType": "uint256",
          "name": "_tokenId",
          "type": "uint256"
        }
      ],
      "name": "buyTokenUsingETH",
      "outputs": [],
      "stateMutability": "payable",
      "type": "function"
    },
    {
      "inputs": [
        {
          "internalType": "address",
          "name": "_collection",
          "type": "address"
        },
        {
          "internalType": "uint256",
          "name": "_tokenId",
          "type": "uint256"
        }
      ],
      "name": "cancelAskOrder",
      "outputs": [],
      "stateMutability": "nonpayable",
      "type": "function"
    },
    {
      "inputs": [
        {
          "internalType": "address",
          "name": "_collection",
          "type": "address"
        }
      ],
      "name": "closeCollectionForTradingAndListing",
      "outputs": [],
      "stateMutability": "nonpayable",
      "type": "function"
    },
    {
      "inputs": [
        {
          "internalType": "address",
          "name": "_collection",
          "type": "address"
        },
        {
          "internalType": "uint256",
          "name": "_tokenId",
          "type": "uint256"
        },
        {
          "internalType": "uint256",
          "name": "_askPrice",
          "type": "uint256"
        }
      ],
      "name": "createAskOrder",
      "outputs": [],
      "stateMutability": "nonpayable",
      "type": "function"
    },
    {
      "inputs": [
        {
          "internalType": "address",
          "name": "_collection",
          "type": "address"
        },
        {
          "internalType": "uint256",
          "name": "_tokenId",
          "type": "uint256"
        },
        {
          "internalType": "uint256",
          "name": "_newPrice",
          "type": "uint256"
        }
      ],
      "name": "modifyAskOrder",
      "outputs": [],
      "stateMutability": "nonpayable",
      "type": "function"
    },
    {
      "inputs": [
        {
          "internalType": "address",
          "name": "_collection",
          "type": "address"
        },
        {
          "internalType": "address",
          "name": "_creator",
          "type": "address"
        }
      ],
      "name": "modifyCollection",
      "outputs": [],
      "stateMutability": "nonpayable",
      "type": "function"
    },
    {
      "inputs": [
        {
          "internalType": "address",
          "name": "collection",
          "type": "address"
        },
        {
          "internalType": "uint256",
          "name": "cursor",
          "type": "uint256"
        },
        {
          "internalType": "uint256",
          "name": "size",
          "type": "uint256"
        }
      ],
      "name": "viewAsksByCollection",
      "outputs": [
        {
          "internalType": "uint256[]",
          "name": "tokenIds",
          "type": "uint256[]"
        },
        {
          "components": [
            {
              "internalType": "address",
              "name": "seller",
              "type": "address"
            },
            {
              "internalType": "uint256",
              "name": "price",
              "type": "uint256"
            }
          ],
          "internalType": "struct MarketPlace.Ask[]",
          "name": "askInfo",
          "type": "tuple[]"
        },
        {
          "internalType": "uint256",
          "name": "",
          "type": "uint256"
        }
      ],
      "stateMutability": "view",
      "type": "function"
    },
    {
      "inputs": [
        {
          "internalType": "address",
          "name": "collection",
          "type": "address"
        },
        {
          "internalType": "address",
          "name": "seller",
          "type": "address"
        },
        {
          "internalType": "uint256",
          "name": "cursor",
          "type": "uint256"
        },
        {
          "internalType": "uint256",
          "name": "size",
          "type": "uint256"
        }
      ],
      "name": "viewAsksByCollectionAndSeller",
      "outputs": [
        {
          "internalType": "uint256[]",
          "name": "tokenIds",
          "type": "uint256[]"
        },
        {
          "components": [
            {
              "internalType": "address",
              "name": "seller",
              "type": "address"
            },
            {
              "internalType": "uint256",
              "name": "price",
              "type": "uint256"
            }
          ],
          "internalType": "struct MarketPlace.Ask[]",
          "name": "askInfo",
          "type": "tuple[]"
        },
        {
          "internalType": "uint256",
          "name": "",
          "type": "uint256"
        }
      ],
      "stateMutability": "view",
      "type": "function"
    },
    {
      "inputs": [
        {
          "internalType": "address",
          "name": "collection",
          "type": "address"
        },
        {
          "internalType": "uint256[]",
          "name": "tokenIds",
          "type": "uint256[]"
        }
      ],
      "name": "viewAsksByCollectionAndTokenIds",
      "outputs": [
        {
          "internalType": "bool[]",
          "name": "statuses",
          "type": "bool[]"
        },
        {
          "components": [
            {
              "internalType": "address",
              "name": "seller",
              "type": "address"
            },
            {
              "internalType": "uint256",
              "name": "price",
              "type": "uint256"
            }
          ],
          "internalType": "struct MarketPlace.Ask[]",
          "name": "askInfo",
          "type": "tuple[]"
        }
      ],
      "stateMutability": "view",
      "type": "function"
    },
    {
      "inputs": [
        {
          "internalType": "uint256",
          "name": "cursor",
          "type": "uint256"
        },
        {
          "internalType": "uint256",
          "name": "size",
          "type": "uint256"
        }
      ],
      "name": "viewCollections",
      "outputs": [
        {
          "internalType": "address[]",
          "name": "collectionAddresses",
          "type": "address[]"
        },
        {
          "components": [
            {
              "internalType": "enum MarketPlace.Status",
              "name": "status",
              "type": "uint8"
            },
            {
              "internalType": "address",
              "name": "creatorAddress",
              "type": "address"
            }
          ],
          "internalType": "struct MarketPlace.Collection[]",
          "name": "collectionDetails",
          "type": "tuple[]"
        },
        {
          "internalType": "uint256",
          "name": "",
          "type": "uint256"
        }
      ],
      "stateMutability": "view",
      "type": "function"
    }
  ],
  "bytecode": "0x608060405234801561001057600080fd5b50600160008190555033600160006101000a81548173ffffffffffffffffffffffffffffffffffffffff021916908373ffffffffffffffffffffffffffffffffffffffff1602179055506136a6806100696000396000f3fe6080604052600436106100a75760003560e01c806395f420981161006457806395f42098146101d65780639b2adcdc146101ff578063d286ef7414610228578063daa7716a14610267578063ddf9ba6f14610290578063f851a440146102b9576100a7565b806321506a18146100ac57806322f67b6d146100c857806351c383ea14610106578063803b64a11461014557806384a408641461016e578063909b8a37146101ad575b600080fd5b6100c660048036038101906100c19190612a4a565b6102e4565b005b3480156100d457600080fd5b506100ef60048036038101906100ea91906129f2565b610303565b6040516100fd92919061300c565b60405180910390f35b34801561011257600080fd5b5061012d60048036038101906101289190612ad5565b610696565b60405161013c93929190612fc7565b60405180910390f35b34801561015157600080fd5b5061016c60048036038101906101679190612a86565b610a38565b005b34801561017a57600080fd5b5061019560048036038101906101909190612a86565b610c6c565b6040516101a493929190613043565b60405180910390f35b3480156101b957600080fd5b506101d460048036038101906101cf9190612953565b61102d565b005b3480156101e257600080fd5b506101fd60048036038101906101f89190612a4a565b61126d565b005b34801561020b57600080fd5b5061022660048036038101906102219190612a86565b611520565b005b34801561023457600080fd5b5061024f600480360381019061024a919061298f565b61175c565b60405161025e93929190613043565b60405180910390f35b34801561027357600080fd5b5061028e60048036038101906102899190612953565b611bd5565b005b34801561029c57600080fd5b506102b760048036038101906102b2919061292a565b611dff565b005b3480156102c557600080fd5b506102ce611f8b565b6040516102db9190612f75565b60405180910390f35b6102ec611fb1565b6102f7828234612001565b6102ff61245d565b5050565b60608060008484905090508067ffffffffffffffff81111561034e577f4e487b7100000000000000000000000000000000000000000000000000000000600052604160045260246000fd5b60405190808252806020026020018201604052801561037c5781602001602082028036833780820191505090505b5092508067ffffffffffffffff8111156103bf577f4e487b7100000000000000000000000000000000000000000000000000000000600052604160045260246000fd5b6040519080825280602002602001820160405280156103f857816020015b6103e561281e565b8152602001906001900390816103dd5790505b50915060005b8181101561068c57610496868683818110610442577f4e487b7100000000000000000000000000000000000000000000000000000000600052603260045260246000fd5b90506020020135600560008a73ffffffffffffffffffffffffffffffffffffffff1673ffffffffffffffffffffffffffffffffffffffff16815260200190815260200160002061246790919063ffffffff16565b156104ed5760018482815181106104d6577f4e487b7100000000000000000000000000000000000000000000000000000000600052603260045260246000fd5b60200260200101901515908115158152505061053b565b6000848281518110610528577f4e487b7100000000000000000000000000000000000000000000000000000000600052603260045260246000fd5b6020026020010190151590811515815250505b600460008873ffffffffffffffffffffffffffffffffffffffff1673ffffffffffffffffffffffffffffffffffffffff16815260200190815260200160002060008787848181106105b5577f4e487b7100000000000000000000000000000000000000000000000000000000600052603260045260246000fd5b9050602002013581526020019081526020016000206040518060400160405290816000820160009054906101000a900473ffffffffffffffffffffffffffffffffffffffff1673ffffffffffffffffffffffffffffffffffffffff1673ffffffffffffffffffffffffffffffffffffffff16815260200160018201548152505083828151811061066e577f4e487b7100000000000000000000000000000000000000000000000000000000600052603260045260246000fd5b60200260200101819052508080610684906133ed565b9150506103fe565b5050935093915050565b606080600080849050856106aa6002612481565b6106b4919061334c565b8111156106d357856106c66002612481565b6106d0919061334c565b90505b8067ffffffffffffffff811115610713577f4e487b7100000000000000000000000000000000000000000000000000000000600052604160045260246000fd5b6040519080825280602002602001820160405280156107415781602001602082028036833780820191505090505b5093508067ffffffffffffffff811115610784577f4e487b7100000000000000000000000000000000000000000000000000000000600052604160045260246000fd5b6040519080825280602002602001820160405280156107bd57816020015b6107aa61284e565b8152602001906001900390816107a25790505b50925060005b81811015610a1b576107ea81886107da91906132f6565b600261249690919063ffffffff16565b858281518110610823577f4e487b7100000000000000000000000000000000000000000000000000000000600052603260045260246000fd5b602002602001019073ffffffffffffffffffffffffffffffffffffffff16908173ffffffffffffffffffffffffffffffffffffffff16815250506006600086838151811061089a577f4e487b7100000000000000000000000000000000000000000000000000000000600052603260045260246000fd5b602002602001015173ffffffffffffffffffffffffffffffffffffffff1673ffffffffffffffffffffffffffffffffffffffff1681526020019081526020016000206040518060400160405290816000820160009054906101000a900460ff166002811115610932577f4e487b7100000000000000000000000000000000000000000000000000000000600052602160045260246000fd5b600281111561096a577f4e487b7100000000000000000000000000000000000000000000000000000000600052602160045260246000fd5b81526020016000820160019054906101000a900473ffffffffffffffffffffffffffffffffffffffff1673ffffffffffffffffffffffffffffffffffffffff1673ffffffffffffffffffffffffffffffffffffffff16815250508482815181106109fd577f4e487b7100000000000000000000000000000000000000000000000000000000600052603260045260246000fd5b60200260200101819052508080610a13906133ed565b9150506107c3565b5083838288610a2a91906132f6565b935093509350509250925092565b610a40611fb1565b8273ffffffffffffffffffffffffffffffffffffffff166323b872dd3330856040518463ffffffff1660e01b8152600401610a7d93929190612f90565b600060405180830381600087803b158015610a9757600080fd5b505af1158015610aab573d6000803e3d6000fd5b50505050610b3d82600760003373ffffffffffffffffffffffffffffffffffffffff1673ffffffffffffffffffffffffffffffffffffffff16815260200190815260200160002060008673ffffffffffffffffffffffffffffffffffffffff1673ffffffffffffffffffffffffffffffffffffffff1681526020019081526020016000206124b090919063ffffffff16565b5060405180604001604052803373ffffffffffffffffffffffffffffffffffffffff16815260200182815250600460008573ffffffffffffffffffffffffffffffffffffffff1673ffffffffffffffffffffffffffffffffffffffff168152602001908152602001600020600084815260200190815260200160002060008201518160000160006101000a81548173ffffffffffffffffffffffffffffffffffffffff021916908373ffffffffffffffffffffffffffffffffffffffff16021790555060208201518160010155905050610c5e82600560008673ffffffffffffffffffffffffffffffffffffffff1673ffffffffffffffffffffffffffffffffffffffff1681526020019081526020016000206124b090919063ffffffff16565b50610c6761245d565b505050565b60608060008084905085610cbd600560008a73ffffffffffffffffffffffffffffffffffffffff1673ffffffffffffffffffffffffffffffffffffffff1681526020019081526020016000206124ca565b610cc7919061334c565b811115610d235785610d16600560008a73ffffffffffffffffffffffffffffffffffffffff1673ffffffffffffffffffffffffffffffffffffffff1681526020019081526020016000206124ca565b610d20919061334c565b90505b8067ffffffffffffffff811115610d63577f4e487b7100000000000000000000000000000000000000000000000000000000600052604160045260246000fd5b604051908082528060200260200182016040528015610d915781602001602082028036833780820191505090505b5093508067ffffffffffffffff811115610dd4577f4e487b7100000000000000000000000000000000000000000000000000000000600052604160045260246000fd5b604051908082528060200260200182016040528015610e0d57816020015b610dfa61281e565b815260200190600190039081610df25790505b50925060005b8181101561100e57610e778188610e2a91906132f6565b600560008b73ffffffffffffffffffffffffffffffffffffffff1673ffffffffffffffffffffffffffffffffffffffff1681526020019081526020016000206124df90919063ffffffff16565b858281518110610eb0577f4e487b7100000000000000000000000000000000000000000000000000000000600052603260045260246000fd5b602002602001018181525050600460008973ffffffffffffffffffffffffffffffffffffffff1673ffffffffffffffffffffffffffffffffffffffff1681526020019081526020016000206000868381518110610f36577f4e487b7100000000000000000000000000000000000000000000000000000000600052603260045260246000fd5b602002602001015181526020019081526020016000206040518060400160405290816000820160009054906101000a900473ffffffffffffffffffffffffffffffffffffffff1673ffffffffffffffffffffffffffffffffffffffff1673ffffffffffffffffffffffffffffffffffffffff168152602001600182015481525050848281518110610ff0577f4e487b7100000000000000000000000000000000000000000000000000000000600052603260045260246000fd5b60200260200101819052508080611006906133ed565b915050610e13565b508383828861101d91906132f6565b9350935093505093509350939050565b600160009054906101000a900473ffffffffffffffffffffffffffffffffffffffff1673ffffffffffffffffffffffffffffffffffffffff163373ffffffffffffffffffffffffffffffffffffffff16146110bd576040517f08c379a00000000000000000000000000000000000000000000000000000000081526004016110b4906130e8565b60405180910390fd5b6110d18260026124f990919063ffffffff16565b15611111576040517f08c379a0000000000000000000000000000000000000000000000000000000008152600401611108906130a8565b60405180910390fd5b61112582600261252990919063ffffffff16565b5060405180604001604052806001600281111561116b577f4e487b7100000000000000000000000000000000000000000000000000000000600052602160045260246000fd5b81526020018273ffffffffffffffffffffffffffffffffffffffff16815250600660008473ffffffffffffffffffffffffffffffffffffffff1673ffffffffffffffffffffffffffffffffffffffff16815260200190815260200160002060008201518160000160006101000a81548160ff0219169083600281111561121a577f4e487b7100000000000000000000000000000000000000000000000000000000600052602160045260246000fd5b021790555060208201518160000160016101000a81548173ffffffffffffffffffffffffffffffffffffffff021916908373ffffffffffffffffffffffffffffffffffffffff1602179055509050505050565b611275611fb1565b61130381600760003373ffffffffffffffffffffffffffffffffffffffff1673ffffffffffffffffffffffffffffffffffffffff16815260200190815260200160002060008573ffffffffffffffffffffffffffffffffffffffff1673ffffffffffffffffffffffffffffffffffffffff16815260200190815260200160002061246790919063ffffffff16565b611342576040517f08c379a000000000000000000000000000000000000000000000000000000000815260040161133990613108565b60405180910390fd5b6113d081600760003373ffffffffffffffffffffffffffffffffffffffff1673ffffffffffffffffffffffffffffffffffffffff16815260200190815260200160002060008573ffffffffffffffffffffffffffffffffffffffff1673ffffffffffffffffffffffffffffffffffffffff16815260200190815260200160002061255990919063ffffffff16565b50600460008373ffffffffffffffffffffffffffffffffffffffff1673ffffffffffffffffffffffffffffffffffffffff1681526020019081526020016000206000828152602001908152602001600020600080820160006101000a81549073ffffffffffffffffffffffffffffffffffffffff0219169055600182016000905550506114a481600560008573ffffffffffffffffffffffffffffffffffffffff1673ffffffffffffffffffffffffffffffffffffffff16815260200190815260200160002061255990919063ffffffff16565b508173ffffffffffffffffffffffffffffffffffffffff166323b872dd3033846040518463ffffffff1660e01b81526004016114e293929190612f90565b600060405180830381600087803b1580156114fc57600080fd5b505af1158015611510573d6000803e3d6000fd5b5050505061151c61245d565b5050565b611528611fb1565b60016002811115611562577f4e487b7100000000000000000000000000000000000000000000000000000000600052602160045260246000fd5b600660008573ffffffffffffffffffffffffffffffffffffffff1673ffffffffffffffffffffffffffffffffffffffff16815260200190815260200160002060000160009054906101000a900460ff1660028111156115ea577f4e487b7100000000000000000000000000000000000000000000000000000000600052602160045260246000fd5b1461162a576040517f08c379a000000000000000000000000000000000000000000000000000000000815260040161162190613148565b60405180910390fd5b6116b882600760003373ffffffffffffffffffffffffffffffffffffffff1673ffffffffffffffffffffffffffffffffffffffff16815260200190815260200160002060008673ffffffffffffffffffffffffffffffffffffffff1673ffffffffffffffffffffffffffffffffffffffff16815260200190815260200160002061246790919063ffffffff16565b6116f7576040517f08c379a00000000000000000000000000000000000000000000000000000000081526004016116ee90613108565b60405180910390fd5b80600460008573ffffffffffffffffffffffffffffffffffffffff1673ffffffffffffffffffffffffffffffffffffffff16815260200190815260200160002060008481526020019081526020016000206001018190555061175761245d565b505050565b606080600080849050856117ea600760008a73ffffffffffffffffffffffffffffffffffffffff1673ffffffffffffffffffffffffffffffffffffffff16815260200190815260200160002060008b73ffffffffffffffffffffffffffffffffffffffff1673ffffffffffffffffffffffffffffffffffffffff1681526020019081526020016000206124ca565b6117f4919061334c565b81111561188d5785611880600760008a73ffffffffffffffffffffffffffffffffffffffff1673ffffffffffffffffffffffffffffffffffffffff16815260200190815260200160002060008b73ffffffffffffffffffffffffffffffffffffffff1673ffffffffffffffffffffffffffffffffffffffff1681526020019081526020016000206124ca565b61188a919061334c565b90505b8067ffffffffffffffff8111156118cd577f4e487b7100000000000000000000000000000000000000000000000000000000600052604160045260246000fd5b6040519080825280602002602001820160405280156118fb5781602001602082028036833780820191505090505b5093508067ffffffffffffffff81111561193e577f4e487b7100000000000000000000000000000000000000000000000000000000600052604160045260246000fd5b60405190808252806020026020018201604052801561197757816020015b61196461281e565b81526020019060019003908161195c5790505b50925060005b81811015611bb557611a1e818861199491906132f6565b600760008b73ffffffffffffffffffffffffffffffffffffffff1673ffffffffffffffffffffffffffffffffffffffff16815260200190815260200160002060008c73ffffffffffffffffffffffffffffffffffffffff1673ffffffffffffffffffffffffffffffffffffffff1681526020019081526020016000206124df90919063ffffffff16565b858281518110611a57577f4e487b7100000000000000000000000000000000000000000000000000000000600052603260045260246000fd5b602002602001018181525050600460008a73ffffffffffffffffffffffffffffffffffffffff1673ffffffffffffffffffffffffffffffffffffffff1681526020019081526020016000206000868381518110611add577f4e487b7100000000000000000000000000000000000000000000000000000000600052603260045260246000fd5b602002602001015181526020019081526020016000206040518060400160405290816000820160009054906101000a900473ffffffffffffffffffffffffffffffffffffffff1673ffffffffffffffffffffffffffffffffffffffff1673ffffffffffffffffffffffffffffffffffffffff168152602001600182015481525050848281518110611b97577f4e487b7100000000000000000000000000000000000000000000000000000000600052603260045260246000fd5b60200260200101819052508080611bad906133ed565b91505061197d565b5083838288611bc491906132f6565b935093509350509450945094915050565b600160009054906101000a900473ffffffffffffffffffffffffffffffffffffffff1673ffffffffffffffffffffffffffffffffffffffff163373ffffffffffffffffffffffffffffffffffffffff1614611c65576040517f08c379a0000000000000000000000000000000000000000000000000000000008152600401611c5c906130e8565b60405180910390fd5b611c798260026124f990919063ffffffff16565b611cb8576040517f08c379a0000000000000000000000000000000000000000000000000000000008152600401611caf90613128565b60405180910390fd5b604051806040016040528060016002811115611cfd577f4e487b7100000000000000000000000000000000000000000000000000000000600052602160045260246000fd5b81526020018273ffffffffffffffffffffffffffffffffffffffff16815250600660008473ffffffffffffffffffffffffffffffffffffffff1673ffffffffffffffffffffffffffffffffffffffff16815260200190815260200160002060008201518160000160006101000a81548160ff02191690836002811115611dac577f4e487b7100000000000000000000000000000000000000000000000000000000600052602160045260246000fd5b021790555060208201518160000160016101000a81548173ffffffffffffffffffffffffffffffffffffffff021916908373ffffffffffffffffffffffffffffffffffffffff1602179055509050505050565b600160009054906101000a900473ffffffffffffffffffffffffffffffffffffffff1673ffffffffffffffffffffffffffffffffffffffff163373ffffffffffffffffffffffffffffffffffffffff1614611e8f576040517f08c379a0000000000000000000000000000000000000000000000000000000008152600401611e86906130e8565b60405180910390fd5b611ea38160026124f990919063ffffffff16565b611ee2576040517f08c379a0000000000000000000000000000000000000000000000000000000008152600401611ed990613128565b60405180910390fd5b6002600660008373ffffffffffffffffffffffffffffffffffffffff1673ffffffffffffffffffffffffffffffffffffffff16815260200190815260200160002060000160006101000a81548160ff02191690836002811115611f6e577f4e487b7100000000000000000000000000000000000000000000000000000000600052602160045260246000fd5b0217905550611f8781600261257390919063ffffffff16565b5050565b600160009054906101000a900473ffffffffffffffffffffffffffffffffffffffff1681565b60026000541415611ff7576040517f08c379a0000000000000000000000000000000000000000000000000000000008152600401611fee906131a8565b60405180910390fd5b6002600081905550565b61205282600560008673ffffffffffffffffffffffffffffffffffffffff1673ffffffffffffffffffffffffffffffffffffffff16815260200190815260200160002061246790919063ffffffff16565b612091576040517f08c379a000000000000000000000000000000000000000000000000000000000815260040161208890613168565b60405180910390fd5b6000600460008573ffffffffffffffffffffffffffffffffffffffff1673ffffffffffffffffffffffffffffffffffffffff16815260200190815260200160002060008481526020019081526020016000206040518060400160405290816000820160009054906101000a900473ffffffffffffffffffffffffffffffffffffffff1673ffffffffffffffffffffffffffffffffffffffff1673ffffffffffffffffffffffffffffffffffffffff168152602001600182015481525050905080602001518214612196576040517f08c379a000000000000000000000000000000000000000000000000000000000815260040161218d906130c8565b60405180910390fd5b806000015173ffffffffffffffffffffffffffffffffffffffff163373ffffffffffffffffffffffffffffffffffffffff161415612209576040517f08c379a000000000000000000000000000000000000000000000000000000000815260040161220090613088565b60405180910390fd5b61229b8360076000846000015173ffffffffffffffffffffffffffffffffffffffff1673ffffffffffffffffffffffffffffffffffffffff16815260200190815260200160002060008773ffffffffffffffffffffffffffffffffffffffff1673ffffffffffffffffffffffffffffffffffffffff16815260200190815260200160002061255990919063ffffffff16565b50600460008573ffffffffffffffffffffffffffffffffffffffff1673ffffffffffffffffffffffffffffffffffffffff1681526020019081526020016000206000848152602001908152602001600020600080820160006101000a81549073ffffffffffffffffffffffffffffffffffffffff02191690556001820160009055505061236f83600560008773ffffffffffffffffffffffffffffffffffffffff1673ffffffffffffffffffffffffffffffffffffffff16815260200190815260200160002061255990919063ffffffff16565b50806000015173ffffffffffffffffffffffffffffffffffffffff166108fc839081150290604051600060405180830381858888f193505050506123e8576040517f08c379a00000000000000000000000000000000000000000000000000000000081526004016123df90613188565b60405180910390fd5b8373ffffffffffffffffffffffffffffffffffffffff166342842e0e3033866040518463ffffffff1660e01b815260040161242593929190612f90565b600060405180830381600087803b15801561243f57600080fd5b505af1158015612453573d6000803e3d6000fd5b5050505050505050565b6001600081905550565b6000612479836000018360001b6125a3565b905092915050565b600061248f826000016125c6565b9050919050565b60006124a583600001836125d7565b60001c905092915050565b60006124c2836000018360001b612628565b905092915050565b60006124d8826000016125c6565b9050919050565b60006124ee83600001836125d7565b60001c905092915050565b6000612521836000018373ffffffffffffffffffffffffffffffffffffffff1660001b6125a3565b905092915050565b6000612551836000018373ffffffffffffffffffffffffffffffffffffffff1660001b612628565b905092915050565b600061256b836000018360001b612698565b905092915050565b600061259b836000018373ffffffffffffffffffffffffffffffffffffffff1660001b612698565b905092915050565b600080836001016000848152602001908152602001600020541415905092915050565b600081600001805490509050919050565b6000826000018281548110612615577f4e487b7100000000000000000000000000000000000000000000000000000000600052603260045260246000fd5b9060005260206000200154905092915050565b600061263483836125a3565b61268d578260000182908060018154018082558091505060019003906000526020600020016000909190919091505582600001805490508360010160008481526020019081526020016000208190555060019050612692565b600090505b92915050565b600080836001016000848152602001908152602001600020549050600081146128125760006001826126ca919061334c565b90506000600186600001805490506126e2919061334c565b905081811461279d576000866000018281548110612729577f4e487b7100000000000000000000000000000000000000000000000000000000600052603260045260246000fd5b9060005260206000200154905080876000018481548110612773577f4e487b7100000000000000000000000000000000000000000000000000000000600052603260045260246000fd5b90600052602060002001819055508387600101600083815260200190815260200160002081905550505b856000018054806127d7577f4e487b7100000000000000000000000000000000000000000000000000000000600052603160045260246000fd5b600190038181906000526020600020016000905590558560010160008681526020019081526020016000206000905560019350505050612818565b60009150505b92915050565b6040518060400160405280600073ffffffffffffffffffffffffffffffffffffffff168152602001600081525090565b604051806040016040528060006002811115612893577f4e487b7100000000000000000000000000000000000000000000000000000000600052602160045260246000fd5b8152602001600073ffffffffffffffffffffffffffffffffffffffff1681525090565b6000813590506128c581613642565b92915050565b60008083601f8401126128dd57600080fd5b8235905067ffffffffffffffff8111156128f657600080fd5b60208301915083602082028301111561290e57600080fd5b9250929050565b60008135905061292481613659565b92915050565b60006020828403121561293c57600080fd5b600061294a848285016128b6565b91505092915050565b6000806040838503121561296657600080fd5b6000612974858286016128b6565b9250506020612985858286016128b6565b9150509250929050565b600080600080608085870312156129a557600080fd5b60006129b3878288016128b6565b94505060206129c4878288016128b6565b93505060406129d587828801612915565b92505060606129e687828801612915565b91505092959194509250565b600080600060408486031215612a0757600080fd5b6000612a15868287016128b6565b935050602084013567ffffffffffffffff811115612a3257600080fd5b612a3e868287016128cb565b92509250509250925092565b60008060408385031215612a5d57600080fd5b6000612a6b858286016128b6565b9250506020612a7c85828601612915565b9150509250929050565b600080600060608486031215612a9b57600080fd5b6000612aa9868287016128b6565b9350506020612aba86828701612915565b9250506040612acb86828701612915565b9150509250925092565b60008060408385031215612ae857600080fd5b6000612af685828601612915565b9250506020612b0785828601612915565b9150509250929050565b6000612b1d8383612b89565b60208301905092915050565b6000612b358383612d7d565b60208301905092915050565b6000612b4d8383612ef9565b60408301905092915050565b6000612b658383612f28565b60408301905092915050565b6000612b7d8383612f57565b60208301905092915050565b612b9281613380565b82525050565b612ba181613380565b82525050565b6000612bb282613218565b612bbc8185613290565b9350612bc7836131c8565b8060005b83811015612bf8578151612bdf8882612b11565b9750612bea8361324f565b925050600181019050612bcb565b5085935050505092915050565b6000612c1082613223565b612c1a81856132a1565b9350612c25836131d8565b8060005b83811015612c56578151612c3d8882612b29565b9750612c488361325c565b925050600181019050612c29565b5085935050505092915050565b6000612c6e8261322e565b612c7881856132b2565b9350612c83836131e8565b8060005b83811015612cb4578151612c9b8882612b41565b9750612ca683613269565b925050600181019050612c87565b5085935050505092915050565b6000612ccc82613239565b612cd681856132c3565b9350612ce1836131f8565b8060005b83811015612d12578151612cf98882612b59565b9750612d0483613276565b925050600181019050612ce5565b5085935050505092915050565b6000612d2a82613244565b612d3481856132d4565b9350612d3f83613208565b8060005b83811015612d70578151612d578882612b71565b9750612d6283613283565b925050600181019050612d43565b5085935050505092915050565b612d8681613392565b82525050565b612d95816133db565b82525050565b6000612da86016836132e5565b9150612db382613494565b602082019050919050565b6000612dcb6019836132e5565b9150612dd6826134bd565b602082019050919050565b6000612dee600f836132e5565b9150612df9826134e6565b602082019050919050565b6000612e11600a836132e5565b9150612e1c8261350f565b602082019050919050565b6000612e346013836132e5565b9150612e3f82613538565b602082019050919050565b6000612e576018836132e5565b9150612e6282613561565b602082019050919050565b6000612e7a601d836132e5565b9150612e858261358a565b602082019050919050565b6000612e9d6015836132e5565b9150612ea8826135b3565b602082019050919050565b6000612ec0600f836132e5565b9150612ecb826135dc565b602082019050919050565b6000612ee3601f836132e5565b9150612eee82613605565b602082019050919050565b604082016000820151612f0f6000850182612b89565b506020820151612f226020850182612f57565b50505050565b604082016000820151612f3e6000850182612d8c565b506020820151612f516020850182612b89565b50505050565b612f60816133d1565b82525050565b612f6f816133d1565b82525050565b6000602082019050612f8a6000830184612b98565b92915050565b6000606082019050612fa56000830186612b98565b612fb26020830185612b98565b612fbf6040830184612f66565b949350505050565b60006060820190508181036000830152612fe18186612ba7565b90508181036020830152612ff58185612cc1565b90506130046040830184612f66565b949350505050565b600060408201905081810360008301526130268185612c05565b9050818103602083015261303a8184612c63565b90509392505050565b6000606082019050818103600083015261305d8186612d1f565b905081810360208301526130718185612c63565b90506130806040830184612f66565b949350505050565b600060208201905081810360008301526130a181612d9b565b9050919050565b600060208201905081810360008301526130c181612dbe565b9050919050565b600060208201905081810360008301526130e181612de1565b9050919050565b6000602082019050818103600083015261310181612e04565b9050919050565b6000602082019050818103600083015261312181612e27565b9050919050565b6000602082019050818103600083015261314181612e4a565b9050919050565b6000602082019050818103600083015261316181612e6d565b9050919050565b6000602082019050818103600083015261318181612e90565b9050919050565b600060208201905081810360008301526131a181612eb3565b9050919050565b600060208201905081810360008301526131c181612ed6565b9050919050565b6000819050602082019050919050565b6000819050602082019050919050565b6000819050602082019050919050565b6000819050602082019050919050565b6000819050602082019050919050565b600081519050919050565b600081519050919050565b600081519050919050565b600081519050919050565b600081519050919050565b6000602082019050919050565b6000602082019050919050565b6000602082019050919050565b6000602082019050919050565b6000602082019050919050565b600082825260208201905092915050565b600082825260208201905092915050565b600082825260208201905092915050565b600082825260208201905092915050565b600082825260208201905092915050565b600082825260208201905092915050565b6000613301826133d1565b915061330c836133d1565b9250827fffffffffffffffffffffffffffffffffffffffffffffffffffffffffffffffff0382111561334157613340613436565b5b828201905092915050565b6000613357826133d1565b9150613362836133d1565b92508282101561337557613374613436565b5b828203905092915050565b600061338b826133b1565b9050919050565b60008115159050919050565b60008190506133ac8261362e565b919050565b600073ffffffffffffffffffffffffffffffffffffffff82169050919050565b6000819050919050565b60006133e68261339e565b9050919050565b60006133f8826133d1565b91507fffffffffffffffffffffffffffffffffffffffffffffffffffffffffffffffff82141561342b5761342a613436565b5b600182019050919050565b7f4e487b7100000000000000000000000000000000000000000000000000000000600052601160045260246000fd5b7f4e487b7100000000000000000000000000000000000000000000000000000000600052602160045260246000fd5b7f42757965722063616e6e6f742062652073656c6c657200000000000000000000600082015250565b7f436f6c6c656374696f6e20616c7265616479206c697374656400000000000000600082015250565b7f496e636f72726563742070726963650000000000000000000000000000000000600082015250565b7f4f6e6c792061646d696e00000000000000000000000000000000000000000000600082015250565b7f546f6b656e206973206e6f74206c697374656400000000000000000000000000600082015250565b7f436f6c6c656374696f6e206973206e6f74206c69737465640000000000000000600082015250565b7f436f6c6c656374696f6e206973206e6f7420666f72206c697374696e67000000600082015250565b7f546f6b656e206973206e6f7420666f722073616c650000000000000000000000600082015250565b7f7472616e73666572206661696c65640000000000000000000000000000000000600082015250565b7f5265656e7472616e637947756172643a207265656e7472616e742063616c6c00600082015250565b6003811061363f5761363e613465565b5b50565b61364b81613380565b811461365657600080fd5b50565b613662816133d1565b811461366d57600080fd5b5056fea2646970667358221220c8a12b5b24e14d7a3b47fdf501f50e1a5078c345441b6190b102ca5eaaa99bbb64736f6c63430008040033",
  "linkReferences": {},
  "deployedLinkReferences": {}
}